:0200000280007C
:10000000004008207D51080079510800795108000E
:10001000795108007951080079510800000000006A
:1000200000000000000000000000000079510800FE
:10003000795108000000000079510800795108004A
:100040007951080079510800B1170800795108006A
:100050007951080079510800795108007951080058
:10006000F53F080079510800AD030800C1030800FE
:10007000795108004D0F08007951080079510800A6
:100080007951080079510800795108007951080028
:10009000795108007951080071420800795108002F
:1000A0007951080079510800795108007951080008
:1000B00079510800795108007951080010B5054CB4
:1000C000237833B9044B13B10448AFF30080012304
:1000D000237010BD74100020000000004CBC08000C
:1000E0000C4B43B10C4810B50C49AFF300800C48E1
:1000F000036823B910BD0A48036833B97047094B38
:10010000002BF7D0BDE810401847064B002BF5D068
:10011000184700BF000000004CBC08007810002009
:100120004CBC0800000000000FB438B504996429E5
:1001300005D066295CD01020304B984758E04FF02E
:10014000405120202E4CA0474FF040512120A04785
:100150004FF040512220A0474FF040512320A047AC
:100160004FF040512420A0470A20264DA8470B20DD
:10017000A847254D29460E20A04729460F20A04715
:1001800029461020A04729461120A04729461820BB
:10019000A04729461920A04729461A20A0472946EA
:1001A0001B20A04729461C20A04729461D20A04708
:1001B00029463620A04729463720A047294638201F
:1001C000A0470323012211496820114CA0470023B6
:1001D000032210496820A04764200F4B98476420F1
:1001E0000E4B984764200E4B984764200D4B984760
:1001F0000020BDE8384004B0704700BFB1100800CF
:100200007D4A08007D4C0800010000280CA308006E
:10021000E11708001CA3080009450800250D080087
:1002200005470800611C080038B910B514461A4685
:100230002046034B9847002010BD6FF00700704721
:100240002559080068B910B50C4611461A462046D3
:100250000123054CA047002814BF6FF007000020C1
:1002600010BD6FF007007047310508000068C0F34B
:100270000320704708B50368090201F4706123F494
:1002800070631943014B984708BD00BF79000020F7
:10029000A1F10E03012B02D84FF0FF30704710B5CB
:1002A00082B0EFF31083B3FA83F35B09019372B664
:1002B000BFF35F8F00240B4B1C70019C120222F0D5
:1002C0007F4222F0FF0242F0B442C9B21143064B12
:1002D00098472CB10122034B1A70BFF35F8F62B6AF
:1002E00002B010BDC40600207D0000202DE9F041C1
:1002F000044688460E4B9847054620460D4B9847C6
:10030000054013D00C4C04F1600603E0B4420DD05C
:1003100010345DB120684045F8D161682942F5D0BC
:10032000E3689847636825EA0305EFE7BDE8F081D5
:10033000034A0800074A080090100020F8B5184C3E
:100340002668062E29D84FF0000C6446154F04E0AD
:100350000134E4B2A446A64209D3A64625017D593C
:100360008D42F5D107EB04156D689542F0D10D4D26
:100370004FEA0E1E05EB0E0445F80E106260A360F6
:100380000699E1600136664504BF05490E601146D5
:100390001A46054B98470020F8BD0120F8BD00BF64
:1003A0000011002090100020D149080008B50A2152
:1003B0000148024B984708BD000C0E40ED020800B2
:1003C00008B50B210148024B984708BD000E0E40AE
:1003D000ED02080010B40B01934214D9C9004B0878
:1003E00003EBC202B2FBF1F2D3085C1E4FF6FE71C2
:1003F0008C4201D9012017E0416841F4002141609D
:100400000CE0012010E0590801EBC202B2FBF3F24C
:10041000D3085C1E4FF6FE718C42F2D8120402F42F
:10042000E0221A430262002010BC70470A4BC0F859
:10043000E430002343604362836288230360242303
:1004400003604FF4807303604FF4002303604FF4A4
:1004500000330360704700BF0041535570B5054637
:100460000C4616460F4B984700220F4B1A60A4B15A
:100470003246216828460D4B9847024678B9636892
:10048000A1680B4321690B43E1680B4306490B60EC
:1004900069680B436B60104670BD0122FBE70122C7
:1004A000F9E700BF2D04080004110020D50308005F
:1004B00010B50446064B984740B90246636823F0DE
:1004C0000F0343F001036360104610BD0122FBE7F8
:1004D0005D040800402303607047102303607047E9
:1004E00081607047C1607047406970474FF40043B6
:1004F0004360704730B4B1F5801F0DD3A1F580146F
:10050000C4F30F24C9B2084D00B1056002B11480D4
:1005100003B1198030BC7047A1F50024C4F30F2447
:10052000C9B2024DF0E700BF000A0E4000080E40BD
:100530002DE9F04F85B08B469246009302AB0DF14A
:100540000A02014603A8334CA0470398324B984750
:10055000019006210398314B9847BAF1000F50D013
:10056000DFF8C48008F1FC0513E0BDF80A20012182
:1005700003982B4B9847002848D1BB44BDF80A305C
:100580000133ADF80A300023ADF80830BAEB070AA2
:1005900037D0BDF80860C6F58077574528BF574665
:1005A000BDF80A30039A1F498A420CBF03F5006365
:1005B00003F580531C02324621464046DFF86C901A
:1005C000C8473A46594608EB0600C847F019C6F531
:1005D0008072D21B92B201194044C847A8F10403AB
:1005E000043C53F8042F44F8042FAB42F9D1009B8C
:1005F000002BBAD0BDF80A2003210398084B984776
:10060000B9E701990398054B9847002005B0BDE86C
:10061000F08F00BFF50408006D02080075020800A5
:100620009102080000080E4008110020255908001A
:100630002DE9F04184B00391642800F0DD80662844
:1006400040F02781BDF80D709E4C9DF80C303A4665
:100650009D4920469D4DA847214667209C4CA047B8
:100660009C496720A0479C4D29466720A0470E2043
:100670009A4B9847002840F0CD8099496720A047C1
:10068000984C21466720924EB04797496720B04763
:1006900029466720B0470F20904B9847002840F02C
:1006A000BE808F496720B04721466720DFF820824F
:1006B000C0478E496720C0478D4E31466720C047EE
:1006C0001020864B9847002840F0AE808449672070
:1006D000C04721466720DFF8F881C0478549672079
:1006E000C04731466720C04711207C4B98470028FF
:1006F00040F09F807A496720C04721466720DFF895
:10070000D081C0477C496720C04731466720C04739
:100710001820724B9847002840F09080704967205D
:10072000C04721466720DFF8A881C047734967208A
:10073000C04731466720C0471920684B98470028BA
:1007400040F0818066496720C04721466720604E9F
:10075000B0476B496720B04729466720B0471A2049
:100760005E4B9847002873D15D496720B04721460A
:100770006720574EB04763496720B0472946672036
:10078000B0471B20554B9847002866D15449672035
:10079000B047214667204E4EB0475B496720B047BF
:1007A00029466720B0471C204C4B9847002859D158
:1007B0004B496720B04721466720454EB047534913
:1007C0006720B04729466720B0471D20434B984714
:1007D00000284CD142496720B047214667203C4B56
:1007E00098479DF80C30013B042B00F2A480DFE811
:1007F00003F043535A619B0045496720344B9847A7
:10080000039B1B0223F07F4323F0FF0343F001030C
:10081000039317E73F4967202D4B984730E73D4941
:1008200067202B4B98473FE73A496720284B98476A
:100830004FE738496720264B98475EE735496720E0
:10084000234B98476DE733496720214B98477CE756
:10085000304967201E4B984789E72E4967201C4B7B
:10086000984796E72B496720194B9847A3E72949F2
:100870006720174B9847B0E72020274B98474FF445
:100880007A730093039B0133662224491046244C5B
:10089000A04704B0BDE8F0812020224B98472120DA
:1008A0001D4B9847EBE721201E4B984722201A4BFF
:1008B0009847E4E722201B4B98472320164B984784
:1008C000DDE700BF581C002054A30800AD5A080003
:1008D000E13D080064A3080070A308000B4A08006B
:1008E00074A3080010AA08007CA3080088A30800CD
:1008F0008CA3080094A3080098A30800A0A30800F4
:10090000A4A30800B4A30800C0A30800D0A3080053
:1009100040A3080078A30800274A08003106080011
:1009200071400800414A08002320134B98472420B7
:10093000124B9847A3E720200F4CA0472120A04747
:100940002220A0472320A0472420A04727B1013F11
:10095000BFB2ADF80D7027B909496720094B984718
:1009600097E700230093039B1B0A64220649662035
:10097000064CA047F0E700BF414A0800274A08009C
:10098000E0A30800E13D08003106080071400800BE
:1009900010B542F21663984222D045F2DB1398421A
:1009A0001DD01C4900201C4B98470446A8B11B4B86
:1009B0009847014620461A4B984742F216639842E0
:1009C00020D012D943F22B13984217D04CF29863DF
:1009D000984202D16520134B9847134B984710BD9E
:1009E00012496720124B984710BD40F23463984279
:1009F000F3D1002166200B4B9847EEE735200D4BD5
:100A00009847EAE709496720094B984730200A4B85
:100A10009847E2E784A40800E9420800F95A080070
:100A200045100800E1170800A542080070A408005E
:100A3000E13D0800274A0800414A080070B590B01F
:100A400051490020514B9847002800F08880044607
:100A50004F4B9847014620464E4B984743F22B1385
:100A6000984200F0878050D840F2346398427AD0A0
:100A700042F21663984272D1474B98474249002090
:100A8000424B9847454B98470646002867D0444953
:100A90006720444CA047444D324644492846444BC5
:100AA000984729466720A0474FF080513020414B9E
:100AB0009847414B03AD93E8070085E807001920EC
:100AC0003E4B98473E4C032120463E4B98472946D3
:100AD00020463D4B98470C23079364230A93322307
:100AE0000993032510A941F8285D2046374B984704
:100AF00029462046364B98470096002342F216625C
:100B000034496620344CA04729E04CF2986398425F
:100B100020D04DF62E43984221D11F4B98471A49B9
:100B200000201A4B984718B31C4B984704461E4D9B
:100B300002462A4928461E4B984729466720194BEA
:100B40009847002300932346642225496620224CBF
:100B5000A04704E06520234CA0476420A0470E4B2B
:100B6000984710B070BD012166201E4B9847F6E7EC
:100B70000124E6E74FF0605135200E4B98473520B1
:100B8000194B9847EBE700BF84A40800E94208002E
:100B9000F95A080045100800A5420800CD58080081
:100BA00050A40800E13D0800581C002064A408007F
:100BB000AD5A08007D4A080034A308007D4C0800A7
:100BC00000C00840394E0800054D0800494D080096
:100BD0002F4E0800910908007140080040A4080049
:100BE00031060800E1170800414A080010B582B03C
:100BF00042490020424B984738B30446414B98473E
:100C000001462046404B98474BF2403398421CD156
:100C10003E4967203E4B98473E4B9B683E4A1360D7
:100C2000023303F00F03092B13DC117863F3030184
:100C30001170384BDA68384B5A60009304234FF434
:100C400080527F216620354CA047354B984702B033
:100C500010BD314A13786FF303031370C3F302130B
:100C6000052B05DC0133117863F306111170E0E701
:100C7000294B1A786FF306121A705B7803F00F0392
:100C8000092B06DC244A0133517863F303015170C8
:100C9000CFE7214A53786FF303035370C3F3021372
:100CA000052B05DC0133517863F306115170C0E761
:100CB000194B5A786FF306125A709B7803F00F03A2
:100CC000092B06DC144A0133917863F30301917018
:100CD000AFE7114A93786FF303039370C3F30113E3
:100CE000022B05DC0133917863F305119170A0E7C5
:100CF000094B9A786FF305129A709AE784A408005A
:100D0000E9420800F95A08004510080018A4080034
:100D1000E13D080060120E408C130020611C0800A9
:100D2000A54208000FB4F0B583B00899642916D025
:100D30000ED8012967D0022940F0D0806C4B6D4A53
:100D40001A605A604FF6FF721A81002098823CE0C8
:100D500066293FD0672940F0C180664835E0644D80
:100D60000127AF740220FFF7DDFF00242C820D2045
:100D7000614B9847614D624A62492846624B9847E9
:100D80004FF000611220614EB0474FF00061132018
:100D9000B0474FF000612720B0474FF0FF312846A1
:100DA0005B4B9847394628465A4B98474FF40052B8
:100DB000594B1A602846594B98472846584B984734
:100DC00058496720584B9847204603B0BDE8F0408B
:100DD00004B070470220FFF7A5FF0A9B43B1444BC4
:100DE000099A1A8303229A759A7440F6B8321A82C5
:100DF000099A404B13443E4A136002213F48454B39
:100E000098470020E1E73A4B1B8A002B6BD0013B4F
:100E10009BB2374A1382002B67D1937C042B0BD0F3
:100E2000072B09D0032B21D00122314B9A740220C9
:100E3000FFF778FF0020C8E72D4BDA899B899A429B
:100E400007D001222A4B9A740220FFF76BFF002083
:100E5000BBE7002400942346012234496620344D28
:100E6000A8470220FFF75EFF2046AEE7204A937DA9
:100E7000013BDBB2937593B12E4967202A4B98470B
:100E80001B4B1C4A5A60198B0A441A6040F6B83250
:100E90001A82022119481F4B9847002095E72649DE
:100EA0006720214DA847134C244E03232278244960
:100EB0003046244FB84731466720A847237800249E
:100EC0000094022219496620194DA8470122084BB7
:100ED0009A740220FFF726FF204676E720201A4B5F
:100EE0009847002071E700206FE700206DE700BF02
:100EF0009C130020081200207D4C080000000940CF
:100F000000D8B805F0A40800B10408007D4A080024
:100F1000E5040800E104080000E100E0D504080051
:100F2000DB04080088A40800E13D0800611C0800FB
:100F3000714008009CA40800ACA40800581C0020C4
:100F4000D4A40800AD5A0800B110080038B5354CDB
:100F50002046354B98470546236913F0010F34D0DE
:100F600010F0010F31D0314B9B7C012B0AD0072BA5
:100F70000BD02C4B9B6902202D4B984701222B4B09
:100F80009A7422E00722294B9A74284CC8232382A2
:100F90002368244A92691A706389A3812189618137
:100FA00023681878234B98472081E3891B029BB262
:100FB000E381226812F8011B0B43E381A38A01330A
:100FC000A38222601C4B9A4216D2164B1B6913F067
:100FD000020F10D015F0020F0DD0144A536812689A
:100FE000934216D05A1C11494A6019780D4BD961A9
:100FF000114B9A4205D238BD002123200F4B984750
:10100000E3E7022107480E4B98470220084B984718
:1010100038BD022103480A4B98470220044B9847E9
:10102000E9E700BF00000940E90408009C13002024
:10103000250D0800791008000A130020B1100800DF
:10104000E504080089B110B441184FF6FF72094C4D
:1010500010F8013B5340DBB254F8233083EA1222EC
:101060008142F5D1104610BC70474FF6FF72104612
:10107000704700BFBC0100204840C0B2024B53F88B
:10108000200080EA11207047BC010020074A80EA56
:101090000103DBB252F8233083EA112181EA1023E5
:1010A000DBB252F8230080EA11207047BC01002017
:1010B0000FB42DE9F84F6E4C0B9B0A9A6D492046F0
:1010C0006D4DA847214667206C4B98476C486D4B87
:1010D000984772B6BFF35F8F00226B4B1A704FF0C8
:1010E00060513320694B98474FF00508654C684FB5
:1010F00031E03320674B98476748A0473320674B60
:10110000984748E03320634B98476348A047332013
:10111000624B984757E033205E4B98475E48A047A4
:1011200033205E4B984767E033205A4B98475A4824
:10113000A0473320594B984779E03320554B9847C7
:101140005548A0473320554B98474D48A047B8F124
:10115000010800F0868033204E4B98475048A04746
:1011600033204E4B98474F48A047DDF82890B9F1FF
:10117000090FBED9A7FB0923DB085E005BB1002580
:10118000DFF830B1DFF830A13320D8475046A04710
:101190000135B542F8D14348A047A7FB0936F60808
:1011A00006EB8606B9EB4606ACD076000BD00025E0
:1011B000DFF800A1DFF800913320D0474846A04770
:1011C0000135B542F8D12E48A047DDF82C90B9F191
:1011D000630FA0D9344BA3FB09235B095E005BB10D
:1011E0000025DFF8D0B0DFF8D0A03320D847504634
:1011F000A0470135B542F8D12A48A047A7FB0923EB
:10120000DB08A7FB0326F60806EB8606B3EB4606CB
:101210008AD076000BD00025DFF898B0DFF898A0D0
:101220003320D8475046A0470135B542F8D11D4874
:10123000A047A7FB0936F60806EB8606B9EB46067B
:101240003FF47BAF760080D00025DFF868A0DFF8A0
:1012500068903320D0474846A0470135B542F8D1C1
:1012600073E71248124B9847BDE8F84F04B0704737
:10127000581C002008A50800AD5A0800E13D0800F0
:10128000B7A1680099000020C40600207D4A08002C
:10129000CDCCCCCC274A080093F29C00414A0800F0
:1012A00025E5390193B453001F85EB5100120E4020
:1012B000015108005B4A080025ED14000FB438B551
:1012C0000499A1F16503042B59D8DFE803F0035812
:1012D0000C1F3E002C4967202C4B98470020BDE88E
:1012E000384004B070473C23294A2A4900202A4C40
:1012F000A04730B1264B1868012814BF00200120F8
:10130000EDE726496720214B9847F3E7244C01235A
:1013100063610025A5616720224B9847E06118238F
:1013200004F114021B4928461F4CA04708B10020B5
:10133000D5E71E4D1E4B2C460FCB07C42370294604
:101340006720124B98470020C9E7154A00205061DA
:101350009061FF23D361182314320E49124CA04729
:1013600008B10020BBE7114D114B2C460FCB07C431
:10137000237029466720054B98470020AFE75B2084
:101380000C4B98470020AAE728A50800E13D08007B
:10139000E413002000F80B002902080034A508001F
:1013A000B81300200547080045020800581C00201B
:1013B0004CA50800B11008000FB4F8B506996629CD
:1013C00013D067294CD0652903D03D202E4B984778
:1013D00007E02E4B2E4A1A605A602E4967202E4B8A
:1013E0009847BDE8F84004B07047284B1C68221DA0
:1013F0009A6000221A73079D23689D4205D0234AF4
:1014000001272649A1F500660CE001221F4B1A7343
:10141000F5E71868854208BF177304338B4228BF6D
:101420003346936093689C42F3D12560174B1B6849
:1014300004331A4A93420AD2144A1360134B1A68AF
:101440005B689A4207D00022104B1A73C9E7104A12
:101450000E4B1A60F2E700213E200B4B9847F2E753
:101460000A4A5368126893420BD053F8040B0B4A94
:10147000934202D2054A5360B3E7054A034B5A60D0
:10148000AFE70020ADE700BFB11008002014002036
:10149000301400205CA50800E13D0800301C00204D
:1014A0000FB4F0B587B00C99642921D014D8012964
:1014B00000F00E81002900F0BB80022913D10F9BA0
:1014C0001A1F052A40F24881032B00F01B810A2BCA
:1014D00000F02D810024D1E0672940D0682900F078
:1014E0008D8066291AD00E209E4B98470024C5E0B7
:1014F00000209D4B98479D4CA0470028FCD09C4B5A
:101500000421C3F88010C3F88011102283F802234D
:1015100019609848984B98470024AFE00F9B0E9AAB
:101520000D999448954CA04704460C90002840F033
:10153000A580934B9978DA78043B9B7803F03F03BE
:10154000009301F01F0302F03F0249090220FFF758
:10155000A7FF8C4B1A7860F382021A708EE00E9C03
:10156000631E0B2B02D94FF0FF3487E00D9F864A94
:10157000D55C0F9E31460120FFF792FF2844874239
:1015800002D94FF0FF3479E0A6F26C73C72B02D971
:101590004FF0FF3472E07D4DA5FB06356D096423E5
:1015A00003FB1565632D02D94FF0FF3466E0334627
:1015B000224639460020FFF773FF00903B46224643
:1015C00029466C48724CA04704460C90002855D11F
:1015D0006B4B9978DA78043B9B7803F03F030093D8
:1015E00001F01F0302F03F0249090220FFF758FFF4
:1015F000644B1A7860F382021A703FE002AB0093EA
:1016000003AB04AA05A95B48624CA047029B013BBF
:10161000614A52F82320059B0193049B013B5F49DB
:1016200051F823300093039B5D490D985D4CA04712
:101630000E99022928D90F980D9A8318023303EBCB
:101640009003524AA2FB002003EBD01301EB4102AE
:10165000C1EBC2025449A1FB021203EB5203A3EBFC
:101660005013524AA2FB0312991A02EB510292083C
:10167000C2EBC2029B1A01330C930C9C204607B0AC
:10168000BDE8F04004B070470F9A501E0D9B134404
:10169000043301EB4102C1EBC2024349A1FB021238
:1016A00003EB520303EB9003384AA2FB001203EB57
:1016B000D213A3EB52133D4AA2FB0312991A02EB79
:1016C00051029208C2EBC2029B1A01330C93D4E779
:1016D0000D9B13F0030F07D12C4AA2FB03125209F2
:1016E000642101FB12325AB9284CA4FB0324E409FB
:1016F0004FF4C87202FB1434B4FA84F46409BDE7F1
:101700000124BBE70E9C182C28D90D9A012A08D079
:10171000183C64B252B2A41A002CD4BF0024012495
:10172000ACE7109C012C94BF00240124A6E70E9C7A
:10173000182C15D90D9A012A08D0183C64B252B25F
:10174000A41A002CCCBF0024012497E7109C012C84
:101750008CBF0024012491E701248FE700248DE74A
:1017600000248BE7B1100800B14B0800D54B0800EE
:1017700000E100E060120E40434E0800A14E080058
:101780006C120E40301C002080A508001F85EB5114
:10179000A94F0800354F0800BC050020D8050020DF
:1017A00070A50800AD5A0800398EE3382549922407
:1017B00010B582B004210648064B984700230093D9
:1017C000042205496620054CA04702B010BD00BFA9
:1017D00060120E40615008003D2B08007140080067
:1017E0000FB438B504994B1E692B00F21382DFE861
:1017F00013F00E015E0168017F0191019D01A901B5
:101800001602CB01EE0111021102110211021102A6
:101810001102110211021102110211021102110230
:101820001102110211021102110211021102110220
:101830001102110211021102110211021102110210
:101840001102110211021102110211021102110200
:1018500011021102110211021102110211021102F0
:1018600011021102110211021102110211021102E0
:1018700011021102110211021102110211021102D0
:1018800011021102110211021102110211021102C0
:1018900011021102110211021102110211021102B0
:1018A00011021102110211021102110211021102A0
:1018B00011021102110211026A00B9000301E300D2
:1018C000EE00DE0072010920FFF78AFF4FF0405161
:1018D0000420A34CA0474FF040510520A0474FF0F3
:1018E00040510620A0474FF040510720A047042058
:1018F0009C4CA0470620A0470520A04707209A4BF4
:1019000098479A489A4CA04730210220FFF768FF79
:101910004AF2B700A04730210220FFF761FF43F2EF
:101920009350A04730210220FFF75AFF43F2935013
:10193000A04738210220FFF753FF08210220FFF7BC
:101940004FFF01210220FFF74BFF06210220FFF786
:1019500047FF0C210220FFF743FF0122854B1A604D
:1019600000245DE108210220FFF73AFF0A20FFF77B
:1019700037FF4FF040510420794CA0474FF04051C1
:101980000520A0474FF040510620A0474FF040519E
:101990000720A0470420734CA0470620A04705203D
:1019A000A0470720A0470024724B1C6038E1714B10
:1019B0001C6804F0010433E1079A06990720FFF739
:1019C0000FFF05990320FFF70BFF002428E1079A7A
:1019D00006990720FFF704FF059C2178002900F0F5
:1019E00024810325013405942846FFF7F9FE217868
:1019F0000029F7D1002413E1059C24B107205A4B9C
:101A0000984700240CE10720564B984708E109202D
:101A1000FFF7E6FE0520534B98470520FFF7E0FE51
:101A2000059C14F0800F4FF0030014BF4E4B4D4B3C
:101A30009847E4B214F0400F4FF0020014BF4A4B35
:101A4000484B984714F0200F4FF0010014BF464B4D
:101A5000444B984714F0100F4FF0000014BF424B56
:101A6000404B984714F0080F4FF02B0014BF3E4B2B
:101A70003C4B984714F0040F4FF02A0014BF3A4B28
:101A8000384B984714F0020F4FF0290014BF364B23
:101A9000344B984714F0010F4FF0280014BF324B1D
:101AA000304B98470620FFF79BFE0024B8E0062045
:101AB0002C4B98479DF814100120FFF791FE00244D
:101AC000AEE00620284B98479DF814100120FFF740
:101AD00087FE0024A4E00598C0F11400264B984727
:101AE0004FF07C51254B9847254B9847044697E08B
:101AF00040F665501E4CA04704201B4B984740F20F
:101B0000AE20A0470420174B984740F66550A047E9
:101B1000002485E040F66550154CA0470420124B88
:101B2000984740F25710A047002479E040F2571040
:101B30000F4CA04704200B4B984740F66550A04738
:101B400000246DE0059B03F003030E4AD15C069B65
:101B5000194441F080010220FFF742FE00245FE0BB
:101B60007D4A0800414A0800274A0800DC5034003A
:101B700099000020341C00203D550800ED55080058
:101B80008D5808003CA608004FF040510020284C1A
:101B9000A0474FF040510120A0474FF04051022094
:101BA000A0474FF040510320A0474FF0405128205C
:101BB000A0474FF040512920A0474FF040512A2024
:101BC000A0474FF040512B20A047002428E04FF0C1
:101BD00020510020164CA0474FF020510120A04773
:101BE0004FF020510220A0474FF020510320A04782
:101BF0004FF020512820A0474FF020512920A04726
:101C00004FF020512A20A0474FF020512B20A04711
:101C1000002405E00F20074B9847002400E0002433
:101C20002046BDE8384004B070470024F8E700BF04
:101C30007D4A0800B110080008B5C0F11400054B3A
:101C400098474FF07C51044B9847044B9847C0B2DB
:101C500008BD00BF3D550800ED5508008D5808002F
:101C60000FB42DE9F04F83B00C994B1EC82B00F236
:101C70002D87DFE813F03904E8062B07A706CE0608
:101C80003007DB06FC066F062B072B072B072B07FD
:101C90002B072B072B072B072B072B072B072B07B4
:101CA0002B072B072B072B072B072B072B072B07A4
:101CB0002B072B072B072B072B072B072B072B0794
:101CC0002B072B072B072B072B072B072B072B0784
:101CD0002B072B072B072B072B072B072B072B0774
:101CE0002B072B072B072B072B072B072B072B0764
:101CF0002B072B072B072B072B072B072B072B0754
:101D00002B072B072B072B072B072B072B072B0743
:101D10002B072B072B072B072B072B072B072B0733
:101D20002B072B072B072B072B072B072B072B0723
:101D30002B072B072B072B072B072B07C9002B077C
:101D4000E502E4039D032B072B072B072B072B072B
:101D5000FF012B070D012B07A002A1012B072B0769
:101D60002B072B07F6002B072B072B072B072B071F
:101D70002B072B072B072B072B07230726072B07E0
:101D80002B072B072B072B072B072B072B072B07C3
:101D90002B072B072B072B072B072B072B072B07B3
:101DA0002B072B072B072B072B072B072B072B07A3
:101DB0002B072B072B072B072B072B072B072B0793
:101DC0002B072B072B072B072B072B072B072B0783
:101DD0002B072B072B072B072B072B072B072B0773
:101DE0002B072B072B072B072B072B072B072B0763
:101DF0002B072B072B072B072B072B072B072B0753
:101E00002B072B072B073E016520AA4B9847AA4BAF
:101E100000225A759A751A6001211975DA75597779
:101E20001A776720A54B9847012813D0A24B1A8830
:101E300002F03202A24C322A14BF00220122A14930
:101E40002046A14B984721466720A04B9847002485
:101E500000F042BE00229E4B996869209D4B984736
:101E6000E4E7954B1B8813F0100F07D1924A1388B3
:101E700023F004031380002400F02EBE964967204F
:101E8000924B98478C4A138823F010031380EDE798
:101E90006720924FB8470646002404704FF6FF7142
:101EA0002046DFF85482C047834D2881642070703B
:101EB0002989C0472881B47029892046C0472881D4
:101EC000F47029892046C04782B22A81000220F09E
:101ED0007F4323F0FF0343EA1223B3802B8843F0B0
:101EE00004032B800621698222466620B84700F051
:101EF000F3BD714CE37D2288714D012B14BF00238B
:101F00000123C2F38002764928466F4EB047294626
:101F100067206E4B9847238813F0040F3AD1E37D76
:101F200013B1002400F0D8BD67206C4FB8470646B7
:101F30007F2030704FF6FF71DFF8BC81C047254627
:101F40002081642070702189C04720810024B470F2
:101F500029892046C0472881F47029892046C04736
:101F600082B22A81030223F07F4323F0FF0343EA76
:101F70001223B3800621698222466620B84741F2C7
:101F8000883300932346C92256496620564DA847F8
:101F900000F0A2BD484BDB7D13B1002400F09CBDD6
:101FA0004FF4FA7300930023C9224E4966204E4C29
:101FB000A047002400F090BD3F4D414EAA7D4B4903
:101FC0003046DFF80491C84731466720DFF8FC80CF
:101FD000C0476720DFF804A1D04707467F2038704C
:101FE00068734FF6FF71DFF810B1D847288174206D
:101FF00078702989D84728810024BC702989204617
:10200000D8472881FC7029892046D84782B22A8186
:10201000000220F07F4323F0FF0343EA1223BB803A
:102020000621698222466620D047EB7D2A88304F00
:10203000012B14BF00230123C2F38002394630462E
:10204000C84731466720C0470123EB752A88C2F391
:10205000800239463046C84731466720C04740F2C3
:10206000DC53009323466E221E4966201E4DA8476E
:1020700000F032BD104C2288114DC2F38003C2F330
:1020800000121C492846104EB047294667200F4BC6
:102090009847238803F0140383B34FF47A730093B3
:1020A00000236E220F4966200F4CA047002400F049
:1020B00013BD00BFB9130800381C0020BD12080072
:1020C000581C002040A60800AD5A0800E13D080059
:1020D000E41300200547080058A60800250D080055
:1020E000ACA60800611C080071400800D8A60800D2
:1020F000FCA6080038A70800791008009F4967204F
:102100009F4B9847238843F01003238067209D4B03
:10211000984705460C909C4FA37D17F82300287024
:1021200060734FF6FF71994EB0472081652068704B
:102130002189B04720814FF0000885F8028021896D
:102140004046B047208185F8038021894046B0474A
:1021500082B22281000220F07F4323F0FF0343EA92
:102160001223AB80238843F002032380A37D57F81A
:102170002320A2B9234683F81680854B5B7B93B955
:102180006720844B98470146814B98611A8822F05A
:1021900012021A805A7B0920FFF762FD7DE70133A6
:1021A0007B4A9375E9E70621794B59820122662023
:1021B000744B984771E76720724B984706460C901E
:1021C000734C237D63737F2030704FF6FF716F4D2A
:1021D000A8472081722070702189A8472081207D26
:1021E000B0702189A8472081637FEBB9FE20F07091
:1021F0002189A8472081637B2377654C22891302BC
:1022000043EA12230C9A9380062161820022662001
:102210005C4B9847637F0133DBB2012B0CD9002460
:102220005B4B5C7700F058BC594C207FF0702189E3
:10223000564B98472081E0E76377002400F04CBCC0
:102240006720504B984780460C9006469DF834A076
:1022500080F800A04FF6FF715046DFF830B1D84744
:102260004B4F38810E9CE0B288F801003989D8477D
:102270003881C4F3072088F802003989464B984713
:102280003881DDF83C901FFA89F425464FEA09238E
:1022900023F07F4323F0FF0343EA142398B2A8F806
:1022A000030039893C4B984738814FEA4900C0B256
:1022B00088F805003989D847388100230E93BCB1CE
:1022C0001F46DFF8CC90DFF8D0B0109B33F8173002
:1022D000180240EA132080B206EB4703D880B9F811
:1022E0000810D847A9F8080001370E97BD42ECD175
:1022F000274B19890A0208EB440342EA1122DA80CB
:10230000BAF17F0F224A138814BF43F0020323F06F
:10231000020313801E4B1B8813F0020F0CD16100C7
:10232000093189B21A4B59821A88C2F340026620D9
:10233000144B98470024CFE3DFF85490174D99F8D9
:102340000C3098F8002016492846164FB847294601
:1023500067200B4EB04798F8012013492846B8472C
:1023600029466720B047B9F80020C2F340020F4960
:102370002846B84729466720B047D0E768A7080035
:10238000E13D0800250D08000C130020791008001D
:10239000381C0020B91308008D100800581C0020BC
:1023A00074A70800AD5A080098A70800A8A708005D
:1023B00067209C4FB84705469DF8346006709A4CDC
:1023C00066734FF6FF713046DFF87482C047208194
:1023D00001206870A0722189C04720810E9B1802DD
:1023E000C3F3072300F47F4018436880E08121890C
:1023F000DFF88082C04720810F9B1802C3F30723B8
:1024000000F47F401843A88020822189C04782B20F
:102410002281000220F07F4323F0FF0343EA1223CE
:10242000EB80238843F00203238008216182B6F108
:102430007F0218BF01226620B84700244CE39DF8B4
:102440003460B6B96D20794B984768B178496720F8
:10245000784B98472320784B9847734A138823F08A
:1024600004031380002437E374496720714B9847B5
:10247000F3E76720DFF8AC81C047074606706A4D76
:102480006E734FF6FF7130466D4CA04728810520D2
:102490007870A8722989A04728810024BC70FC703C
:1024A000EC8129892046DFF8CC91C84728813C710E
:1024B0007C712C8229892046C84782B22A81000279
:1024C00020F07F4323F0FF0343EA1223FB802B8895
:1024D00043F002032B8008216982B6F17F0218BF06
:1024E00001226620C047F7E267204E4B984704461A
:1024F0000C904D4B1B8813F0010F00F08280514966
:1025000067204C4EB047484B1A884F4DC2F34002EB
:102510004E4928464E4B984729466720B0472646E5
:102520006378642B16D0722B1DD03F4B1B8813F0A1
:10253000020F00F0D782617805293AD02DD964299D
:102540004CD0652958D1E278A1780920FFF788FBA3
:102550000024C1E2344A138843F00403138072203C
:10256000FFF77EFBE1E7A2782F4B1B7D9A4205D057
:102570002D4A138823F004031380D6E735496720DA
:102580002C4B9847284B5A7D197D334840F8221030
:102590000131197501325A75EAE701292CD123F06E
:1025A0000403214A13802D496720224B98470024B9
:1025B00092E223F004031C4A1380B3884BB92849E4
:1025C00067201C4B9847274967201A4B98470024DF
:1025D00082E225496720174B9847F4E7A278234900
:1025E00019481B4B984729466720124B98470220F1
:1025F0000C4B984700246FE212201D4B9847002493
:102600006AE26720074B984705460C900646047817
:102610006720064B984784422ED02B787F2B33D0EF
:10262000002459E2250D0800381C00200547080049
:10263000BCA70800E13D08005B4A0800CCA70800E1
:1026400079100800E0A70800581C0020F0A7080037
:10265000AD5A080008A808000C1300207CA8080048
:1026600028A808005CA8080044A8080094A808004E
:10267000B11008008D1008002B787F2B04D0A64ADB
:10268000138843F0020313806B78102B29D00CD9E8
:10269000652B00F0C0801AD9722B78D0742B0DD125
:1026A00001229D4BDA75002416E2032B00F01C82F8
:1026B000052B00F0DD80012B00F022810024009426
:1026C0000123042295496620954DA84704E2642B16
:1026D000F4D10222904B5A800820FFF7C1FA00245F
:1026E000FAE1AB78102B49D18B4AD2899A4234D087
:1026F0008C4A936913F0040FFBD08A4A136843F0A5
:1027000003031360936913F0010FFBD0854A012383
:10271000D3610C9BD888010241EA1021D980188925
:10272000010241EA102119815889010241EA102170
:1027300059819889010241EA10219981D3F8061044
:10274000794B19600C9BD3F80A10784B1960136809
:1027500023F0030313600024BEE1B6F8031019440C
:102760006D4A128A13449942C2DB0024009402236A
:1027700004226A4966206A4DA847ADE1002400940E
:102780000223042265496620654DA847A4E1624BF7
:102790001B8813F0040F01D100249DE1EA78A97889
:1027A0006920DFF89C81C0473320614B98475A4E1F
:1027B000338823F03203338000247480AB78337580
:1027C0002C704FF6FF7120465A4FB8473081722067
:1027D00068703189B84730816720C047C0B2A8709F
:1027E0003189B847308181B2E878B84782B2328106
:1027F000030223F07F4323F0FF0343EA1223AB805D
:10280000338823F004033380062171822246662038
:10281000494B984760E14FF6FF712878454EB04725
:102820003D4C2081652068702189B0472081672058
:10283000424B9847C0B2A8702189B04720816C20D4
:102840003F4B9847C0B2E8702189B04782B22281DD
:10285000030223F07F4323F0FF0343EA1223AB80FC
:102860000621618200226620334B9847002433E121
:102870006720314B984704460C909DF83400207037
:10288000254D68734FF6FF712A4EB0472881052009
:102890006070A8722989B04728810020A070E0707C
:1028A000E8812989274B984728816D20244B984738
:1028B000E0B12320244B9847002323710123637147
:1028C0004FF48070288229891E4B98472881124A2C
:1028D00011890B0243EA11230C99CB800821518204
:1028E00000226620144B98470024F5E00020207158
:1028F0006071094C20822189124B98472081E6E7BC
:1029000012496720124B9847012211460720FFF712
:10291000A7F90024E0E000BF381C0020611C08007B
:102920007140080060120E4068120E406C120E409A
:10293000414A080079100800250D0800B913080065
:10294000054708008D1008005B4A0800581C00204D
:10295000E13D08000D99012907D000292DD0052956
:1029600019D04720614B98470EE061496720614BC1
:10297000984761490B8843F004030B8001231A46F2
:10298000497B6820FFF76CF95B4A138823F0120338
:1029900013800024A0E059496720564B9847564AB7
:1029A000138843F004031380002300930E9B6722D7
:1029B00053496620534CA047E6E7534967204D4BE7
:1029C0009847E1E76720514EB04704464FF6FF7144
:1029D00000784F4DA847484F3881637881B243F063
:1029E0008000A84738819DF83400A0703989A84735
:1029F00082B23A81000220F07F4323F0FF0343EAD2
:102A00001223A4F80330002205216620B0470024D9
:102A100062E040496720374B98470821364B59827E
:102A200000226620394B9847002455E03A49672038
:102A3000304B98470821304B598200226620334B97
:102A40009847002448E0354967202A4CA047344D78
:102A50000D9A34492846344B984729466720A047A9
:102A6000254A138823F014031380002434E06620E1
:102A70002E4B98470446E0B91F4B5B8823B933209F
:102A80002B4B9847002427E033202A4B98471A4BBA
:102A90001A8842F032021A805A88013A5A804FF45A
:102AA000FA7300930023082215496620154DA847A4
:102AB00012E0114B5B88002473B9E0E70E4B5C7D9C
:102AC0000AE00D9A1C4B53F8224005E02120074BE9
:102AD0009847002400E00024204603B0BDE8F04FF2
:102AE00004B070470024F7E70024F5E7B1100800B0
:102AF000ACA80800E13D0800381C0020C8A8080068
:102B0000611C080071400800ECA80800250D0800B1
:102B100079100800FCA808001CA9080034A90800C6
:102B2000581C002060A90800AD5A0800054708009D
:102B3000414A0800274A08000C1300200FB42DE971
:102B4000F04387B00E998B1E672B00F22587DFE8D4
:102B500013F07C0119043A017700680094062307FA
:102B60002307230723072307230723072307230715
:102B70002307230723072307230723072307230705
:102B800023072307230723072307230723072307F5
:102B900023072307230723072307230723072307E5
:102BA00023072307230723072307230723072307D5
:102BB00023072307230723072307230723072307C5
:102BC00023072307230723072307230723072307B5
:102BD00023072307230723072307230723072307A5
:102BE0002307230723072307230723072307230795
:102BF0002307230723072307230723072307230785
:102C00002307230723072307230723072307230774
:102C10002307230723079E002307C700E7000301BC
:102C20001E01109B1A784AB19DF83C108A4205D0CB
:102C3000013310931A780AB18A42F9D1904649E0DB
:102C4000DDF8408008F1FF331093B8F1000F41D058
:102C5000954E6625954C0F9B1B781B09F15C284609
:102C6000A0470F9B1B7803F00F03F15C2846A04799
:102C700020212846A0470F9B01330F93DDF84080A9
:102C800008F1FF331093B8F1000FE4D122E0884936
:102C90006720864DA847874B00249C615C611C77A8
:102CA00002221A806420844B98474FF060513420F0
:102CB000824EB0474FF060513320B0473320804BF5
:102CC000984764207F4B98476420A8477E49672037
:102CD000A847A046404607B0BDE8F04304B070479F
:102CE0000F9B01330F93794A52F823202AB900230E
:102CF0000F933420724B984705E013F0010FF8D082
:102D00003420734B98470F9B704A52F8232000924F
:102D1000662270491046704CA0474FF00008D9E772
:102D200034206E4B984766206D4B9847804648B1DB
:102D3000002400942346682266496620664DA84711
:102D4000A046C7E74FF4FA73009300236722614956
:102D50006620614CA047BDE73420604B9847614B2B
:102D6000DB7D012B0AD0642300930023682259499C
:102D70006620594CA0474FF00008ABE700240094B0
:102D8000662254491046544DA847A046A2E7342075
:102D9000524B9847534BDB7D012B0BD04FF42F73D5
:102DA0000093002369224B4966204B4CA0474FF00B
:102DB00000088FE700240094662246491046464DDD
:102DC000A847A04686E705AB0FAA0EA94648474C80
:102DD000A047384B1B8813F0040F2AD06920364BCC
:102DE0009847804600283FF475AF0EAD404C0F9BCE
:102DF00055F8042B3F4920463F4FB8470F23002288
:102E0000214668202C4EB04704AB009305AB2A4600
:102E10000EA93548394DA8470F9B059A38492046D9
:102E2000B84700231A4621466820B0474FF00008F3
:102E300050E72F4C0F9B0E9A324920462E4DA84743
:102E400021466720194B9847C8E71A4B1B7F062B72
:102E500000F28A82DFE813F00700840087009B00FD
:102E600071027402C1010F9AD3B2083B182B5ED8CD
:102E7000DFE813F09905990599055D005D00990556
:102E80005D005D005D005D005D005D005D005D005A
:102E90005D005D005D005D005D004A005D005D005D
:102EA0005D005D00990500BF54AA0800E13D0800DF
:102EB00070A908005C1F0020E11708007D4A080087
:102EC000414A0800A114080080A9080040AA08008F
:102ED000274A08003D2B0800714008005B4A0800A3
:102EE00005470800381C002060120E40474E0800BD
:102EF000FC1F0020A0A90800AD5A0800354F0800AB
:102F0000ACA9080094A90800884C1423A361884B3D
:102F1000A3601B2003F8010C0125E5814FF6FF712A
:102F2000844B9847208225774FF00008D2E67F4CEB
:102F3000238843F004032380002565617E4B636092
:102F400003F8012C0123A3817C4967207C4EB04704
:102F50009DF83C106620B04703232377A846B9E6C6
:102F60000222724B1A77714C1423A361A3685A1C76
:102F7000A2600F9A1A70E3890133E381218A9DF8D8
:102F80003C006C4B984720824FF00008A2E60022DC
:102F9000664B5A610F9AD1B2A1F10803132B00F2CC
:102FA0009480DFE803F0361E7492927492929292AB
:102FB0009292929292929292920A5C4C1423A36102
:102FC0005B4BA3601B2003F8010C0123E3814FF648
:102FD000FF71584B98472082042323774FF0000855
:102FE00078E6584B93E803000290ADF80C10090CFA
:102FF0008DF80E10544B1860BDF80C209A804B4B86
:103000000622DA8105221A7701229A614FF0000820
:1030100060E6464B9A89002A00F0C9844B4C224452
:103020000E925B6805939A4208D91A7803F8012C2E
:10303000059B013305930E9A9A42F6D8202203F895
:10304000012C434D294667203D4EB047374A516811
:10305000013951609389013B9BB29381621C1A44F0
:10306000521A6820B0478046431E059300283FF45B
:1030700031AE6726324C29463046A047DDF8148031
:1030800008F1FF330593B8F1000FF4D122E6274B86
:103090009B896BB9254B1A8822F004021A804FF0E5
:1030A000000883F81C800D216620254B984711E607
:1030B00006221E4B1A77002400940D230222254974
:1030C0006620254DA847A04604E6D2B2174B9B893F
:1030D00083B9202A00F06F84144C6368581C606028
:1030E0001A706620164B9847A3890133A3814FF0CD
:1030F0000008EFE5FF2B00F262840C48008810F016
:10310000010F2BD109484068104C1C44A04202D149
:103110000133064CA381441C044B5C6002706620A2
:10312000074B98474FF00008D4E500BF5C1F002014
:103130007D1F002079100800591E0020B8A9080042
:10314000E13D080038AA08007C1F0020581E00201E
:10315000BCA908003D2B080071400800954A516841
:10316000954A1A4491420FD0934A13440E935A1E23
:10317000914209D88F4912781A700E9A531E0E93F5
:10318000023A48689042F6D98A4C63685A1C6260D9
:103190000F991970C9B26620884DA847A3890133D9
:1031A0009BB2A3816168844A1A44521A6820A847D6
:1031B0008046431E0E9300283FF48CAD804E672559
:1031C0007E4C31462846A047DDF8388008F1FF33B1
:1031D0000E93B8F1000FF4D17CE5764A93895268DA
:1031E0007549521A9B1A5A1E059253B1754E67259E
:1031F000724C31462846A047059B5A1E0592002B6B
:10320000F7D16C4DAA896C4C131901336B60002601
:1032100016550720FFF792FCAA89131901336B603A
:10322000165569496720654DA84721466720A8477C
:10323000664B984766492046664B984704460E9071
:1032400068B9654967205D4B98475A4B4FF00008B5
:1032500083F81C801A8822F004021A803AE55F4B3A
:103260009847014620465E4B984781B2514B1982E0
:1032700005965C4B1B88F3B199421ED00123594A35
:1032800000E02B4632F8334024B15D1CA142F8D156
:10329000059300E00593534C04EBC3035D6875B1DF
:1032A0000E9C20464D4B9847611C01444148A8475D
:1032B0004D4B9847C5E70023EDE70023EBE70023DC
:1032C00005934A4B1B8813B3994222D00123474CE4
:1032D00000E02B4634F8332022B15D1C9142F8D136
:1032E000059300E00593414901EBC3035D6895B187
:1032F0000E9C2046394B9847611C01442D48A84735
:10330000394B9847344967202C4B984799E700235D
:10331000E9E70023E7E7274B1B8813F0020F90D063
:10332000334C82B233492046334B984721466720BD
:10333000224B98472C4B984783E705221D4B1A7761
:103340001C4C1423A361A3685A1CA2600F9A1A7024
:10335000E3890133E381218A9DF83C00274B98479C
:1033600020824FF00008B5E425496720134B9847A9
:10337000104B4FF0000883F81C801A8822F00402DA
:103380001A80A7E40B4B9B69002B3ED003F1FF385A
:10339000084BC3F81880B8F1000F36D1197F052902
:1033A00000F26782DFE811F031002E003E00650276
:1033B0008F009B005C1F0020581E0020E13D08008C
:1033C000BCA90800C0A90800C4A90800BD420800A3
:1033D00084A40800E942080010AA0800F95A08006D
:1033E00045100800F8A30800A542080064AD0800D5
:1033F000FC1F0020CCA90800AD5A08007910080075
:10340000E4A908000022954B1A77944BD3F8148056
:10341000B8F1000F3FF45EAC08F1FF325A614FF093
:10342000000857E48D4CE1898D488E4B984780B257
:1034300020824CF2F57398420CD04CF2FA73984209
:1034400011D0864B1B8813F0020F28D10022834B2A
:103450001A77DAE700230093834B804A834966207A
:10346000834CA047D1E77D4B9B891BB900227B4B46
:103470001A77CAE7794C228842F00402228000229F
:1034800062617C4E334463607B4967207B4DA84773
:10349000A28931466820A84703232377B5E77849F6
:1034A0006720764CA0476D4EF2896D490520FFF7E5
:1034B00045FB744D328A74492846744B9847294617
:1034C0006720A047C2E7724967206C4B9847634B5F
:1034D00000221A771A8822F004021A8095E75F4CBE
:1034E000E1895F485F4B984780B220824CF23A13E3
:1034F000984200F0168134D845F2E233984200F049
:1035000005811ED840F2BB53984200F0258140F25D
:103510007B6398421ED1514A938956490B445268A5
:103520009A4207D25B496720544B98474B4A5368ED
:1035300001335360494B00225A6103221A77FFF787
:10354000C9BB46F60E73984235D04AF64F5398429F
:1035500000F05181414B00225A6103221A77FFF794
:10356000B9BB4CF2BA63984265D01CD84CF2E33335
:10357000984200F095804CF23A439842EAD1374B9A
:103580005A683C4B9A4207D9434967203B4B9847BE
:10359000324A5368013B5360304B00225A61032288
:1035A0001A77FFF797BB4CF2F57398424FD04CF661
:1035B000BA439842CED1294B9B892BB12D4A134453
:1035C000264A52689A4215D0244B5B68591E294AF4
:1035D000914217D3314C224613F8011C0620FFF705
:1035E000ADFA78B11D4B5B68224619780620FFF7CB
:1035F000A5FA38B9194A5368013B53602649672038
:103600001E4B9847254D154B5B682A4619780620B6
:10361000FFF794FA002840F0D180104B5B68591EE8
:10362000144A914280F0E3800C4B00225A6103223D
:103630001A77FFF74FBB16496720104B9847074B87
:103640001A8822F004021A8000221A77DDE6034B62
:1036500000225A6103221A77FFF73CBB5C1F00204F
:103660007C1F00204510080068AA0800393C0800AB
:1036700071400800581E002010AA0800E13D080013
:1036800014AA0800FC1F002024AA0800AD5A080054
:1036900030AA0800C0A90800BCA908006CAA08004C
:1036A0009C4A536801330E939B4992890A44934282
:1036B0000AD298481A7803F8012C0E9B01330E9316
:1036C00082890A449A42F5D8202203F8012C914BB2
:1036D00059680E9A521A6820904B9847431E0E93D1
:1036E00050B18F4E67258D4C31462846A0470E9B22
:1036F0005A1E0E92002BF7D1864B9A89013A9A8175
:1037000000225A6103221A77FFF7E4BA814B1A8824
:1037100082F001021A8000225A6103221A77FFF711
:10372000D9BA7C4B5B687C4A9B1A5A1E0E9253B1E5
:103730007B4E6725794C31462846A0470E9B5A1E82
:103740000E92002BF7D1734B734A5A6000225A61D4
:1037500003221A77FFF7BEBA6E4A93896E490B446B
:1037600052689B1A5A1E0E9253B16E4E67256B4CCF
:1037700031462846A0470E9B5A1E0E92002BF7D1C9
:10378000644B9A8964490A445A6000225A610322B0
:103790001A77FFF79FBA013B6360314667205F4BA2
:1037A000984763682A4619780620FFF7C7F900286A
:1037B0003FF433AF6368BB42EDD82EE7554C564F0C
:1037C000574EEEE76368013B636039466720B047B8
:1037D0006368591E504A9142FFF426AF2A4613F8F7
:1037E000011C0620FFF7AAF90028EBD01CE7494C82
:1037F0004B4F4A4EF2E74C4D464B5B682A461978D0
:103800000620FFF79BF9B8B1424C434F454E1DE0EF
:103810000133636031466720404B984763682A460E
:1038200019780620FFF78AF90028EDD16368A2898C
:103830003A449342ECD3E7E7364C374F394EEDE745
:103840000133636031466720344B984763682A46EA
:1038500019780620FFF772F920B16368A2893A440B
:103860009342EDD32B4B00225A6103221A77FFF7C4
:1038700031BA29202D4B9847C7E5274D0E952A4E82
:10388000062432460E9B19782046FFF757F98046EA
:1038900018B10E9B01330E93F3E70E9B5A1B059252
:1038A0009AB11C4A1C49516092892A4493420CD215
:1038B00018494A68501C4860581C0E901B781370B9
:1038C0000E9B8A892A449A42F3D805996B180E9365
:1038D000104A93895B1A93811446062704E0A38952
:1038E0002B440E9A934223D80E9BA2892A449A42D3
:1038F0007FF6F0A9324619783846FFF71FF90028FD
:10390000EDD10E9B01330E93A2892A449A42F1D83D
:10391000EAE700BF5C1F0020581E0020E13D0800C0
:10392000BCA90800C0A908006CAA0800B1100800D2
:1039300002F10109CDF83890C4F804904B4588BFD6
:103940004B460CD9324619783846FFF7F7F830B1B4
:103950000E9B01330E93A2892A449A42F2D80E9B01
:103960006168591A059189B1A2892A4493420DD2FE
:103970006268511C6160591C0E911B781370059987
:1039800021B10E9BA2892A449A42F1D8A389591ADF
:10399000A181CDF83890A7E70D200B4B98474FF049
:1039A0000008FFF797B94FF00008FFF793B94FF001
:1039B0000008FFF78FB94FF00008FFF78BB94FF001
:1039C0000008FFF787B900BFB110080008B5332021
:1039D000014B984708BD00BF5B4A080038B5054653
:1039E00008460A490A4B984770B10446094B984764
:1039F00001462046084B984745F2E573984203D1AB
:103A00002B8843F002032B8038BD00BF84A408003C
:103A1000555B0800F95A08004510080038B50546FE
:103A200008460A490A4B984770B10446094B984723
:103A300001462046084B984745F2E573984203D16A
:103A40002B8823F002032B8038BD00BF84A408001C
:103A5000555B0800F95A08004510080038B50D46B6
:103A600003496720034CA04729466720A04738BD7B
:103A7000A4AB0800E13D080008B502496720024BED
:103A8000984708BD78AA0800E13D080070B53F4995
:103A900000203F4B984790B104463E4B9847014663
:103AA00020463D4B984747F2273398420CD04EF2C0
:103AB000A91398422CD046F29B63984200D070BD67
:103AC0003320364B984770BD35490020304B98471E
:103AD000C0B1344B9847C4B2314900202C4B9847B1
:103AE00090B1304B9847C5B22D490020284B9847DC
:103AF00060B12C4B9847C3B22A46214666202A4C17
:103B0000A04770BD0024E7E70025EDE70023F3E7B9
:103B1000234900201E4B9847002830D0214B98475E
:103B2000C4B21F4900201A4B9847002829D01D4BCA
:103B30009847C5B21A490020154B984718B3194B3E
:103B4000984786B219496720194B984733462A4649
:103B500021466720144CA0470028B0D1154D2946B6
:103B60006720134CA047144E314668200E4B9847EF
:103B700031466720A04729466720A0479FE70024D9
:103B8000CFE70025D6E70026DCE700BF84A40800C5
:103B9000E9420800F95A0800451008005B4A08008D
:103BA00094AB0800CD580800A11408009CAB080095
:103BB000E13D080010AA0800581C002070B582B032
:103BC00004460D46038843F004030380104E0A4662
:103BD00010493046104B9847314667200F4B9847A5
:103BE00055B90F4967200D4B98470E4B013BFDD14E
:103BF0000D480E4B9847FEE74FF47A7300936B1E07
:103C000022460B4966200B4CA04702B070BD00BF96
:103C1000581C00206CAB0800AD5A0800E13D0800BC
:103C2000B8AA080020A1070000120E4001510800A8
:103C3000BD3B08007140080010B582B004460388FF
:103C400043F0040303800846054B98470023009384
:103C50000346224603496620034CA04702B010BD2C
:103C6000CD580800BD3B0800714008002DE9F04325
:103C70008BB001A94448454B984745496720454CBE
:103C8000A047019A013AD2B2434F413243493846E4
:103C9000434B984739466720A04742496720A047D1
:103CA000029A414B53F822106720A0473F4E3146FD
:103CB0006720A0473E496720A0473E4D039B55F82B
:103CC00023106720A04731466720A0473A49672064
:103CD000A047049B55F823106720A0473146672072
:103CE000A04736496720A047059A354B53F8221064
:103CF0006720A04731466720A0470699192938D088
:103D0000304B002401341A7B12B10C338A42F9D1B2
:103D10002D4967201F4DA847DFF8A8804FEA4409C6
:103D200009EB040308EB830359686720A847274978
:103D30006720A8474C4408EB8408D8F8081067208F
:103D4000A84731466720A84721496720A847079A16
:103D5000204B53F822106720A84731466720A84718
:103D6000089B43B91C4967200A4B98470BB0BDE834
:103D7000F0830024CCE7099A18490748084B984774
:103D800039466720A847EDE740070E40E94808009C
:103D900080AA0800E13D0800581C0020BCAA0800C9
:103DA000AD5A0800CCAA08000806002010AA080096
:103DB000D8AA080028060020E4AA0800F0AA0800F3
:103DC0007C060020B4AB0800FCAA080008AB080081
:103DD00010AB08006806002030AB08001CAB0800E0
:103DE0000FB4F8B50699A1F16403052B00F2DD804C
:103DF000DFE813F00600DB003B005A008700B40048
:103E00006C4B6D4A1A605A6008206C4B98474FF013
:103E100000610C206A4CA0476A490B20A0476A4900
:103E20006A486B4B984738B94FF48072694B1A60F7
:103E3000664C694E694F06E01820694B9847F3E7D6
:103E400006A92046B8472046B04705460028F7D1C6
:103E50005E4C2046634B984701212046624B9847B1
:103E60002846BDE8F84004B07047524B1A68511C10
:103E70001960079911701A685C4B9A4203D3A3F535
:103E800080624C4B1A604B4B1A685B689A4206D0B2
:103E90004FF400714D48544B98470125E0E700214D
:103EA00017204F4B9847F3E700230693079B1946CB
:103EB0001A78FAB13F4C4D4E444D2268501C206098
:103EC000013307930B781370069B01330693236825
:103ED000B34224BF384B2360226863689A420BD0F8
:103EE0004FF400712846404B9847079B19461A78B3
:103EF000002AE2D1069DB3E700211720384B9847EE
:103F0000EEE700230693089B0BB32A4C374E2F4D48
:103F100023685A1C2260079A511C079112781A7064
:103F2000089B013B0893069B013306932368B34229
:103F300024BF214B2360226863689A4209D04FF462
:103F400000712846284B9847089B002BE0D1069D1E
:103F500086E700211720224B9847F0E700230693BD
:103F6000089B03B3224D66242026079B1B781B0960
:103F7000E95C2046FFF734FF079B1B7803F00F0333
:103F8000E95C2046FFF72CFF31462046FFF728FF6B
:103F9000079B01330793089B013B0893069A013264
:103FA0000692002BE1D1069D5AE70C200C4B984756
:103FB000002555E73C200020442000207D4C0800CF
:103FC0007D4A080001000008DCB4080000060E402D
:103FD000A550080000E100E0E7500800EF5008009D
:103FE000B1100800E3500800DB5008004424002012
:103FF00054AA080010B582B01648174B98470446DB
:1040000010F4007F11D0154A53681268934211D002
:104010005A1C12494A6019780E4BD961104B9A42CA
:1040200003D3A3F580620D4B5A6014F0010F07D142
:1040300002B010BD4FF4007106480A4B9847F4E7F0
:10404000044B9B6900220092022207496620074C1C
:10405000A047EDE700060E40E35008003C2000209A
:1040600044240020DF5008003D2B08007140080068
:104070000FB4F0B583B00899642928D01ED96629F9
:104080006BD0672940F0CD80684B9847684A5368E9
:104090001268934200F0AE801D685C6808949E68C8
:1040A0001033644A9342C0F0A280634A604B5A6066
:1040B000624B984731462046A84748E0012940F026
:1040C000B080002508955E4C2F4666269AE0584B36
:1040D000594A1A605A605A4B03F5C8610022DA60E7
:1040E00010338B42FBD1574B02221A665A655A6233
:1040F000C3F88020196F21F0020119675A60162059
:10410000514B9847514C524A00212046514B9847F9
:1041100040F2EE22002120464F4B984740F20D22FC
:10412000002120464D4B9847002120464C4B984794
:104130004C4B4FF48002C3F88020C3F8802100214B
:1041400083F816131A6004222046474B9847002034
:1041500003B0BDE8F04004B07047344B98470C9D65
:1041600045B300230893364BDB68A3B101230893C2
:10417000334A00201C46D16951B101331032204628
:10418000642BF8D100211620384B9847642302E0B5
:1041900070B9642BF6D02A491B01CA180998C85077
:1041A0000A9B53600B9B9360D560244B9847CEE7E6
:1041B0000893EEE71E4B1A68099911601B680A9A6A
:1041C0005A600B9A9A6010331A4A93420BD2184ADB
:1041D0001360174B1A685B689A42E6D100211520DC
:1041E000224B9847E1E7144A114B1A60F1E7104A55
:1041F00053605DE7114B9847A9E7013508951034E6
:10420000642DA4D0E368002BF7D0013BE360002BC2
:10421000F3D1A3686268216800973046FFF728FF52
:10422000EBE70B20114B984791E700BF11510800B5
:104230008425002084250020442400204D510800BE
:104240008C250020000C0E407D4C0800000008402A
:1042500003C00900655008008D5008008550080013
:104260007D50080000E100E095500800B110080002
:1042700008B500210648074B98470120064B984790
:104280000320064B98470120054B984708BD00BF07
:10429000000008409D500800714008003D2B0800B8
:1042A000250D0800034B1B6813B1034A12781A70DE
:1042B000704700BF44130020401300200023024A2F
:1042C0001370024A1360704740130020441300200B
:1042D0000B783BB1984205D011F8013F13B18342EE
:1042E000FAD10346184670472DE9F84300282BD031
:1042F0001D4A10601C4B1D682C78002C30D088465D
:104300001A4E194F41462046B04720B101353D6055
:104310002C78002CF6D1164B1D602C78F4B12E466B
:10432000124FDFF84C9041462046B84728B9013675
:10433000C9F800603478002CF5D10E4B1C700023B6
:1043400033702846BDE8F883094B1D68002DF8D06E
:10435000084B1B782B70044B1D60CBE72E46ECE717
:10436000034B1D602E46E8E748130020D1420800A9
:1043700044130020401300200FB410B504216A201C
:10438000054CA0470346032204496820A0470020AB
:10439000BDE8104004B07047E117080004B70800FA
:1043A0000FB410B505216A20054CA047034603222F
:1043B00004496820A0470020BDE8104004B07047C1
:1043C000E1170800B8B708000FB410B509216A203A
:1043D000054CA0470346032204496820A04700205B
:1043E000BDE8104004B07047E1170800C0B70800EE
:1043F0000FB410B506216A20054CA04703460322DE
:1044000004496820A0470020BDE8104004B0704770
:10441000E1170800CCB708000FB410B50E216A20D0
:10442000054CA0470346032204496820A04700200A
:10443000BDE8104004B07047E1170800A8B70800B5
:104440000FB410B507216A20054CA047034603228C
:1044500004496820A0470020BDE8104004B0704720
:10446000E11708006CB708000FB410B508216A20E6
:10447000054CA0470346032204496820A0470020BA
:10448000BDE8104004B07047E117080074B7080099
:104490000FB410B50A216A20054CA0470346032239
:1044A00004496820A0470020BDE8104004B07047D0
:1044B000E117080080B708000FB410B50C216A207E
:1044C000054CA0470346032204496820A04700206A
:1044D000BDE8104004B07047E11708008CB7080031
:1044E0000FB410B509216A20054CA04703460322EA
:1044F00004496820A0470020BDE8104004B0704780
:10450000E11708009CB708000FB4F0B583B0089914
:10451000A1F16403052B00F29F80DFE803F0034D57
:104520005D729D814E4967204E4B98474E4C01224B
:104530004FF4806120464D4FB8474D4B00935023B8
:104540004FF480620A2120464A4EB0474FF4806102
:104550002046494DA84701224FF400712046B84734
:10456000464B009350234FF400720A212046B04777
:104570004FF400712046A84701224FF48071204675
:10458000B8473F4B009350234FF480720A212046D6
:10459000B0474FF480712046A8474FF48062394BF2
:1045A0001A60394B00221A60384A5A60002003B062
:1045B000BDE8F04004B07047334A1368013313601C
:1045C00052681B01D3581BB16920FFF79DFFEDE72F
:1045D00000222D4B1A60F7E72B4A1168536803EB52
:1045E0000113DA6812B100209047DFE79B68002BC7
:1045F000DCD0254A5360002313606920FFF784FF55
:10460000D4E7214A1168536803EB01135B68002B60
:10461000CCD05360002313606920FFF775FFC5E716
:10462000002302221A4968201A4CA04700230322C3
:1046300019496820A047144A136852681B01D558CD
:104640002846164B984701466A20A0470346022297
:1046500029466820A047A9E71120114B9847A5E7F4
:10466000E8B40800E13D0800000C0E40794908005C
:10467000A54608003D030800FF490800C54608009C
:10468000E546080000E100E0CC2B0020D4B608008D
:10469000F4B40800E11708000CB50800F95A080046
:1046A000B110080010B582B00023009365220349C1
:1046B0006620034CA04702B010BD00BF09450800AA
:1046C0007140080010B582B00023009366220349B0
:1046D0001046034CA04702B010BD00BF09450800BA
:1046E0007140080010B582B000230093672203498F
:1046F0006620034CA04702B010BD00BF094508006A
:10470000714008000FB42DE9F04182B00899A1F181
:104710006403092B7AD8DFE803F005796B747724FA
:104720007965717E3F4967203F4CA0474FF4FA738B
:104730000093002367223D4966203D4DA8473D492F
:104740006720A0473C4DFF242C704FF6FF71204698
:104750003A4EB0476C7001462046B047A880002012
:104760005AE09DF82400344C20704FF6FF71334D11
:10477000A8479DF82830A37001461846A8478046F0
:104780000890A379FE2B02D043F00103A3712A4DB8
:104790002B4CAA782B4920462B4EB0472146672048
:1047A000214FB847A5F804806B782A78274920461E
:1047B000B04721466720B8472A7825492046B047A8
:1047C0000023032223496820234DA8472046234B7A
:1047D0009847234B98470346032221466820A84761
:1047E000002019E0144B987940F00100987113E013
:1047F000114B1878FF3818BF01200DE00E4B987848
:104800000AE00D4B187807E0164805E01320164B18
:104810009847002000E0012002B0BDE8F04104B05C
:10482000704700BFECB80800E13D08003D2B0800D0
:104830007140080000B90800BC060020791008008B
:10484000581C002010B90800AD5A080030B9080003
:1048500058B90800F4B40800E1170800F95A080034
:10486000391C0800BD060020B110080010B5124820
:10487000124B98473E20124B9847124CA0470028F5
:10488000FCD04FF08070104B9847104CA047002888
:10489000FCD00F4B98470F4A0F4B9A620F4CA04722
:1048A0000028FCD010200E4B98470E4B984702482A
:1048B000024B984710BD00BF00D8B8054D0100203D
:1048C000F54B08001D4C08003D4C08002D4C08001D
:1048D0005D4C0800013F0F2000040E406D4C0800A5
:1048E0004D4B08001552080011B3026802F01F0278
:1048F0000A600268C2F342124A600268C2F30322ED
:104900008A6002680022CA600268C2F303420A6138
:104910000268C2F307524A610268C2F302728A61F6
:104920000268D20FCA6132B142680A620020704741
:104930004FF0FF307047002070474264B1F1805F54
:1049400016D00BD849B1B1F1006F05D1036F016FDB
:104950000B4023EA0203036742607047B1F1405FF6
:10496000FBD0B1F1605FF8D0B1F1205FF4D17047B6
:10497000036F13430367EFE7416412F0010F14BFA5
:104980004166016612F00A0F14BF0162416212F023
:10499000020F07D112F0080F18BFC0F88410416150
:1049A00001607047C0F88010F9E710B4019C4164C1
:1049B00044B9016643B1016542B9416301610160D7
:1049C00010BC70474166F5E74165F5E70163F5E71F
:1049D00012F0100F10D0C0F8B01012F0200F14BF5A
:1049E000C0F8D410C0F8D01012F0400F14BFC0F8B7
:1049F000C010C0F8C4107047C0F8B410704701640C
:104A00007047C06C7047806C7047430903F5001312
:104A100003F206735B02DB6B00F01F0023FA00F069
:104A200000F001007047430903F5001303F2067319
:104A30005B0200F01F00012202FA00F018637047C9
:104A4000430903F5001303F206735B0200F01F0035
:104A5000012202FA00F058637047430903F500137E
:104A600003F206735B02996B00F01F020120904075
:104A7000014214BF586318637047000070B582B0DC
:104A80000D46430903F5001303F206735C0201F0BF
:104A9000F043B3F1205F31D016D8B3F1006F1BD0D3
:104AA000B3F1805F16D100F01F0001268640324628
:104AB0004FF080512046224B984715F0010F14BF4C
:104AC00066662666012017E0B3F1405F21D0B3F19E
:104AD000605F1ED000200FE000F01F00012686401E
:104AE00032464FF000612046154B984715F0010FF4
:104AF00014BF66662666012002B070BD00F01F017B
:104B000001262A4606FA01F120460E4B9847304608
:104B1000F2E705F0605200F01F01012605EA0603E6
:104B20000093C5F38003B2F1605F14BF002201223D
:104B300006FA01F12046044CA0473046DCE700BFEE
:104B40003B49080079490800AB490800174A136B34
:104B500023F0700318431063936E13F0080F0AD10B
:104B60004FF4006311498A6E12F0080F03D1013B24
:104B7000F9D1012070470D4A136B23F0030343F072
:104B800002031363936E13F0080F0AD14FF400630E
:104B900006498A6E12F0080F05D1013BF9D10120B8
:104BA0007047002070470020704700BF00040E408F
:104BB000012803D0054A064B1A607047044A9368DF
:104BC00043F0254343F480139360F3E7080000A506
:104BD00010120E40054B5B6913F0800F1DBF044B94
:104BE000986EC0F3C0100020704700BF10120E4036
:104BF00000040E40084A136A23F0030343F45C13D5
:104C000043F00103000280B203431362936E13F07A
:104C1000010FFBD0704700BF00040E40024B986E9E
:104C200000F00100704700BF00040E40024B986E78
:104C300000F48030704700BF00040E40064B1B6A32
:104C400030B923F0807343F45C13034A1362704756
:104C500043F08073F7E700BF00040E404FF00052AE
:104C6000014B9A62704700BF00040E40024B986EE1
:104C700000F00200704700BF00040E401D280ED84F
:104C80001F280ED8094B9A690123834093430AD009
:104C9000012303FA00F0054B186100207047012042
:104CA0007047002070470020704700BF00040E408E
:104CB000F0B48CB007460E4601AC114D0FCD0FC4B9
:104CC0000FCD0FC495E8070084E8070001AA002370
:104CD00052F8040BB6FBF0F0B0FBF7F0B0F5807FB4
:104CE00007D901330B2BF3D14FF6FF700CB0F0BC9A
:104CF00070470A2B94BF40EA03204FF6FF70F5E798
:104D00006CB9080070B506460D460C6844B1896858
:104D100020460C4B984704464FF6FF7398420CD040
:104D2000686840B1A968074B98474FF6FF739842EF
:104D300005D044EA004434600024204670BD044697
:104D4000FBE700BFB14C080070B40A684B6803F081
:104D50000F038C8A23430C8923438C7A43EA442330
:104D60008C7D43EA0443CC7D43EA44430C7E43EA12
:104D7000844300EB4214C4F80032CB68C4F8043218
:104D80000B69C4F80C328B7D3BB18C8B4B8B43EAA7
:104D9000044300EB4214C4F81832856C4FF0011341
:104DA0009340DB431D40CC7F04FA02F68C7F944095
:104DB00044EA06442C438464446C234091F8214027
:104DC00004FA02F591F82040944044EA0544234354
:104DD00043640123934091F822401CB3046A1C43AE
:104DE000046291F82440012C846E0CBF1C439C4348
:104DF000846691F82540012C846E0CBF44EA03437D
:104E000024EA03438366D200C46EFF23934024EA5E
:104E1000030491F8233003FA02F22243C266002011
:104E200070BC7047046A24EA03040462D9E70123D2
:104E300003FA01F141607047012303FA01F1816037
:104E400070470162704730B485688468A54203D01A
:104E500085688468AC42FBD161B1C4F3015000EBBA
:104E60008005C4F3034000EB450014F4800F18BF25
:104E70000C30086042B1C4F3023101EB8101C4F38C
:104E8000032000EB4101116043B1C4F3021202EBB5
:104E9000820204F00F0404EB42041C6030BC704733
:104EA000F0B4446814F0010F05D00C293DD90C3939
:104EB0004FF4800700E000271D4CA4FB0356F608C2
:104EC00006EB8605A3EB450343EA0613A4FB026544
:104ED000ED0843EA053305EB8505A2EB450543EAFA
:104EE00005233B43A4FB0142D20843EA025302EBF1
:104EF0008202A1EB420143EA0141836913F0040FEE
:104F0000FBD0036843F001030360836913F0010FD2
:104F1000FBD00123C3618160036823F001030360B8
:104F2000C06A00F00100F0BC70470027C4E700BF72
:104F3000CDCCCCCCF0B4049EC568C468A54203D0E7
:104F4000C568C468AC42FBD199B1C4F3033000EB2F
:104F50008000C4F3032707EB4007C4F3021000EB03
:104F6000800504F00F0000EB4500642505FB007090
:104F7000086042B1C4F3005081000844C4F3034107
:104F800001EB4001116043B1C4F3017202EB8202F4
:104F9000C4F3036101EB42021A6016B1C4F3425438
:104FA0003460F0BC7047000070B42A4DA5FB034686
:104FB000F608039C640544EA067406EB8606A3EB38
:104FC000460344EA0363A5FB0264E40843EA04538E
:104FD00004EB8404A2EB440243EA02421E4BA3FB0F
:104FE00001439B0942EA03121C4BA3FB01435B09EB
:104FF000A5FB0364E40804EB8404A3EB44031A4315
:10500000A5FB0143DB0803EB8304A1EB440142EA67
:105010000122A5FB0315ED0805EB8505A3EB45056E
:1050200042EA0532836913F0040FFBD0036843F0B2
:1050300002030360836913F0010FFBD00123C361F6
:10504000C260036823F002030360C06A00F002003C
:1050500070BC7047CDCCCCCCD34D62101F85EB51CA
:10506000C161704710B489014318022444504FF0C5
:10507000FF319962196A5A6010BC70478901052393
:105080004350704700EB81114A61704700EB81117A
:10509000CA61704700EB81114A62704700EB8111D1
:1050A000086A704710B4AC2303600B684A68B3FB0E
:1050B000F2F31B095C1E4FF6FE7294420BD803629A
:1050C0008B68436040F20223C0F820315023036014
:1050D000002010BC70470120FBE781607047C16071
:1050E000704740697047406900F0010070474369AC
:1050F00013F0010F1DBF83690B7000200120704762
:10510000014B0360704700BF050000A57047000019
:105110000B4B1B682BB9EFF310833BB10022094BFB
:105120001A70074A136801331360704772B6BFF3F1
:105130005F8F0022044B1A700122024B1A70F0E7B5
:105140004C13002050130020C4060020074B1A689F
:10515000013A1A601B6843B9054B1B782BB1012239
:10516000044B1A70BFF35F8F62B670474C13002078
:1051700050130020C4060020FEE7000008B51C4BB9
:105180001C4A9A4210D01C4B194A9A420CD2013B3D
:105190009B1A23F0030304331344164951F8040BFC
:1051A00042F8040B9A42F9D1144B154A9A420AD29A
:1051B000013B9B1A23F0030304331344002142F8FC
:1051C000041B9342FBD10F4B23F0604222F07F027D
:1051D0000D498A6003F16043B3F5404F03D28B68F9
:1051E00043F000538B60094B9847094B9847FEE703
:1051F000000000204CBC080074100020D82B0020B8
:10520000741000200000080000ED00E0D5580800F0
:10521000655308003D4B1B6B03F00303032B0ED8B3
:10522000DFE803F0021C3838394B5B6913F0800F5C
:1052300014BF4FF400424FF4FA42364B1A60334B1E
:105240001B6B03F07003702B57D0304B1A6B314936
:10525000C2F302120B68D3400B6070472B4B1B6AE2
:1052600013F0807F03D02C4A2A4B1A60E7E72B4AC1
:10527000284B1A60254B1B6A03F07003102B05D0D6
:10528000202BDCD1244A234B1A60D8E7244A214B37
:105290001A60D4E71D4B1B6A13F0807F0CD01E4AA6
:1052A0001C4B1A60194B1B6B03F00303022B16D027
:1052B0001C4A184B1A60C2E7184A164B1A60134B67
:1052C0001B6A03F07003102B05D0202BEAD1124A81
:1052D000104B1A60E6E7124A0E4B1A60E2E70B4ADF
:1052E000916A926A0B48C1F30A41036801FB0333D8
:1052F000D2B2B3FBF2F30360A1E7064A13680A498E
:10530000A1FB03135B081360704700BF00040E404D
:1053100010120E40C8060020001BB70000093D0017
:1053200000127A00001C4E0EABAAAAAA0A4B1B68F8
:1053300053B1094B1B681A180849914208DB104603
:10534000054A106018467047054A034B1A60F0E79B
:105350004FF0FF30704700BF54130020FC3F08207F
:105360000040082000B583B072B6BFF35F8F104EC7
:10537000002434700F48104B9847104B9847104B3F
:10538000984764200F4DA84764200F4B984701238E
:105390003370BFF35F8F62B60094234664220B49DB
:1053A0006620A8476725074C2846A047FCE700BFB2
:1053B000C406002050120E40ED0408006D4808009D
:1053C0000D510800714008003D2B0800290108001C
:1053D00080F0004002E000BF81F0004142001FBFAA
:1053E0005FEA410392EA030F7FEA226C7FEA236CB3
:1053F0006AD04FEA1262D2EB1363C1BFD2184140A8
:1054000048404140B8BF5B42192B88BF704710F03D
:10541000004F40F4000020F07F4018BF404211F0E0
:10542000004F41F4000121F07F4118BF494292EA48
:10543000030F3FD0A2F1010241FA03FC10EB0C0074
:10544000C3F1200301FA03F100F0004302D5494201
:1054500060EB4000B0F5000F13D3B0F1807F06D3AE
:1054600040084FEA310102F10102FE2A51D2B1F1A6
:10547000004F40EBC25008BF20F0010040EA03009B
:105480007047490040EB000010F4000FA2F1010248
:10549000EDD1B0FA80FCACF1080CB2EB0C0200FAD2
:1054A0000CF0AABF00EBC25052421843BCBFD04020
:1054B0001843704792F0000F81F4000106BF80F49A
:1054C00000000132013BB5E74FEA41037FEA226C5D
:1054D00018BF7FEA236C21D092EA030F04D092F028
:1054E000000F08BF0846704790EA010F1CBF00205C
:1054F000704712F07F4F04D1400028BF40F00040B9
:10550000704712F100723CBF00F50000704700F0D8
:10551000004343F0FE4040F4000070477FEA2262FF
:1055200016BF08467FEA23630146420206BF5FEAD0
:10553000412390EA010F40F4800070474FF00003D0
:1055400004E000BF10F0004348BF40425FEA000C97
:1055500008BF704743F0964301464FF000001CE03F
:1055600050EA010208BF70474FF000030AE000BF95
:1055700050EA010208BF704711F0004302D54042D3
:1055800061EB41015FEA010C02BF84460146002045
:1055900043F0B64308BFA3F18053A3F50003BCFA60
:1055A0008CF2083AA3EBC25310DB01FA02FC63440D
:1055B00000FA02FCC2F12002BCF1004F20FA02F214
:1055C00043EB020008BF20F00100704702F1200207
:1055D00001FA02FCC2F1200250EA4C0021FA02F268
:1055E00043EB020008BF20EADC7070474FF0FF0C6D
:1055F0001CEAD0521EBF1CEAD15392EA0C0F93EA68
:105600000C0F6FD01A4480EA010C400218BF5FEA09
:1056100041211ED04FF0006343EA501043EA51117C
:10562000A0FB01310CF00040B1F5000F3EBF490076
:1056300041EAD3715B0040EA010062F17F02FD2A7A
:105640001DD8B3F1004F40EBC25008BF20F001005D
:10565000704790F0000F0CF0004C08BF49024CEA74
:10566000502040EA51207F3AC2BFD2F1FF0340EA06
:10567000C250704740F400004FF00003013A5DDC77
:1056800012F1190FDCBF00F000407047C2F10002B8
:10569000410021FA02F1C2F1200200FA02FC5FEAA5
:1056A000310040F1000053EA4C0308BF20EADC70EF
:1056B000704792F0000F00F0004C02BF400010F461
:1056C000000F013AF9D040EA0C0093F0000F01F00E
:1056D000004C02BF490011F4000F013BF9D041EA30
:1056E0000C018FE70CEAD15392EA0C0F18BF93EA32
:1056F0000C0F0AD030F0004C18BF31F0004CD8D15C
:1057000080EA010000F00040704790F0000F17BFE2
:1057100090F0004F084691F0000F91F0004F14D028
:1057200092EA0C0F01D142020FD193EA0C0F03D180
:105730004B0218BF084608D180EA010000F0004083
:1057400040F0FE4040F40000704740F0FE4040F45E
:10575000400070474FF0FF0C1CEAD0521EBF1CEAFD
:10576000D15392EA0C0F93EA0C0F69D0A2EB03021B
:1057700080EA010C49024FEA402037D04FF08053B5
:1057800043EA111143EA10130CF000408B4238BF7A
:105790005B0042F17D024FF4000C8B4224BF5B1A88
:1057A00040EA0C00B3EB510F24BFA3EB510340EAD6
:1057B0005C00B3EB910F24BFA3EB910340EA9C0084
:1057C000B3EBD10F24BFA3EBD10340EADC001B01F4
:1057D00018BF5FEA1C1CE0D1FD2A3FF650AF8B4298
:1057E00040EBC25008BF20F0010070470CF0004CA5
:1057F0004CEA50207F32C2BFD2F1FF0340EAC250D0
:10580000704740F400004FF00003013A37E792F090
:10581000000F00F0004C02BF400010F4000F013AEE
:10582000F9D040EA0C0093F0000F01F0004C02BFE9
:10583000490011F4000F013BF9D041EA0C0195E752
:105840000CEAD15392EA0C0F08D142027FF47DAFEB
:1058500093EA0C0F7FF470AF084676E793EA0C0FDB
:1058600004D14B023FF44CAF08466EE730F0004CD9
:1058700018BF31F0004CCAD130F000427FF45CAF69
:1058800031F000437FF43CAF5FE700BF42000ED22F
:10589000B2F1FE4F0BD34FF09E03B3EB126209D46B
:1058A0004FEA002343F0004323FA02F070474FF021
:1058B0000000704712F1610F01D1420202D14FF096
:1058C000FF3070474FF00000704700BF0A220021F0
:1058D00000F00EBA70B50F4E0F4D761BB61018BF04
:1058E000002405D0013455F8043B9847A642F9D16D
:1058F0000A4E0B4D06F094F9761BB61018BF002423
:1059000006D0013455F8043B9847A642F9D170BD42
:1059100070BD00BF2CBC08002CBC080034BC0800C3
:105920002CBC0800844641EA000313F0030349D16C
:10593000403A23D30B6803604B6843608B688360F5
:10594000CB68C3600B6903614B6943618B698361F9
:10595000CB69C3610B6A03624B6A43628B6A8362E1
:10596000CB6AC3620B6B03634B6B43638B6B8363C9
:10597000CB6BC36340304031403ADBD230320BD383
:105980000B6803604B6843608B688360CB68C360BF
:1059900010301031103AF3D20C3205D351F8043BD9
:1059A00040F8043B043AF9D2043208D0D2071CBFB5
:1059B00011F8013B00F8013B01D30B8803806046DE
:1059C000704700BF082A13D38B07B1D010F0030330
:1059D000AED0C3F10403D21ADB071CBF11F8013BA0
:1059E00000F8013BA4D331F8023B20F8023B9FE7CB
:1059F000043AD9D3013A11F8013B00F8013BF9D23E
:105A00000B7803704B7843708B78837060467047D7
:105A100070B4860746D0541E002A41D0CAB203464D
:105A200002E014F1FF343BD303F8012B9D07F8D1BA
:105A3000032C2ED9CDB245EA05250F2C45EA0545A4
:105A400019D9264603F11002103E0F2E42F8105CC1
:105A500042F80C5C42F8085C42F8045C02F1100267
:105A6000F2D8A4F1100222F00F0204F00F04103259
:105A7000032C13440DD91E462246043A032A46F845
:105A8000045BFAD8221F22F003020432134404F00C
:105A900003042CB1C9B21C4403F8011B9C42FBD186
:105AA00070BC704714460346C2E700BF0EB40146FF
:105AB000F0B56FF000454FF402774FF6FF769CB0DB
:105AC00021AC54F8042B0B4B02910691186802A9E3
:105AD00023460194ADF8147004950795ADF816604F
