:0200000280007C
:1000000000400820B5520800B1520800B152080063
:10001000B1520800B1520800B152080000000000BF
:10002000000000000000000000000000B1520800C5
:10003000B152080000000000B1520800B15208009F
:10004000B1520800B1520800A5180800B1520800CA
:10005000B1520800B1520800B1520800B152080074
:10006000F9400800B1520800010408001504080016
:10007000B1520800D10F0800B1520800B152080077
:10008000B1520800B1520800B1520800B152080044
:10009000B1520800B152080075430800B15208007F
:1000A000B1520800B1520800B1520800B152080024
:1000B000B1520800B1520800B152080010B5054C09
:1000C000237833B9044B13B10448AFF30080012304
:1000D000237010BD741000200000000054BF080001
:1000E0000C4B43B10C4810B50C49AFF300800C48E1
:1000F000036823B910BD0A48036833B97047094B38
:10010000002BF7D0BDE810401847064B002BF5D068
:10011000184700BF0000000054BF080078100020FE
:1001200054BF0800000000000FB438B504996429DA
:1001300005D066295CD01020304B984758E04FF02E
:10014000405120202E4CA0474FF040512120A04785
:100150004FF040512220A0474FF040512320A047AC
:100160004FF040512420A0470A20264DA8470B20DD
:10017000A847254D29460E20A04729460F20A04715
:1001800029461020A04729461120A04729461820BB
:10019000A04729461920A04729461A20A0472946EA
:1001A0001B20A04729461C20A04729461D20A04708
:1001B00029463620A04729463720A047294638201F
:1001C000A0470323012211496820114CA0470023B6
:1001D000032210496820A04764200F4B98476420F1
:1001E0000E4B984764200E4B984764200D4B984760
:1001F0000020BDE8384004B0704700BF351108004A
:10020000B54B0800B54D08000100002844A40800C3
:10021000D518080054A408009D460800790D080070
:100220007D4808002D1D080038B910B514461A463F
:100230002046034B9847002010BD6FF00700704721
:100240005D5A080068B910B50C4611461A4620469A
:100250000123054CA047002814BF6FF007000020C1
:1002600010BD6FF00700704785050800D8B910B5BC
:10027000ADF5806DADF10403FFA84FF0FF3243F8F8
:10028000042F8342FBD1084601234FF48072694654
:100290000002064CA047002814BF00206FF00700A2
:1002A0000DF5806D10BD6FF00700704785050800E3
:1002B00010B9090A116070476FF0070070470068B5
:1002C000C0F303207047000008B50368090201F479
:1002D000706123F470631943014B984708BD00BF58
:1002E00079000020A1F10E03012B02D84FF0FF305E
:1002F000704710B582B0EFF31083B3FA83F35B0954
:10030000019372B6BFF35F8F00240B4B1C70019CEE
:10031000120222F07F4222F0FF0242F0B442C9B240
:100320001143064B98472CB10122034B1A70BFF3BF
:100330005F8F62B602B010BDC40600207D000020B1
:100340002DE9F041044688460E4B98470546204665
:100350000D4B9847054013D00C4C04F1600603E0A8
:10036000B4420DD010345DB120684045F8D16168C9
:100370002942F5D0E3689847636825EA0305EFE76B
:10038000BDE8F0813B4B08003F4B08009010002077
:10039000F8B5184C2668062E29D84FF0000C644694
:1003A000154F04E00134E4B2A446A64209D3A646A0
:1003B00025017D598D42F5D107EB04156D689542F5
:1003C000F0D10D4D4FEA0E1E05EB0E0445F80E1050
:1003D0006260A3600699E1600136664504BF054985
:1003E0000E6011461A46054B98470020F8BD0120C3
:1003F000F8BD00BF0011002090100020094B08003C
:1004000008B50A210148024B984708BD000C0E4070
:100410004103080008B50B210148024B984708BD6D
:10042000000E0E404103080010B40B01934214D992
:10043000C9004B0803EBC202B2FBF1F2D3085C1E09
:100440004FF6FE718C4201D9012017E0416841F45A
:10045000002141600CE0012010E0590801EBC202CC
:10046000B2FBF3F2D3085C1E4FF6FE718C42F2D859
:10047000120402F4E0221A430262002010BC70470A
:100480000A4BC0F8E4300023436043628362882350
:100490000360242303604FF4807303604FF4002350
:1004A00003604FF400330360704700BF00415355B1
:1004B00070B505460C4616460F4B984700220F4B69
:1004C0001A60A4B13246216828460D4B984702466F
:1004D00078B96368A1680B4321690B43E1680B435A
:1004E00006490B6069680B436B60104670BD0122C2
:1004F000FBE70122F9E700BF810408000411002096
:100500002904080010B50446064B984740B9024636
:10051000636823F00F0343F001036360104610BDCE
:100520000122FBE7B1040800402303607047102359
:100530000360704781607047C160704740697047D1
:100540004FF400434360704730B4B1F5801F0DD3C2
:10055000A1F58014C4F30F24C9B2084D00B10560A1
:1005600002B1148003B1198030BC7047A1F500249A
:10057000C4F30F24C9B2024DF0E700BF000A0E40D9
:1005800000080E402DE9F04F85B08B46924600934F
:1005900002AB0DF10A02014603A8334CA0470398B1
:1005A000324B9847019006210398314B9847BAF196
:1005B000000F50D0DFF8C48008F1FC0513E0BDF84F
:1005C0000A20012103982B4B9847002848D1BB44AF
:1005D000BDF80A300133ADF80A300023ADF8083019
:1005E000BAEB070A37D0BDF80860C6F580775745E3
:1005F00028BF5746BDF80A30039A1F498A420CBFEC
:1006000003F5006303F580531C0232462146404641
:10061000DFF86C90C8473A46594608EB0600C847D1
:10062000F019C6F58072D21B92B201194044C84736
:10063000A8F10403043C53F8042F44F8042FAB4200
:10064000F9D1009B002BBAD0BDF80A2003210398F2
:10065000084B9847B9E701990398054B9847002044
:1006600005B0BDE8F08F00BF49050800BF020800D3
:10067000C9020800E502080000080E400811002029
:100680005D5A08002DE9F04184B00391642800F020
:10069000DD80662840F02781BDF80D709E4C9DF8E6
:1006A0000C303A469D4920469D4DA847214667207B
:1006B0009C4CA0479C496720A0479C4D2946672039
:1006C000A0470E209A4B9847002840F0CD809949CA
:1006D0006720A047984C21466720924EB047974923
:1006E0006720B04729466720B0470F20904B9847B6
:1006F000002840F0BE808F496720B0472146672020
:10070000DFF82082C0478E496720C0478D4E3146B2
:100710006720C0471020864B9847002840F0AE80E5
:1007200084496720C04721466720DFF8F881C04729
:1007300085496720C04731466720C04711207C4B60
:100740009847002840F09F807A496720C04721469B
:100750006720DFF8D081C0477C496720C047314619
:100760006720C0471820724B9847002840F09080BF
:1007700070496720C04721466720DFF8A881C0473D
:1007800073496720C04731466720C0471920684B2E
:100790009847002840F0818066496720C04721467D
:1007A0006720604EB0476B496720B04729466720F5
:1007B000B0471A205E4B9847002873D15D496720E7
:1007C000B04721466720574EB04763496720B0477E
:1007D00029466720B0471B20554B9847002866D113
:1007E00054496720B047214667204E4EB0475B49C9
:1007F0006720B04729466720B0471C204C4B9847DC
:10080000002859D14B496720B04721466720454E03
:10081000B04753496720B04729466720B0471D209D
:10082000434B984700284CD142496720B0472146A6
:1008300067203C4B98479DF80C30013B042B00F29D
:10084000A480DFE803F043535A619B0045496720C9
:10085000344B9847039B1B0223F07F4323F0FF0395
:1008600043F00103039317E73F4967202D4B984757
:1008700030E73D4967202B4B98473FE73A496720CF
:10088000284B98474FE738496720264B98475EE743
:1008900035496720234B98476DE733496720214B43
:1008A00098477CE7304967201E4B984789E72E49D7
:1008B00067201C4B984796E72B496720194B9847B0
:1008C000A3E729496720174B9847B0E72020274B1B
:1008D00098474FF47A730093039B013366222449AF
:1008E0001046244CA04704B0BDE8F0812020224BE4
:1008F000984721201D4B9847EBE721201E4B984736
:1009000022201A4B9847E4E722201B4B98472320CC
:10091000164B9847DDE700BF581C00208CA4080048
:10092000E55B0800E53E08009CA40800A8A40800B8
:10093000434B0800ACA4080064AC0800B4A4080051
:10094000C0A40800C4A40800CCA40800D0A40800D7
:10095000D8A40800DCA40800ECA40800F8A408004F
:1009600008A5080078A40800B0A408005F4B0800A0
:100970008506080075410800794B08002320134BB9
:1009800098472420124B9847A3E720200F4CA047FC
:100990002120A0472220A0472320A0472420A047B1
:1009A00027B1013FBFB2ADF80D7027B909496720E3
:1009B000094B984797E700230093039B1B0A642287
:1009C00006496620064CA047F0E700BF794B0800B7
:1009D0005F4B080018A50800E53E080085060800E2
:1009E0007541080010B542F21663984222D045F2D4
:1009F000DB1398421DD01C4900201C4B984704462D
:100A0000A8B11B4B9847014620461A4B984742F223
:100A10001663984220D012D943F22B13984217D074
:100A20004CF29863984202D16520134B9847134BC0
:100A3000984710BD12496720124B984710BD40F2ED
:100A400034639842F3D1002166200B4B9847EEE7C0
:100A500035200D4B9847EAE709496720094B98472D
:100A600030200A4B9847E2E724A70800ED4308002E
:100A7000315C0800C9100800D5180800A943080017
:100A8000A8A50800E53E08005F4B0800794B080068
:100A900070B590B051490020514B9847002800F0A4
:100AA000888004464F4B9847014620464E4B984756
:100AB00043F22B13984200F0878050D840F2346301
:100AC00098427AD042F21663984272D1474B9847C7
:100AD00042490020424B9847454B9847064600281C
:100AE00067D044496720444CA047444D32464449AE
:100AF0002846444B984729466720A0474FF080512D
:100B00003020414B9847414B03AD93E8070085E8FF
:100B1000070019203E4B98473E4C032120463E4B90
:100B20009847294620463D4B98470C23079364235A
:100B30000A9332230993032510A941F8285D204622
:100B4000374B984729462046364B98470096002356
:100B500042F2166234496620344CA04729E04CF238
:100B60009863984220D04DF62E43984221D11F4BD6
:100B700098471A4900201A4B984718B31C4B9847BE
:100B800004461E4D02462A4928461E4B98472946D0
:100B90006720194B98470023009323466422254978
:100BA0006620224CA04704E06520234CA047642027
:100BB000A0470E4B984710B070BD012166201E4B18
:100BC0009847F6E70124E6E74FF0605135200E4BD9
:100BD00098473520194B9847EBE700BF24A708003A
:100BE000ED430800315C0800C9100800A943080063
:100BF000055A080088A50800E53E0800581C00209A
:100C00009CA50800E55B0800B54B08006CA4080033
:100C1000B54D080000C00840714F08003D4E080067
:100C2000814E0800674F0800E5090800754108007B
:100C300078A5080085060800D5180800794B08003B
:100C400010B582B042490020424B984738B3044661
:100C5000414B984701462046404B98474BF2403362
:100C600098421CD13E4967203E4B98473E4B9B68BB
:100C70003E4A1360023303F00F03092B13DC117893
:100C800063F303011170384BDA68384B5A600093F4
:100C900004234FF480527F216620354CA047354B0A
:100CA000984702B010BD314A13786FF303031370F5
:100CB000C3F30213052B05DC0133117863F306112E
:100CC0001170E0E7294B1A786FF306121A705B78FF
:100CD00003F00F03092B06DC244A0133517863F338
:100CE00003015170CFE7214A53786FF30303537028
:100CF000C3F30213052B05DC0133517863F30611AE
:100D00005170C0E7194B5A786FF306125A709B78EE
:100D100003F00F03092B06DC144A0133917863F3C7
:100D200003019170AFE7114A93786FF30303937057
:100D3000C3F30113022B05DC0133917863F3051132
:100D40009170A0E7094B9A786FF305129A709AE7B1
:100D500024A70800ED430800315C0800C910080012
:100D600050A50800E53E080060120E408C130020DC
:100D70002D1D0800A94308000FB4F0B583B00899F1
:100D8000642916D00ED8012970D0022940F0E680DF
:100D9000764B774A1A605A604FF6FF721A8100202C
:100DA00098823CE066293FD0672940F0D7807048A0
:100DB00035E06E4D0127AF740220FFF7DDFF002400
:100DC0002C820D206B4B98476B4D6C4A6C49284622
:100DD0006C4B98474FF0006112206B4EB0474FF0BC
:100DE00000611320B0474FF000612720B0474FF05B
:100DF000FF312846654B984739462846644B98474B
:100E00004FF40052634B1A602846634B98472846BC
:100E1000624B984762496720624B9847204603B06F
:100E2000BDE8F04004B070470A9D2A465E495F481D
:100E30005F4B9847099C22464D496920594B98477A
:100E40000220FFF799FF3DB1484B1C8303229A759E
:100E50009A7440F6B8321A82454A2244434B1A60CB
:100E6000022145484A4B98470020D8E73F4B1B8A50
:100E7000002B78D0013B9BB23C4A13820BB100207F
:100E8000CDE71446928A3A496920464B9847A38990
:100E9000E28948494548464DA847A37C042B0BD01E
:100EA000072B09D0032B21D00122304B9A7402204A
:100EB000FFF762FF0020B2E72C4BDA899B899A4248
:100EC00007D00122294B9A740220FFF755FF00201A
:100ED000A5E7002400942346012237496620374DB8
:100EE000A8470220FFF748FF204698E71F4A937D56
:100EF000013BDBB2937593B131496720294B984789
:100F00001A4B1B4A5A60198B0A441A6040F6B832D1
:100F10001A82022118481E4B984700207FE7294972
:100F20006720204DA847124C204E032322782649E3
:100F300030461F4FB84731466720A8472378002422
:100F4000009402221C4966201C4DA8470122074B31
:100F50009A740220FFF710FF204660E720201B4B09
:100F6000984700205BE7002059E700BF9C13002052
:100F700008120020B54D08000000094000D8B8054F
:100F800054A6080005050800B54B080039050800FF
:100F90003505080000E100E0290508002F050800DC
:100FA000BCA50800E53E0800D0A50800581C00209C
:100FB000E55B0800E8A508002D1D08007541080044
:100FC00000A6080010A6080038A608003511080081
:100FD00038B5354C2046354B98470546236913F004
:100FE000010F34D010F0010F31D0314B9B7C012B1D
:100FF0000AD0072B0BD02C4B9B6902202D4B984716
:1010000001222B4B9A7422E00722294B9A74284C18
:10101000C82323822368244A92691A706389A381B2
:101020002189618123681878234B98472081E389BF
:101030001B029BB2E381226812F8011B0B43E38180
:10104000A38A0133A38222601C4B9A4216D2164B0C
:101050001B6913F0020F10D015F0020F0DD0144AC7
:1010600053681268934216D05A1C11494A60197885
:101070000D4BD961114B9A4205D238BD0021232076
:101080000F4B9847E3E7022107480E4B9847022091
:10109000084B984738BD022103480A4B9847022065
:1010A000044B9847E9E700BF000009403D050800F0
:1010B0009C130020790D0800FD1008000A13002081
:1010C000351108003905080089B110B441184FF6F0
:1010D000FF72094C10F8013B5340DBB254F8233047
:1010E00083EA12228142F5D1104610BC70474FF6B8
:1010F000FF721046704700BFBC0100204840C0B2DC
:10110000024B53F8200080EA11207047BC010020F8
:10111000074A80EA0103DBB252F8233083EA112147
:1011200081EA1023DBB252F8230080EA11207047D5
:10113000BC0100200FB42DE9F84F6E4C0B9B0A9AAE
:101140006D4920466D4DA847214667206C4B984756
:101150006C486D4B984772B6BFF35F8F00226B4BA4
:101160001A704FF060513320694B98474FF00508D3
:10117000654C684F31E03320674B98476748A0477C
:101180003320674B984748E03320634B98476348C8
:10119000A0473320624B984757E033205E4B984777
:1011A0005E48A04733205E4B984767E033205A4B98
:1011B00098475A48A0473320594B984779E0332045
:1011C000554B98475548A0473320554B98474D48B5
:1011D000A047B8F1010800F0868033204E4B9847B5
:1011E0005048A04733204E4B98474F48A047DDF862
:1011F0002890B9F1090FBED9A7FB0923DB085E00CF
:101200005BB10025DFF830B1DFF830A13320D847DB
:101210005046A0470135B542F8D14348A047A7FB47
:101220000936F60806EB8606B9EB4606ACD0760022
:101230000BD00025DFF800A1DFF800913320D04764
:101240004846A0470135B542F8D12E48A047DDF801
:101250002C90B9F1630FA0D9344BA3FB09235B0990
:101260005E005BB10025DFF8D0B0DFF8D0A03320FE
:10127000D8475046A0470135B542F8D12A48A04783
:10128000A7FB0923DB08A7FB0326F60806EB860667
:10129000B3EB46068AD076000BD00025DFF898B075
:1012A000DFF898A03320D8475046A0470135B54213
:1012B000F8D11D48A047A7FB0936F60806EB8606BD
:1012C000B9EB46063FF47BAF760080D00025DFF80F
:1012D00068A0DFF868903320D0474846A047013522
:1012E000B542F8D173E71248124B9847BDE8F84F62
:1012F00004B07047581C00206CA60800E55B08008D
:10130000E53E0800B7A1680099000020C40600204F
:10131000B54B0800CDCCCCCC5F4B080093F29C00C1
:10132000794B080025E5390193B453001F85EB5133
:1013300000120E4039520800934B080025ED1400AE
:101340000FB438B50499A1F16503042B52D8DFE836
:1013500003F003510C1F3E0029496720294B984791
:101360000020BDE8384004B070473C23264A274996
:101370000020274CA04730B1234B1868012814BF28
:1013800000200120EDE7234967201E4B9847F3E733
:10139000214C012363610025A56167201F4B9847FD
:1013A000E061182304F11402184928461C4CA04798
:1013B00008B10020D5E71B4D1B4B2C460FCB07C4B3
:1013C0002370294667200F4B98470020C9E7692200
:1013D000114B59680020154B984769210020144B88
:1013E000984708B90020BCE712496720054B984789
:1013F0000020B6E75B20104B98470020B1E700BF04
:101400008CA60800E53E0800E413002000F80B005D
:101410002902080098A60800B81300207D4808009B
:1014200045020800581C0020B0A60800B1020800C0
:101430006D020800C0A60800351108000FB4F8B509
:101440000699662914D0672956D0652903D03D2016
:10145000424B984707E0424B424A1A605A60424961
:101460006720424B98472046BDE8F84004B07047DB
:101470003F4967203D4DA847079C3E4E22463E49C6
:1014800030463E4B984731466720A847344B186892
:10149000021D9A6019460126394DA5F5006708E03E
:1014A0001A1D8A605B689C4208BF0E73AA4228BF5F
:1014B0008F608B689842F3D1324967202B4B984755
:1014C000274B1A6814601B6804332D4A93420AD2D2
:1014D000234A1360224B1A685B689A4207D00022A5
:1014E0001F4B1A73BFE71F4A1D4B1A60F2E700211A
:1014F0003E201A4B9847F2E7234967201B4B984739
:10150000174B5A681B689A4221D01A4D12681F491E
:1015100028461A4B984729466720144B9847104B8A
:101520005B6853F8044B0694154A93420CD30D4A5A
:101530000B4B5A60224610490E48104B98472946DB
:1015400067200A4B98478EE7054A5360F2E7104937
:101550006720064B9847002485E700BF3511080037
:101560002014002030140020D8A60800E53E080012
:10157000ECA60800581C002000A70800E55B080046
:10158000301C00200CA7080018A7080028A7080096
:1015900034A708000FB4F0B587B00C99642921D0A6
:1015A00014D8012900F00E81002900F0BB80022927
:1015B00013D10F9B1A1F052A40F24881032B00F01C
:1015C0001B810A2B00F02D810024D1E0672940D037
:1015D000682900F08D8066291AD00E209E4B98470E
:1015E0000024C5E000209D4B98479D4CA047002853
:1015F000FCD09C4B0421C3F88010C3F8801110224A
:1016000083F8022319609848984B98470024AFE06C
:101610000F9B0E9A0D999448954CA04704460C9048
:10162000002840F0A580934B9978DA78043B9B78AA
:1016300003F03F03009301F01F0302F03F0249094A
:101640000220FFF7A7FF8C4B1A7860F382021A7012
:101650008EE00E9C631E0B2B02D94FF0FF3487E007
:101660000D9F864AD55C0F9E31460120FFF792FF01
:101670002844874202D94FF0FF3479E0A6F26C7318
:10168000C72B02D94FF0FF3472E07D4DA5FB063524
:101690006D09642303FB1565632D02D94FF0FF34F8
:1016A00066E03346224639460020FFF773FF00907C
:1016B0003B46224629466C48724CA04704460C9093
:1016C000002855D16B4B9978DA78043B9B7803F06E
:1016D0003F03009301F01F0302F03F02490902207B
:1016E000FFF758FF644B1A7860F382021A703FE0EC
:1016F00002AB009303AB04AA05A95B48624CA04768
:10170000029B013B614A52F82320059B0193049BF5
:10171000013B5F4951F823300093039B5D490D98CD
:101720005D4CA0470E99022928D90F980D9A83186D
:10173000023303EB9003524AA2FB002003EBD013C9
:1017400001EB4102C1EBC2025449A1FB021203EBBF
:101750005203A3EB5013524AA2FB0312991A02EB55
:1017600051029208C2EBC2029B1A01330C930C9CEB
:10177000204607B0BDE8F04004B070470F9A501EF5
:101780000D9B1344043301EB4102C1EBC2024349F8
:10179000A1FB021203EB520303EB9003384AA2FBB6
:1017A000001203EBD213A3EB52133D4AA2FB031228
:1017B000991A02EB51029208C2EBC2029B1A013342
:1017C0000C93D4E70D9B13F0030F07D12C4AA2FB17
:1017D00003125209642101FB12325AB9284CA4FBAE
:1017E0000324E4094FF4C87202FB1434B4FA84F4FD
:1017F0006409BDE70124BBE70E9C182C28D90D9A7B
:10180000012A08D0183C64B252B2A41A002CD4BFEA
:1018100000240124ACE7109C012C94BF0024012477
:10182000A6E70E9C182C15D90D9A012A08D0183C51
:1018300064B252B2A41A002CCCBF0024012497E752
:10184000109C012C8CBF0024012491E701248FE718
:1018500000248DE700248BE735110800E94C0800CF
:101860000D4D080000E100E060120E407B4F0800C3
:10187000D94F08006C120E40301C00205CA70800F5
:101880001F85EB51E15008006D500800BC05002099
:10189000D80500204CA70800E55B0800398EE33826
:1018A0002549922410B582B004210648064B98477A
:1018B00000230093042205496620054CA04702B08E
:1018C00010BD00BF60120E4099510800C92C0800DD
:1018D000754108000FB438B504994B1E692B00F20E
:1018E0001382DFE813F00E015E0168017F019101B0
:1018F0009D01A9011602CB01EE0111021102110294
:10190000110211021102110211021102110211023F
:10191000110211021102110211021102110211022F
:10192000110211021102110211021102110211021F
:10193000110211021102110211021102110211020F
:1019400011021102110211021102110211021102FF
:1019500011021102110211021102110211021102EF
:1019600011021102110211021102110211021102DF
:1019700011021102110211021102110211021102CF
:1019800011021102110211021102110211021102BF
:1019900011021102110211021102110211021102AF
:1019A0001102110211021102110211026A00B900A2
:1019B0000301E300EE00DE0072010920FFF78AFF59
:1019C0004FF040510420A34CA0474FF04051052058
:1019D000A0474FF040510620A0474FF0405107204C
:1019E000A04704209C4CA0470620A0470520A04704
:1019F00007209A4B98479A489A4CA04730210220DA
:101A0000FFF768FF4AF2B700A04730210220FFF736
:101A100061FF43F29350A04730210220FFF75AFFA5
:101A200043F29350A04738210220FFF753FF0821CB
:101A30000220FFF74FFF01210220FFF74BFF062195
:101A40000220FFF747FF0C210220FFF743FF01228E
:101A5000854B1A6000245DE108210220FFF73AFF60
:101A60000A20FFF737FF4FF040510420794CA04780
:101A70004FF040510520A0474FF040510620A047AD
:101A80004FF040510720A0470420734CA047062088
:101A9000A0470520A0470720A0470024724B1C60E8
:101AA00038E1714B1C6804F0010433E1079A069990
:101AB0000720FFF70FFF05990320FFF70BFF002416
:101AC00028E1079A06990720FFF704FF059C217873
:101AD000002900F024810325013405942846FFF7EE
:101AE000F9FE21780029F7D1002413E1059C24B1E7
:101AF00007205A4B984700240CE10720564B984783
:101B000008E10920FFF7E6FE0520534B9847052022
:101B1000FFF7E0FE059C14F0800F4FF0030014BFA8
:101B20004E4B4D4B9847E4B214F0400F4FF002007B
:101B300014BF4A4B484B984714F0200F4FF0010058
:101B400014BF464B444B984714F0100F4FF0000061
:101B500014BF424B404B984714F0080F4FF02B0036
:101B600014BF3E4B3C4B984714F0040F4FF02A0033
:101B700014BF3A4B384B984714F0020F4FF029002E
:101B800014BF364B344B984714F0010F4FF0280028
:101B900014BF324B304B98470620FFF79BFE0024C2
:101BA000B8E006202C4B98479DF814100120FFF751
:101BB00091FE0024AEE00620284B98479DF81410B3
:101BC0000120FFF787FE0024A4E00598C0F114006F
:101BD000264B98474FF07C51254B9847254B98470B
:101BE000044697E040F665501E4CA04704201B4B6E
:101BF000984740F2AE20A0470420174B984740F684
:101C00006550A047002485E040F66550154CA0477C
:101C10000420124B984740F25710A047002479E067
:101C200040F257100F4CA04704200B4B984740F64A
:101C30006550A04700246DE0059B03F003030E4AA6
:101C4000D15C069B194441F080010220FFF742FE5F
:101C500000245FE0B54B0800794B08005F4B08009B
:101C6000DC50340099000020341C00207556080018
:101C700025570800C559080018A808004FF0405122
:101C80000020284CA0474FF040510120A0474FF0C2
:101C900040510220A0474FF040510320A0474FF091
:101CA00040512820A0474FF040512920A0474FF035
:101CB00040512A20A0474FF040512B20A04700243C
:101CC00028E04FF020510020164CA0474FF0205143
:101CD0000120A0474FF020510220A0474FF0205193
:101CE0000320A0474FF020512820A0474FF020515B
:101CF0002920A0474FF020512A20A0474FF0205123
:101D00002B20A047002405E00F20074B9847002414
:101D100000E000242046BDE8384004B070470024AD
:101D2000F8E700BFB54B0800351108000FB42DE9E6
:101D3000F04F83B00C994B1EC82B00F28487DFE86C
:101D400013F0230425078207E4060B07870718070B
:101D50003907AC068207820782078207820782075B
:101D6000820782078207820782078207820782072B
:101D7000820782078207820782078207820782071B
:101D8000820782078207820782078207820782070B
:101D900082078207820782078207820782078207FB
:101DA00082078207820782078207820782078207EB
:101DB00082078207820782078207820782078207DB
:101DC00082078207820782078207820782078207CB
:101DD00082078207820782078207820782078207BB
:101DE00082078207820782078207820782078207AB
:101DF000820782078207820782078207820782079B
:101E00008207820782078207C9008207EC02CE039D
:101E10008703820782078207820782072B028207D5
:101E200017018207A702AB01820782078207820798
:101E300000018207820782078207820782078207E2
:101E40008207820782077A077D0782078207820757
:101E5000820782078207820782078207820782073A
:101E6000820782078207820782078207820782072A
:101E7000820782078207820782078207820782071A
:101E8000820782078207820782078207820782070A
:101E900082078207820782078207820782078207FA
:101EA00082078207820782078207820782078207EA
:101EB00082078207820782078207820782078207DA
:101EC00082078207820782078207820782078207CA
:101ED0008207480165209F4B98479F4C00236375FC
:101EE000A375236001222275E3756277237767204B
:101EF0009A4B9847C0B2207318B9238843F0010366
:101F000023806720964B9847012813D0924B1A885C
:101F100002F03202934C322A14BF0022012292496D
:101F20002046924B984721466720914B98470024C2
:101F300000F08FBE00228F4B99686920874B98472D
:101F4000E4E7854B1B8813F0100F07D1824A1388F2
:101F500023F004031380002400F07BBE8649672031
:101F6000834B98477C4A138823F010031380EDE7D6
:101F70006720824FB8470646002404704FF6FF7171
:101F80002046DFF81082C047734D288164207070AE
:101F90002989C0472881B47029892046C0472881F3
:101FA000F47029892046C04782B22A81000220F0BD
:101FB0007F4323F0FF0343EA1223B3802B8843F0CF
:101FC00004032B800621698222466620B84700F070
:101FD00040BE614CE37D2288624D012B14BF00237B
:101FE0000123C2F3800266492846604EB047294665
:101FF00067205F4B9847238813F0040F3AD1E37DA5
:1020000013B1002400F025BE67205C4FB847064698
:102010007F2030704FF6FF71DFF87881C04725468A
:102020002081642070702189C04720810024B47011
:1020300029892046C0472881F47029892046C04755
:1020400082B22A81030223F07F4323F0FF0343EA95
:102050001223B3800621698222466620B84741F2E6
:10206000883300932346C92246496620464DA84737
:1020700000F0EFBD384BDB7D13B1002400F0E9BD6B
:102080004FF4FA7300930023C9223E4966203E4C68
:10209000A047002400F0DDBD2F4D324EAA7D3B4904
:1020A0003046DFF8C890C84731466720DFF8C08067
:1020B000C0476720DFF8C4A0D04707467F203870AC
:1020C00068734FF6FF71DFF8CCB0D84728817420D1
:1020D00078702989D84728810024BC702989204636
:1020E000D8472881FC7029892046D84782B22A81A6
:1020F000000220F07F4323F0FF0343EA1223BB805A
:102100000621698222466620D047EB7D2A88204F2F
:10211000012B14BF00230123C2F38002394630464D
:10212000C84731466720C0470123EB752A88C2F3B0
:10213000800239463046C84731466720C04740F2E2
:10214000DC53009323466E220E4966200E4DA847AD
:1021500000F07FBD3D140800381C00207D480800B9
:1021600041130800581C00201CA80800E55B08006B
:10217000E53E0800E413002034A80800790D0800AB
:1021800088A808002D1D080075410800B4A80800A3
:10219000D8A80800FD100800A04C2288A04DC2F36A
:1021A0008003C2F300129F4928469F4EB04729463C
:1021B00067209E4B9847238803F014035BB14FF4CC
:1021C0007A73009300236E2299496620994CA047A8
:1021D000002400F03EBD98496720944B984723881F
:1021E00043F0100323806720944B984705460C90DA
:1021F000934FA37D17F82300287060734FF6FF718B
:10220000904EB0472081652068702189B0472081B9
:102210004FF0000885F8028021894046B0472081B0
:1022200085F8038021894046B04782B222810002AE
:1022300020F07F4323F0FF0343EA1223AB8023887F
:1022400043F002032380A37D57F82320A2B923463D
:1022500083F81680714B5B7B93B967207A4B984764
:1022600001466E4B98611A8822F012021A805A7B3E
:102270000920FFF75BFDA2E70133684A9375E9E7A0
:102280000621664B5982012266206C4B984796E7DF
:1022900067206A4B984706460C90604C237D637319
:1022A0007F2030704FF6FF71664DA8472081722065
:1022B00070702189A8472081207DB0702189A847AE
:1022C0002081637FEBB9FE20F0702189A84720812F
:1022D000637B2377514C2289130243EA12230C9A21
:1022E00093800621618200226620544B9847637FC9
:1022F0000133DBB2012B0CD90024484B5C7700F092
:10230000A8BC464C207FF07021894E4B9847208115
:10231000E0E76377002400F09CBC6720474B9847B8
:1023200007460C9006469DF834A080F800A04FF6B2
:10233000FF715046DFF80CB1D847DFF8E080A8F80D
:1023400008000E9CE0B27870B8F80810D847A8F8DA
:102350000800C4F30720B870B8F808103B4B984742
:10236000A8F80800DDF83C901FFA89F425464FEAEA
:10237000092323F07F4323F0FF0343EA142398B299
:10238000A7F80300B8F80810304B9847A8F80800E1
:102390004FEA4900C0B27871B8F80810D847A8F8D9
:1023A000080000230E93CCB19846DFF87090DFF858
:1023B0009CB0109B33F81830180240EA132080B20A
:1023C00006EB4803D880B9F80810D847A9F80800E8
:1023D00008F10108CDF838804545EAD10F4B1A893C
:1023E000130207EB440743EA1223FB80BAF17F0F85
:1023F0000A4A138814BF43F0020323F00203138038
:10240000064B1A886100093189B25982C2F3400231
:1024100066200A4B9847002400F01BBC381C0020A3
:10242000581C002014A90800E55B0800E53E0800E0
:102430002D1D08007541080044A90800790D080009
:102440000C130020FD1008003D14080011110800B5
:102450006720A44FB84705469DF834600670A24C2B
:1024600066734FF6FF713046DFF89482C0472081D3
:1024700001206870A0722189C04720810E9B18023C
:10248000C3F3072300F47F4018436880E08121896B
:10249000DFF8AC82C04720810F9B1802C3F30723EB
:1024A00000F47F401843A88020822189C04782B26F
:1024B0002281000220F07F4323F0FF0343EA12232E
:1024C000EB80238843F00203238008216182B6F168
:1024D0007F0218BF01226620B8470024B9E39DF8A7
:1024E0003460B6B96D20814B984768B18049672048
:1024F000804B98472320804B98477B4A138823F0D2
:10250000040313800024A4E37C496720794B984797
:10251000F3E76720DFF8CC81C04707460670724DAD
:102520006E734FF6FF713046754CA0472881052029
:102530007870A8722989A04728810024BC70FC709B
:10254000EC8129892046DFF8F891C84728813C7141
:102550007C712C8229892046C84782B22A810002D8
:1025600020F07F4323F0FF0343EA1223FB802B88F4
:1025700043F002032B8008216982B6F17F0218BF65
:1025800001226620C04764E36720564B9847804687
:102590000C9081465B4F42785B4938465B4EB047B2
:1025A00039466720534DA8474F4C228802F001025C
:1025B00057493846B04739466720A847238813F063
:1025C000010F00F0BF8053496720A847464B1A8887
:1025D000C2F3400250493846B04739466720A84701
:1025E00098F80130642B23D0722B2AD03E4B1B88E5
:1025F00013F0020F00F0338398F80110052947D03B
:102600003AD964295AD0652967D198F802204349FC
:102610003C483E4B984739466720364B984798F8D8
:10262000032098F802100920FFF780FB002410E334
:102630002D4A138843F0040313807220FFF776FBC2
:10264000D4E798F80220284B1B7D9A4205D0264AF1
:10265000138823F004031380C8E731496720254B12
:102660009847214B5A7D197D2E4840F822100131A0
:10267000197501325A75EAE701292ED123F00403B6
:10268000194A1380284967201A4B98470024E0E232
:1026900023F00403144A1380B9F804304BB92349DA
:1026A0006720144B984722496720124B9847002413
:1026B000CFE2204967200F4B9847F4E798F80220B3
:1026C0001D491048114B984739466720094B9847D8
:1026D0000220044B98470024BBE21220174B984776
:1026E0000024B6E2790D0800381C00207D4808005F
:1026F00050A90800E53E0800934B080060A90800B7
:10270000FD100800581C002074A90800E55B0800B3
:1027100084A9080094A90800A4A9080060AA0800D8
:10272000BCA908000C13002030AA0800DCA908008E
:1027300010AA0800F8A9080048AA080035110800E6
:102740001111080067209A4B984705460C90804667
:1027500004786720974B9847844202D02C787F2CCE
:1027600030D12C786720934B9847DFF8609203466E
:10277000224691494846914EB04739466720904CD1
:10278000A0476A788F494846B04739466720A04736
:102790002B787F2B04D08C4A138843F002031380DC
:1027A0006B78102B39D01CD9652B00F0D0802AD93A
:1027B000722B00F08880742B1CD10122824BDA75B9
:1027C000002446E267207B4B9847034622467A491D
:1027D0007E487A4CA04739466720794B98470024B9
:1027E00037E2032B00F03D82052B00F00381012B23
:1027F00000F04881002400940123042274496620DB
:10280000744DA84725E2642BF4D102226E4B5A8006
:102810000820FFF78BFA00241BE2AB78102B49D17C
:10282000694AD2899A4234D06B4A936913F0040FF3
:10283000FBD0694A136843F003031360936913F0F4
:10284000010FFBD0644A0123D3610C9BD88801029D
:1028500041EA1021D9801889010241EA1021198129
:102860005889010241EA102159819889010241EAFF
:1028700010219981D3F80610584B19600C9BD3F89E
:102880000A10574B1960136823F0030313600024E8
:10289000DFE1B8F8031019444B4A128A13449942F5
:1028A000C2DB002400940223042249496620494DDA
:1028B000A847CEE100240094022304224449662064
:1028C000444DA847C5E1404B1B8813F0040F01D1CC
:1028D0000024BEE1EA78A9786920DFF8D880C047F3
:1028E0003320404B9847384E338823F032033380EF
:1028F00000247480AB7833752C704FF6FF7120463E
:10290000394FB8473081722068703189B8473081BB
:102910006720C047C0B2A8703189B847308181B202
:10292000E878B84782B23281030223F07F4323F074
:10293000FF0343EA1223AB80338823F00403338080
:102940000621718222466620194B984781E127496A
:1029500067201B4B98474FF6FF712878224EB047EF
:10296000194C2081652068702189B047208167203B
:102970001F4B9847C0B2A8702189B04720816C20B6
:102980000C4B9847C0B2E8702189B04782B22281CF
:10299000030223F07F4323F0FF0343EA1223AB80BB
:1029A0000621618200226620014B9847002450E1F5
:1029B000790D08007D48080080AA0800E55B080042
:1029C000E53E0800A4AA0800381C0020581C00207E
:1029D0002D1D08007541080060120E4068120E405F
:1029E0006C120E40794B0800FD100800B4AA0800D4
:1029F0003D14080067209C4B984704460C909DF8B6
:102A000034002070994D68734FF6FF71984EB047AF
:102A1000288105206070A8722989B047288100208C
:102A2000A070E070E8812989924B984728816D2039
:102A3000914B9847E0B12320904B98470023237196
:102A4000012363714FF4807028822989894B98474C
:102A50002881864A11890B0243EA11230C99CB8005
:102A600008215182002266207F4B98470024F0E025
:102A70000020207160717D4C208221897D4B984718
:102A80002081E6E7394667207D4B984701221146B1
:102A90000720FFF74BF90024DBE00D99012907D04F
:102AA00000292DD0052919D04720764B98470EE0F4
:102AB00075496720724B98476C490B8843F00403B3
:102AC0000B8001231A46497B6820FFF72FF9674ADC
:102AD000138823F0120313800024BAE06B496720A7
:102AE000674B9847614A138843F00403138000231F
:102AF00000930E9B672266496620664CA047E6E776
:102B0000654967205E4B9847E1E76720564EB0471E
:102B100004464FF6FF710078554DA847534F388152
:102B2000637881B243F08000A84738819DF8340073
:102B3000A0703989A84782B23A81000220F07F4311
:102B400023F0FF0343EA1223A4F8033000220521F7
:102B50006620B04700247CE050496720484B9847E6
:102B60000821424B5982002266203F4B984700249F
:102B70006FE04B496720424B984708213B4B5982F5
:102B800000226620384B9847002462E045496720C0
:102B90003B4CA047444D0D9A44492846444B984726
:102BA00029466720A047314A138823F01403138075
:102BB00000244EE06620304B98470446002835D16B
:102BC0002A4B5B889BB933203A4B9847274A138896
:102BD00023F032031380344C002237492046344B13
:102BE000984721466720264B9847002431E0332040
:102BF000324B98471D4D2B8843F032032B802A4ED1
:102C000001222F4930462A4B9847314667201C4BFA
:102C100098476B88013B6B804FF4FA730093002355
:102C200008221B4966201B4DA84712E00F4B5B880A
:102C3000002473B9C7E70D4B5C7D0AE00D9A214B68
:102C400053F8224005E021200E4B9847002400E075
:102C50000024204603B0BDE8F04F04B070470024C4
:102C6000F7E70024F5E700BF790D0800381C0020C5
:102C7000FD100800111108007D480800934B080062
:102C8000E53E080035110800C8AA0800E4AA0800BB
:102C90002D1D08007541080008AB080018AB08009E
:102CA00038AB080050AB0800581C00207CAB080073
:102CB000E55B0800794B0800A8AB08005F4B0800F3
:102CC0008CAB08000C1300200FB42DE9F04387B043
:102CD0000E998B1E672B00F2F586DFE813F0770163
:102CE0000D043A01770068006506F306F306F30663
:102CF000F306F306F306F306F306F306F306F3060C
:102D0000F306F306F306F306F306F306F306F306FB
:102D1000F306F306F306F306F306F306F306F306EB
:102D2000F306F306F306F306F306F306F306F306DB
:102D3000F306F306F306F306F306F306F306F306CB
:102D4000F306F306F306F306F306F306F306F306BB
:102D5000F306F306F306F306F306F306F306F306AB
:102D6000F306F306F306F306F306F306F306F3069B
:102D7000F306F306F306F306F306F306F306F3068B
:102D8000F306F306F306F306F306F306F306F3067B
:102D9000F306F306F306F306F306F306F306F3066B
:102DA000F3069E00F306C700E70003011E01109B17
:102DB0001A784AB19DF83C108A4205D0013310932D
:102DC0001A780AB18A42F9D1904649E0DDF840808C
:102DD00008F1FF331093B8F1000F41D0924E6625F1
:102DE000924C0F9B1B781B09F15C2846A0470F9B58
:102DF0001B7803F00F03F15C2846A04720212846EA
:102E0000A0470F9B01330F93DDF8408008F1FF339B
:102E10001093B8F1000FE4D122E085496720834D7B
:102E2000A847844B00249C615C611C7702221A80B5
:102E30006420814B98474FF0605134207F4EB0475B
:102E40004FF060513320B04733207D4B98476420CA
:102E50007C4B98476420A8477B496720A847A04639
:102E6000404607B0BDE8F04304B070470F9B013304
:102E70000F93764A52F823202AB900230F93342067
:102E80006F4B984705E013F0010FF8D03420704BDA
:102E900098470F9B6D4A52F82320009266226D4995
:102EA00010466D4CA0474FF00008D9E734206B4B1B
:102EB000984766206A4B9847804648B100240094A2
:102EC0002346682263496620634DA847A046C7E7AA
:102ED0004FF4FA730093002367225E4966205E4C2C
:102EE000A047BDE734205D4B98475E4BDB7D012B4F
:102EF0000AD0642300930023682256496620564C6A
:102F0000A0474FF00008ABE7002400946622514927
:102F10001046514DA847A046A2E734204F4B984792
:102F2000504BDB7D012B0BD04FF42F73009300230C
:102F3000692248496620484CA0474FF000088FE7B7
:102F400000240094662243491046434DA847A046FA
:102F500086E705AB0FAA0EA94348444CA047354B62
:102F60001B8813F0040F2AD06920334B9847804602
:102F700000283FF475AF0EAD3D4C0F9B55F8042B68
:102F80003C4920463C4FB8470F2300222146682089
:102F9000294EB04704AB009305AB2A460EA9324830
:102FA000364DA8470F9B059A35492046B847002360
:102FB0001A4621466820B0474FF0000850E70F9BA3
:102FC0000E9A30492A482C4CA047CDE7194B1B7F5D
:102FD000062B00F28382DFE813F0070083008600EF
:102FE00098006C026F02BC010F9AD3B2083B182BF9
:102FF0005DD8DFE813F06E056E056E055C005C00C1
:103000006E055C005C005C005C005C005C005C00C9
:103010005C005C005C005C005C005C0049005C00E3
:103020005C005C005C006E05A8AC0800E53E080092
:10303000C4AB08005C1F0020D5180800B54B080081
:10304000794B080095150800D4AB080094AC080033
:103050005F4B0800C92C080075410800934B08001D
:103060007D480800381C002060120E407F4F080089
:10307000FC1F0020F4AB0800E55B08006D50080061
:1030800000AC0800E8AB0800864C1423A361864B13
:10309000A3601B2003F8010C0125E5814FF6FF71A9
:1030A000824B9847208225774FF00008D8E67D4C68
:1030B000238843F004032380002565617C4B636013
:1030C00003F8012C0123A3817A4967207A4EB04787
:1030D0009DF83C106620B04703232377A846BFE63F
:1030E0000222704B1A776F4CA3685A1CA2600F9A89
:1030F0001A70E3890133E381218A9DF83C006B4B10
:10310000984720824FF00008AAE60F9AD1B2A1F1A9
:103110000803132B00F29680DFE803F0371F759445
:103120009475949494949494949494949494940A08
:103130005C4C1423A361002565615B4BA3601B20DD
:1031400003F8010C0123E3814FF6FF71574B9847B9
:10315000208204232377A84682E6584B93E8030095
:103160000290ADF80C10090C8DF80E10544B18603D
:10317000BDF80C209A804B4B0622DA8105221A7783
:1031800001229A614FF000086AE6464B9A89002AAC
:1031900000F0A3844B4C22440E925B6805939A4244
:1031A00008D91A7803F8012C059B013305930E9A70
:1031B0009A42F6D8202203F8012C434D2946672075
:1031C0003D4EB047374A5168013951609389013B00
:1031D0009BB29381621C1A44521A6820B047804601
:1031E000431E059300283FF43BAE6726324C294628
:1031F0003046A047DDF8148008F1FF330593B8F19D
:10320000000FF4D12CE6274B9B896BB9254B1A880C
:1032100022F004021A804FF0000883F81C800D2170
:103220006620254B98471BE61E4B00245C61062256
:103230001A7700940D23022224496620244DA847C2
:10324000A0460DE6D2B2174B9B8983B9202A00F025
:103250004884144C6368581C60601A706620164BD2
:103260009847A3890133A3814FF00008F8E5FF2BAD
:1032700000F23B840B48008810F0010F2AD1094866
:103280004068104C1C44A04202D10133054CA3817C
:10329000441C044B5C6002706620074B98474FF05B
:1032A0000008DDE55C1F00207D1F0020FD100800E8
:1032B000591E00200CAC0800E53E08008CAC08004C
:1032C0007C1F0020581E002010AC0800C92C0800EC
:1032D00075410800924A5168924A1A4491420FD0AF
:1032E000904A13440E935A1E914209D88C49127881
:1032F0001A700E9A531E0E93023A48689042F6D9FD
:10330000874C63685A1C62600F991970C9B26620B5
:10331000854DA847A38901339BB2A3816168814A87
:103320001A44521A6820A8478046431E0E9300286C
:103330003FF496AD7D4E67257B4C31462846A0472D
:10334000DDF8388008F1FF330E93B8F1000FF4D1A7
:1033500086E5734A938952687249521A9B1A5A1E1B
:10336000059253B1724E67256F4C31462846A047EF
:10337000059B5A1E0592002BF7D1694DAA89694C0D
:10338000131901336B60002616550720FFF79CFCCC
:10339000AA89131901336B60165566496720624D7F
:1033A000A84721466720A847634B984763492046B2
:1033B000634B984704460E9068B9624967205A4BA0
:1033C0009847574B4FF0000883F81C801A8822F06A
:1033D00004021A8044E55C4B9847014620465B4B4B
:1033E000984781B24E4B19820596594B1B88F3B111
:1033F00099421ED00123564A00E02B4632F8334052
:1034000024B15D1CA142F8D1059300E00593504C16
:1034100004EBC3035D6875B10E9C20464A4B984788
:10342000611C01443E48A8474A4B9847C5E7002322
:10343000EDE70023EBE700230593474B1B8813B30D
:10344000994222D00123444C00E02B4634F833202B
:1034500022B15D1C9142F8D1059300E005933E49ED
:1034600001EBC3035D6895B10E9C2046364B98472F
:10347000611C01442A48A847364B984731496720C8
:10348000294B984799E70023E9E70023E7E7244B16
:103490001B8813F0020F90D0304C82B23049204686
:1034A000304B9847214667201F4B9847294B984738
:1034B00083E705221A4B1A77194CA3685A1CA2609D
:1034C0000F9A1A70E3890133E381218A9DF83C0049
:1034D000254B984720824FF00008C1E4234967201C
:1034E000114B98470E4B4FF0000883F81C801A8848
:1034F00022F004021A80B3E4094B9B69002B3AD0F6
:10350000013B074A9361B3BB117F052900F2488252
:10351000DFE811F031002E003E0046028D009900D8
:103520005C1F0020581E0020E53E080010AC08007B
:1035300014AC080018AC0800C143080024A7080018
:10354000ED43080064AC0800315C0800C9100800B5
:1035500030A50800A9430800B8AF0800FC1F0020F0
:1035600020AC0800E55B0800FD10080038AC08003E
:1035700000228D4B1A778C4BD3F81480B8F1000FD2
:103580003FF46EAC08F1FF325A614FF0000867E477
:10359000854CE1898548864B984780B220824CF261
:1035A000F57398420CD04CF2FA73984211D07E4BCE
:1035B0001B8813F0020F26D100227B4B1A77DAE723
:1035C000002300937B4B784A7B4966207B4CA047C5
:1035D000D1E7754B9B891BB90022734B1A77CAE759
:1035E000714C228842F004022280754E334463609D
:1035F00074496720744DA847A28931466820A847BE
:1036000003232377B7E7714967206F4CA047664EC5
:10361000F28966490520FFF757FB6D4D328A6D49E7
:1036200028466D4B984729466720A047C4E76B4959
:103630006720654B98475C4B00221A771A8822F066
:1036400004021A8097E7584CE1895848584B98472C
:1036500080B220824CF23A13984200F002812ED8B8
:1036600045F2E233984200F0F4801BD840F2BB539D
:10367000984200F00E8140F27B6398421BD14A4A87
:1036800093894F490B4452689A4207D254496720A4
:103690004D4B9847444A5368013353600322424BD1
:1036A0001A7768E746F60E7398422FD04AF64F53C2
:1036B000984200F03A8103223B4B1A775BE74CF2C9
:1036C000BA6398425FD019D84CF2E333984200F0C5
:1036D0008D804CF23A439842EDD1334B5A68384BC7
:1036E0009A4207D93F496720374B98472E4A53687B
:1036F000013B536003222C4B1A773CE74CF2F573E5
:1037000098424CD04CF6BA439842D4D1264B9B8970
:103710002BB12B4A1344244A52689A4215D0224BAB
:103720005B68591E264A914217D32F4C224613F844
:10373000011C0620FFF7C8FA78B11B4B5B682246D4
:1037400019780620FFF7C0FA38B9174A5368013BC9
:103750005360244967201C4B9847234D124B5B68EC
:103760002A4619780620FFF7AFFA002840F0C080FB
:103770000D4B5B68591E124A914280F0D2800322A1
:10378000094B1A77F7E6154967200F4B9847064B08
:103790001A8822F004021A8000221A77EBE603222C
:1037A000014B1A77E7E600BF5C1F00207C1F00205A
:1037B000C9100800BCAC08003D3D08007541080078
:1037C000581E002064AC0800E53E080068AC080004
:1037D000FC1F002078AC0800E55B080084AC080002
:1037E00014AC080010AC0800C0AC0800944A536840
:1037F00001330E93934992890A4493420AD2904826
:103800001A7803F8012C0E9B01330E9382890A4427
:103810009A42F5D8202203F8012C894B59680E9A58
:10382000521A6820884B9847431E0E9350B1874E1A
:103830006725854C31462846A0470E9B5A1E0E929E
:10384000002BF7D17E4B9A89013A9A8103221A778D
:1038500091E67B4B1A8882F001021A8003221A77C4
:1038600089E6774B5B68774A9B1A5A1E0E9253B1D2
:10387000764E6725744C31462846A0470E9B5A1E4B
:103880000E92002BF7D16E4B6E4A5A6003221A77C4
:1038900071E66B4A93896B490B4452689B1A5A1E16
:1038A0000E9253B16A4E6725674C31462846A047B1
:1038B0000E9B5A1E0E92002BF7D1614B9A896149DB
:1038C0000A445A6003221A7755E6013B6360314689
:1038D00067205D4B984763682A4619780620FFF7F2
:1038E000F3F900283FF444AF6368BB42EDD83FE7EB
:1038F000534C544F554EEEE76368013B63603946C5
:103900006720B0476368591E4E4A9142FFF437AFB3
:103910002A4613F8011C0620FFF7D6F90028EBD041
:103920002DE7474C494F484EF2E74A4D444B5B6800
:103930002A4619780620FFF7C7F9B8B1404C414F25
:10394000434E1DE001336360314667203E4B98478C
:1039500063682A4619780620FFF7B6F90028EDD1EA
:103960006368A2893A449342ECD3E7E7344C354F7D
:10397000374EEDE70133636031466720324B98479D
:1039800063682A4619780620FFF79EF920B163681C
:10399000A2893A449342EDD30322294B1A77EAE5F0
:1039A00029202D4B9847E6E5264D0E95294E0624F5
:1039B00032460E9B19782046FFF786F9804618B1EB
:1039C0000E9B01330E93F3E70E9B5A1B05929AB19F
:1039D0001B4A1C49516092892A4493420CD21849CF
:1039E0004A68501C4860581C0E901B7813700E9B40
:1039F0008A892A449A42F3D805996B180E93104A83
:103A000093895B1A93811446062704E0A3892B440B
:103A10000E9A934222D80E9BA2892A449A427FF69C
:103A20001FAA324619783846FFF74EF90028EDD123
:103A30000E9B01330E93A2892A449A42F1D8EAE7F9
:103A40005C1F0020581E0020E53E080010AC080056
:103A500014AC0800C0AC08003511080002F10109DF
:103A6000CDF83890C4F804904B4588BF4B460CD92C
:103A7000324619783846FFF727F930B10E9B0133EB
:103A80000E93A2892A449A42F2D80E9B6168591A71
:103A9000059189B1A2892A4493420DD26268511CD2
:103AA0006160591C0E911B781370059921B10E9B12
:103AB000A2892A449A42F1D8A389591AA181CDF842
:103AC0003890A8E70D200B4B98474FF00008FFF700
:103AD000C7B94FF00008FFF7C3B94FF00008FFF770
:103AE000BFB94FF00008FFF7BBB94FF00008FFF770
:103AF000B7B900BF3511080038B5054608460A4970
:103B00000A4B984770B10446094B98470146204636
:103B1000084B984745F2E573984203D12B8843F050
:103B200002032B8038BD00BF24A708008D5C08006D
:103B3000315C0800C910080038B5054608460A4936
:103B40000A4B984770B10446094B984701462046F6
:103B5000084B984745F2E573984203D12B8823F030
:103B600002032B8038BD00BF24A708008D5C08002D
:103B7000315C0800C910080038B50D4603496720BC
:103B8000034CA04729466720A04738BDF8AD080080
:103B9000E53E080008B502496720024B984708BD7A
:103BA000CCAC0800E53E080070B53A4900203A4B1D
:103BB0009847002856D00446384B9847014620467F
:103BC000374B984747F22733984204D04EF2A91357
:103BD000984224D070BD334900202F4B9847C0B184
:103BE000314B9847C4B22F4900202B4B984790B1D6
:103BF0002D4B9847C5B22B490020274B984760B101
:103C0000294B9847C3B22A4621466620274CA04735
:103C100070BD0024E7E70025EDE70023F3E7214925
:103C200000201D4B9847F0B11F4B9847C4B21D4967
:103C30000020194B9847C0B11B4B9847C5B2194992
:103C40000020154B984790B1174B984786B21849FA
:103C50006720184B984733462A4621466720134C65
:103C6000A04730B170BD0024E1E70025E7E700265A
:103C7000EDE7114D294667200E4CA0470F4E314607
:103C800068200A4B984731466720A047294667209D
:103C9000A047E7E724A70800ED430800315C0800CF
:103CA000C9100800E8AD0800055A0800951508007D
:103CB000F0AD0800E53E080064AC0800581C002088
:103CC00070B582B004460D46038843F004030380B8
:103CD000104E0A4610493046104B9847314667202F
:103CE0000F4B984755B90F4967200D4B98470E4B1E
:103CF000013BFDD10D480E4B9847FEE74FF47A7318
:103D000000936B1E22460B4966200B4CA04702B065
:103D100070BD00BF581C0020C0AD0800E55B080066
:103D2000E53E0800C4AA080020A1070000120E40CA
:103D300039520800C13C08007541080010B582B036
:103D40000446038843F0040303800846054B984764
:103D5000002300930346224603496620034CA047F4
:103D600002B010BD055A0800C13C080075410800AA
:103D70002DE9F0438BB001A94448454B984745498C
:103D80006720454CA047019A013AD2B2434F4132D5
:103D900043493846434B984739466720A047424934
:103DA0006720A047029A414B53F822106720A04792
:103DB0003F4E31466720A0473E496720A0473E4D11
:103DC000039B55F823106720A04731466720A04782
:103DD0003A496720A047049B55F823106720A04765
:103DE00031466720A04736496720A047059A354BE2
:103DF00053F822106720A04731466720A047069954
:103E0000192938D0304B002401341A7B12B10C33FD
:103E10008A42F9D12D4967201F4DA847DFF8A880B5
:103E20004FEA440909EB040308EB83035968672050
:103E3000A84727496720A8474C4408EB8408D8F8CE
:103E400008106720A84731466720A8472149672006
:103E5000A847079A204B53F822106720A8473146FD
:103E60006720A847089B43B91C4967200A4B98471D
:103E70000BB0BDE8F0830024CCE7099A1849074845
:103E8000084B984739466720A847EDE740070E40A2
:103E9000214A0800D4AC0800E53E0800581C002068
:103EA00010AD0800E55B080020AD08000806002002
:103EB00064AC08002CAD08002806002038AD0800CE
:103EC00044AD08007C06002008AE080050AD080094
:103ED0005CAD080064AD08006806002084AD0800F1
:103EE00070AD08000FB4F8B50699A1F16403052B75
:103EF00000F2DD80DFE813F00600DB003B005A0033
:103F00008700B4006C4B6D4A1A605A6008206C4BF5
:103F100098474FF000610C206A4CA0476A490B207B
:103F2000A0476A496A486B4B984738B94FF480728A
:103F3000694B1A60664C694E694F06E01820694B60
:103F40009847F3E706A92046B8472046B0470546FC
:103F50000028F7D15E4C2046634B9847012120464C
:103F6000624B98472846BDE8F84004B07047524B72
:103F70001A68511C1960079911701A685C4B9A42B3
:103F800003D3A3F580624C4B1A604B4B1A685B68F5
:103F90009A4206D04FF400714D48544B9847012582
:103FA000E0E7002117204F4B9847F3E700230693E3
:103FB000079B19461A78FAB13F4C4D4E444D226882
:103FC000501C2060013307930B781370069B01335C
:103FD00006932368B34224BF384B2360226863688A
:103FE0009A420BD04FF400712846404B9847079BEC
:103FF00019461A78002AE2D1069DB3E7002117205E
:10400000384B9847EEE700230693089B0BB32A4CE6
:10401000374E2F4D23685A1C2260079A511C079176
:1040200012781A70089B013B0893069B0133069394
:104030002368B34224BF214B2360226863689A42FD
:1040400009D04FF400712846284B9847089B002B55
:10405000E0D1069D86E700211720224B9847F0E724
:1040600000230693089B03B3224D66242026079B5A
:104070001B781B09E95C2046FFF734FF079B1B7880
:1040800003F00F03E95C2046FFF72CFF3146204682
:10409000FFF728FF079B01330793089B013B089319
:1040A000069A01320692002BE1D1069D5AE70C20B8
:1040B0000C4B9847002555E73C2000204420002069
:1040C000B54D0800B54B08000100000828B70800EE
:1040D00000060E40DD51080000E100E01F5208001C
:1040E00027520800351108001B520800135208001F
:1040F00044240020A8AC080010B582B01648174B25
:104100009847044610F4007F11D0154A536812688E
:10411000934211D05A1C12494A6019780E4BD9614A
:10412000104B9A4203D3A3F580620D4B5A6014F0F2
:10413000010F07D102B010BD4FF4007106480A4BC1
:104140009847F4E7044B9B6900220092022207493A
:104150006620074CA047EDE700060E401B52080002
:104160003C2000204424002017520800C92C0800DD
:10417000754108000FB4F0B583B00899642928D0C0
:104180001ED966296BD0672940F0CD80684B9847CF
:10419000684A53681268934200F0AE801D685C68FC
:1041A00008949E681033644A9342C0F0A280634A28
:1041B000604B5A60624B984731462046A84748E01A
:1041C000012940F0B080002508955E4C2F466626F8
:1041D0009AE0584B594A1A605A605A4B03F5C86125
:1041E0000022DA6010338B42FBD1574B02221A6651
:1041F0005A655A62C3F88020196F21F002011967CD
:104200005A601620514B9847514C524A0021204683
:10421000514B984740F2EE22002120464F4B9847E1
:1042200040F20D22002120464D4B984700212046A8
:104230004C4B98474C4B4FF48002C3F88020C3F896
:104240008021002183F816131A6004222046474B70
:104250009847002003B0BDE8F04004B07047344BED
:1042600098470C9D45B300230893364BDB68A3B1F8
:1042700001230893334A00201C46D16951B1013310
:1042800010322046642BF8D100211620384B984775
:10429000642302E070B9642BF6D02A491B01CA18C6
:1042A0000998C8500A9B53600B9B9360D560244BC0
:1042B0009847CEE70893EEE71E4B1A6809991160FC
:1042C0001B680A9A5A600B9A9A6010331A4A9342F2
:1042D0000BD2184A1360174B1A685B689A42E6D1F2
:1042E00000211520224B9847E1E7144A114B1A6030
:1042F000F1E7104A53605DE7114B9847A9E7013594
:1043000008951034642DA4D0E368002BF7D0013B4E
:10431000E360002BF3D1A368626821680097304600
:10432000FFF728FFEBE70B20114B984791E700BF01
:1043300049520800842500208425002044240020C0
:10434000855208008C250020000C0E40B54D080059
:104350000000084003C009009D510800C551080035
:10436000BD510800B551080000E100E0CD51080042
:104370003511080008B500210648074B9847012071
:10438000064B98470320064B98470120054B98475A
:1043900008BD00BF00000840D55108007541080065
:1043A000C92C0800790D0800034B1B6813B1034AA0
:1043B00012781A70704700BF441300204013002089
:1043C0000023024A1370024A136070474013002012
:1043D000441300200B783BB1984205D011F8013FFF
:1043E00013B18342FAD10346184670472DE9F843CA
:1043F00000282BD01D4A10601C4B1D682C78002C07
:1044000030D088461A4E194F41462046B04720B159
:1044100001353D602C78002CF6D1164B1D602C78B0
:10442000F4B12E46124FDFF84C9041462046B84773
:1044300028B90136C9F800603478002CF5D10E4B4C
:104440001C70002333702846BDE8F883094B1D68B3
:10445000002DF8D0084B1B782B70044B1D60CBE768
:104460002E46ECE7034B1D602E46E8E7481300207C
:10447000D543080044130020401300200FB410B5AA
:1044800004216A20054CA047034603220449682002
:10449000A0470020BDE8104004B07047D5180800C0
:1044A00020B908000FB410B508496720084B984799
:1044B00005216A20074CA0470346032206496820CD
:1044C000A0470020BDE8104004B0704768BA08005B
:1044D000E53E0800D51808007CBA08000FB410B5F6
:1044E00008496720084B984709216A20074CA047D4
:1044F0000346032206496820A0470020BDE810407B
:1045000004B0704784BA0800E53E0800D5180800DA
:104510009CBA08000FB410B508496720084B9847AB
:1045200006216A20074CA04703460322064968205B
:10453000A0470020BDE8104004B07047A8BA0800AA
:10454000E53E0800D5180800BCBA08000FB410B545
:1045500008496720084B98470E216A20074CA0475E
:104560000346032206496820A0470020BDE810400A
:1045700004B070473CBA0800E53E0800D5180800B2
:1045800058BA08000FB410B508496720084B98477F
:1045900007216A20074CA0470346032206496820EA
:1045A000A0470020BDE8104004B0704788B908005B
:1045B000E53E0800D5180800A0B908000FB410B5F2
:1045C00008496720084B984708216A20074CA047F4
:1045D0000346032206496820A0470020BDE810409A
:1045E00004B07047A8B90800E53E0800D5180800D7
:1045F000C0B908000FB410B508496720084B9847A8
:104600000A216A20074CA047034603220649682076
:10461000A0470020BDE8104004B07047CCB90800A6
:10462000E53E0800D5180800E4B908000FB410B53D
:1046300008496720084B98470C216A20074CA0477F
:104640000346032206496820A0470020BDE8104029
:1046500004B07047F0B90800E53E0800D51808001E
:1046600008BA08000FB410B508496720084B9847EE
:1046700009216A20074CA047034603220649682007
:10468000A0470020BDE8104004B0704718BA0800E9
:10469000E53E0800D518080030BA08000FB4F0B5A0
:1046A00083B00899A1F16403052B00F29580DFE83F
:1046B00003F0034D5D72938149496720494B984748
:1046C000494C01224FF480612046484FB847484B7F
:1046D000009350234FF480620A212046454EB04794
:1046E0004FF480612046444DA84701224FF40071E9
:1046F0002046B847414B009350234FF400720A21E3
:104700002046B0474FF400712046A84701224FF4DD
:1047100080712046B8473A4B009350234FF4807283
:104720000A212046B0474FF480712046A8474FF435
:104730008062344B1A60344B00221A60334A5A604C
:10474000002003B0BDE8F04004B070472E4A136863
:104750000133136052681B01D3581BB16920FFF766
:104760009DFFEDE70022284B1A60F7E7264A116803
:10477000536803EB0113DA6812B100209047DFE7BA
:104780009B68002BDCD0204A536000231360692013
:10479000FFF784FFD4E71C4A1168536803EB011349
:1047A0005B68002BCCD05360002313606920FFF7B7
:1047B00075FFC5E7144A136852681B01D55828468F
:1047C000134B984701466A20124CA0470346022229
:1047D00029466820A047B3E711200F4B9847AFE761
:1047E00034B70800E53E0800000C0E40B14A08004E
:1047F0001D48080091030800374B08003D48080099
:104800005D48080000E100E0CC2B0020F0B8080073
:10481000315C0800D51808003511080010B582B0C9
:1048200000230093652203496620034CA04702B091
:1048300010BD00BF9D4608007541080010B582B04C
:1048400000230093662203491046034CA04702B0A0
:1048500010BD00BF9D4608007541080010B582B02C
:1048600000230093672203496620034CA04702B04F
:1048700010BD00BF9D460800754108000FB4F0B59B
:1048800083B00899A1F16403092B64D8DFE803F031
:104890000563505E6121634A5B684FF4FA730093CD
:1048A0000023672231496620314CA04731496720F7
:1048B000314B9847314DFF242C704FF6FF71204645
:1048C0002F4EB0476C7001462046B047A8800020AC
:1048D00047E09DF82400294C20704FF6FF71284DC9
:1048E000A8479DF82830A37001461846A8470746F8
:1048F0000890A379FE2B02D043F00103A3711F4C53
:10490000204EA27820493046204DA847A7806378E2
:1049100022781F493046A84722781E493046A847CA
:1049200000201EE0154B987940F00100987118E0C6
:10493000124C227818491348144B98472078FF38B6
:1049400018BF01200DE00D4B98780AE00B4B18784A
:1049500007E0124805E01320114B9847002000E0C3
:10496000012003B0BDE8F04004B07047C92C080036
:1049700075410800E0BB0800E53E0800BC060020C9
:10498000FD100800581C0020F0BB0800E55B080083
:1049900010BC080038BC08004CBC0800BD06002054
:1049A0003511080010B51248124B98473E20124BA3
:1049B0009847124CA0470028FCD04FF08070104B55
:1049C0009847104CA0470028FCD00F4B98470F4A3F
:1049D0000F4B9A620F4CA0470028FCD010200E4BC2
:1049E00098470E4B98470248024B984710BD00BFAE
:1049F00000D8B8054D0100202D4D0800554D080088
:104A0000754D0800654D0800954D0800013F0F20C9
:104A100000040E40A54D0800854C08004D530800C9
:104A200011B3026802F01F020A600268C2F3421268
:104A30004A600268C2F303228A6002680022CA60E8
:104A40000268C2F303420A610268C2F307524A6174
:104A50000268C2F302728A610268D20FCA6132B17F
:104A600042680A62002070474FF0FF307047002014
:104A700070474264B1F1805F16D00BD849B1B1F1F3
:104A8000006F05D1036F016F0B4023EA0203036738
:104A900042607047B1F1405FFBD0B1F1605FF8D088
:104AA000B1F1205FF4D17047036F13430367EFE761
:104AB000416412F0010F14BF4166016612F00A0F43
:104AC00014BF0162416212F0020F07D112F0080F09
:104AD00018BFC0F88410416101607047C0F88010B1
:104AE000F9E710B4019C416444B9016643B1016522
:104AF00042B941630161016010BC70474166F5E74E
:104B00004165F5E70163F5E712F0100F10D0C0F82A
:104B1000B01012F0200F14BFC0F8D410C0F8D0109D
:104B200012F0400F14BFC0F8C010C0F8C410704796
:104B3000C0F8B410704701647047C06C7047806C57
:104B40007047430903F5001303F206735B02DB6B46
:104B500000F01F0023FA00F000F001007047430945
:104B600003F5001303F206735B0200F01F0001223D
:104B700002FA00F018637047430903F5001303F2CB
:104B800006735B0200F01F00012202FA00F0586376
:104B90007047430903F5001303F206735B02996B38
:104BA00000F01F0201209040014214BF58631863B7
:104BB0007047000070B582B00D46430903F500133D
:104BC00003F206735C0201F0F043B3F1205F31D0D1
:104BD00016D8B3F1006F1BD0B3F1805F16D100F08F
:104BE0001F000126864032464FF080512046224B5E
:104BF000984715F0010F14BF66662666012017E07E
:104C0000B3F1405F21D0B3F1605F1ED000200FE010
:104C100000F01F000126864032464FF0006120461A
:104C2000154B984715F0010F14BF666626660120E4
:104C300002B070BD00F01F0101262A4606FA01F1FC
:104C400020460E4B98473046F2E705F0605200F0E0
:104C50001F01012605EA06030093C5F38003B2F1A4
:104C6000605F14BF0022012206FA01F12046044CC5
:104C7000A0473046DCE700BF734A0800B14A08008D
:104C8000E34A0800174A136B23F0700318431063BC
:104C9000936E13F0080F0AD14FF4006311498A6E26
:104CA00012F0080F03D1013BF9D1012070470D4AE2
:104CB000136B23F0030343F002031363936E13F0AB
:104CC000080F0AD14FF4006306498A6E12F0080FEC
:104CD00005D1013BF9D10120704700207047002029
:104CE000704700BF00040E40012803D0054A064B60
:104CF0001A607047044A936843F0254343F48013D5
:104D00009360F3E7080000A510120E40054B5B69A5
:104D100013F0800F1DBF044B986EC0F3C01000202D
:104D2000704700BF10120E4000040E40084A136A7C
:104D300023F0030343F45C1343F00103000280B249
:104D400003431362936E13F0010FFBD0704700BF53
:104D500000040E40024B986E00F00100704700BF47
:104D600000040E40024B986E00F48030704700BF84
:104D700000040E40064B1B6A30B923F0807343F4E5
:104D80005C13034A1362704743F08073F7E700BF78
:104D900000040E404FF00052014B9A62704700BF72
:104DA00000040E40024B986E00F00200704700BFF6
:104DB00000040E401D280ED81F280ED8094B9A69F2
:104DC0000123834093430AD0012303FA00F0054BEB
:104DD00018610020704701207047002070470020B4
:104DE000704700BF00040E40F0B48CB007460E467A
:104DF00001AC114D0FCD0FC40FCD0FC495E80700C6
:104E000084E8070001AA002352F8040BB6FBF0F077
:104E1000B0FBF7F0B0F5807F07D901330B2BF3D14E
:104E20004FF6FF700CB0F0BC70470A2B94BF40EAFD
:104E300003204FF6FF70F5E774BC080070B5064616
:104E40000D460C6844B1896820460C4B98470446CF
:104E50004FF6FF7398420CD0686840B1A968074BC1
:104E600098474FF6FF73984205D044EA00443460F7
:104E70000024204670BD0446FBE700BFE94D080052
:104E800070B40A684B6803F00F038C8A23430C89C3
:104E900023438C7A43EA44238C7D43EA0443CC7D4C
:104EA00043EA44430C7E43EA844300EB4214C4F8D3
:104EB0000032CB68C4F804320B69C4F80C328B7D25
:104EC0003BB18C8B4B8B43EA044300EB4214C4F898
:104ED0001832856C4FF001139340DB431D40CC7FAB
:104EE00004FA02F68C7F944044EA06442C4384641E
:104EF000446C234091F8214004FA02F591F82040D7
:104F0000944044EA0544234343640123934091F8C9
:104F100022401CB3046A1C43046291F82440012C13
:104F2000846E0CBF1C439C43846691F82540012C81
:104F3000846E0CBF44EA034324EA03438366D20031
:104F4000C46EFF23934024EA030491F8233003FA4C
:104F500002F22243C266002070BC7047046A24EA51
:104F600003040462D9E7012303FA01F141607047A9
:104F7000012303FA01F1816070470162704730B488
:104F800085688468A54203D085688468AC42FBD1FB
:104F900061B1C4F3015000EB8005C4F3034000EBA2
:104FA000450014F4800F18BF0C30086042B1C4F300
:104FB000023101EB8101C4F3032000EB41011160D8
:104FC00043B1C4F3021202EB820204F00F0404EBBB
:104FD00042041C6030BC7047F0B4446814F0010F08
:104FE00005D00C293DD90C394FF4800700E000278B
:104FF0001D4CA4FB0356F60806EB8605A3EB450300
:1050000043EA0613A4FB0265ED0843EA053305EB0A
:105010008505A2EB450543EA05233B43A4FB01427A
:10502000D20843EA025302EB8202A1EB420143EAB7
:105030000141836913F0040FFBD0036843F00103BF
:105040000360836913F0010FFBD00123C36181600A
:10505000036823F001030360C06A00F00100F0BCA4
:1050600070470027C4E700BFCDCCCCCCF0B4049E81
:10507000C568C468A54203D0C568C468AC42FBD10A
:1050800099B1C4F3033000EB8000C4F3032707EBAE
:105090004007C4F3021000EB800504F00F0000EBA2
:1050A0004500642505FB0070086042B1C4F3005060
:1050B00081000844C4F3034101EB4001116043B196
:1050C000C4F3017202EB8202C4F3036101EB4202FA
:1050D0001A6016B1C4F342543460F0BC704700004B
:1050E00070B42A4DA5FB0346F608039C640544EA08
:1050F000067406EB8606A3EB460344EA0363A5FBAE
:105100000264E40843EA045304EB8404A2EB44027F
:1051100043EA02421E4BA3FB01439B0942EA0312EE
:105120001C4BA3FB01435B09A5FB0364E40804EBF0
:105130008404A3EB44031A43A5FB0143DB0803EB00
:105140008304A1EB440142EA0122A5FB0315ED080B
:1051500005EB8505A3EB450542EA0532836913F0AB
:10516000040FFBD0036843F002030360836913F06C
:10517000010FFBD00123C361C260036823F0020367
:105180000360C06A00F0020070BC7047CDCCCCCC8C
:10519000D34D62101F85EB51C161704710B4890176
:1051A0004318022444504FF0FF319962196A5A6043
:1051B00010BC7047890105234350704700EB8111F3
:1051C0004A61704700EB8111CA61704700EB8111A1
:1051D0004A62704700EB8111086A704710B4AC2333
:1051E00003600B684A68B3FBF2F31B095C1E4FF6C1
:1051F000FE7294420BD803628B68436040F2022334
:10520000C0F8203150230360002010BC70470120FB
:10521000FBE781607047C160704740697047406933
:1052200000F001007047436913F0010F1DBF83694F
:105230000B70002001207047014B0360704700BFD6
:10524000050000A5704700000B4B1B682BB9EFF35E
:1052500010833BB10022094B1A70074A13680133CF
:105260001360704772B6BFF35F8F0022044B1A7051
:105270000122024B1A70F0E74C130020501300205B
:10528000C4060020074B1A68013A1A601B6843B92C
:10529000054B1B782BB10122044B1A70BFF35F8FB3
:1052A00062B670474C13002050130020C406002043
:1052B000FEE7000008B51C4B1C4A9A4210D01C4B5C
:1052C000194A9A420CD2013B9B1A23F00303043380
:1052D0001344164951F8040B42F8040B9A42F9D1D1
:1052E000144B154A9A420AD2013B9B1A23F003033E
:1052F00004331344002142F8041B9342FBD10F4BAB
:1053000023F0604222F07F020D498A6003F160437E
:10531000B3F5404F03D28B6843F000538B60094BC9
:105320009847094B9847FEE70000002054BF08004B
:1053300074100020D82B00207410002000000800FA
:1053400000ED00E00D5A08009D5408003D4B1B6B1A
:1053500003F00303032B0ED8DFE803F0021C3838F8
:10536000394B5B6913F0800F14BF4FF400424FF4C8
:10537000FA42364B1A60334B1B6B03F07003702BF1
:1053800057D0304B1A6B3149C2F302120B68D3402D
:105390000B6070472B4B1B6A13F0807F03D02C4AA5
:1053A0002A4B1A60E7E72B4A284B1A60254B1B6AE9
:1053B00003F07003102B05D0202BDCD1244A234BA3
:1053C0001A60D8E7244A214B1A60D4E71D4B1B6AA8
:1053D00013F0807F0CD01E4A1C4B1A60194B1B6BBC
:1053E00003F00303022B16D01C4A184B1A60C2E7C5
:1053F000184A164B1A60134B1B6A03F07003102BEC
:1054000005D0202BEAD1124A104B1A60E6E7124A67
:105410000E4B1A60E2E70B4A916A926A0B48C1F39D
:105420000A41036801FB0333D2B2B3FBF2F303601A
:10543000A1E7064A13680A49A1FB03135B0813603E
:10544000704700BF00040E4010120E40C806002036
:10545000001BB70000093D0000127A00001C4E0E30
:10546000ABAAAAAA0A4B1B6853B1094B1B681A18AE
:105470000849914208DB1046054A106018467047FB
:10548000054A034B1A60F0E74FF0FF30704700BF4A
:1054900054130020FC3F08200040082000B583B0D2
:1054A00072B6BFF35F8F104E002434700F48104B5C
:1054B0009847104B9847104B984764200F4DA847CA
:1054C00064200F4B984701233370BFF35F8F62B6A0
:1054D0000094234664220B496620A8476725074CA1
:1054E0002846A047FCE700BFC406002050120E402B
:1054F00041050800A549080045520800754108000B
:10550000C92C08002901080080F0004002E000BF1B
:1055100081F0004142001FBF5FEA410392EA030F9E
:105520007FEA226C7FEA236C6AD04FEA1262D2EBE8
:105530001363C1BFD218414048404140B8BF5B42ED
:10554000192B88BF704710F0004F40F4000020F086
:105550007F4018BF404211F0004F41F4000121F09C
:105560007F4118BF494292EA030F3FD0A2F10102E6
:1055700041FA03FC10EB0C00C3F1200301FA03F124
:1055800000F0004302D5494260EB4000B0F5000F47
:1055900013D3B0F1807F06D340084FEA310102F106
:1055A0000102FE2A51D2B1F1004F40EBC25008BFB8
:1055B00020F0010040EA03007047490040EB000082
:1055C00010F4000FA2F10102EDD1B0FA80FCACF1B1
:1055D000080CB2EB0C0200FA0CF0AABF00EBC250B0
:1055E00052421843BCBFD0401843704792F0000F9E
:1055F00081F4000106BF80F400000132013BB5E7F1
:105600004FEA41037FEA226C18BF7FEA236C21D066
:1056100092EA030F04D092F0000F08BF08467047CB
:1056200090EA010F1CBF0020704712F07F4F04D199
:10563000400028BF40F00040704712F100723CBFAC
:1056400000F50000704700F0004343F0FE4040F4D6
:10565000000070477FEA226216BF08467FEA236394
:105660000146420206BF5FEA412390EA010F40F47F
:10567000800070474FF0000304E000BF10F00043CB
:1056800048BF40425FEA000C08BF704743F09643B2
:1056900001464FF000001CE050EA010208BF7047CD
:1056A0004FF000030AE000BF50EA010208BF704754
:1056B00011F0004302D5404261EB41015FEA010C69
:1056C00002BF84460146002043F0B64308BFA3F161
:1056D0008053A3F50003BCFA8CF2083AA3EBC25343
:1056E00010DB01FA02FC634400FA02FCC2F1200262
:1056F000BCF1004F20FA02F243EB020008BF20F099
:105700000100704702F1200201FA02FCC2F12002FE
:1057100050EA4C0021FA02F243EB020008BF20EAF3
:10572000DC7070474FF0FF0C1CEAD0521EBF1CEA21
:10573000D15392EA0C0F93EA0C0F6FD01A4480EA0F
:10574000010C400218BF5FEA41211ED04FF00063F8
:1057500043EA501043EA5111A0FB01310CF0004024
:10576000B1F5000F3EBF490041EAD3715B0040EA4A
:10577000010062F17F02FD2A1DD8B3F1004F40EB1A
:10578000C25008BF20F00100704790F0000F0CF0ED
:10579000004C08BF49024CEA502040EA51207F3AB1
:1057A000C2BFD2F1FF0340EAC250704740F400008C
:1057B0004FF00003013A5DDC12F1190FDCBF00F07D
:1057C00000407047C2F10002410021FA02F1C2F12B
:1057D000200200FA02FC5FEA310040F1000053EAC7
:1057E0004C0308BF20EADC70704792F0000F00F015
:1057F000004C02BF400010F4000F013AF9D040EA1B
:105800000C0093F0000F01F0004C02BF490011F4AE
:10581000000F013BF9D041EA0C018FE70CEAD153AC
:1058200092EA0C0F18BF93EA0C0F0AD030F0004C2C
:1058300018BF31F0004CD8D180EA010000F00040E0
:10584000704790F0000F17BF90F0004F084691F09E
:10585000000F91F0004F14D092EA0C0F01D14202D8
:105860000FD193EA0C0F03D14B0218BF084608D1A1
:1058700080EA010000F0004040F0FE4040F40000EB
:10588000704740F0FE4040F4400070474FF0FF0C7E
:105890001CEAD0521EBF1CEAD15392EA0C0F93EAC5
:1058A0000C0F69D0A2EB030280EA010C49024FEA17
:1058B000402037D04FF0805343EA111143EA1013D0
:1058C0000CF000408B4238BF5B0042F17D024FF488
:1058D000000C8B4224BF5B1A40EA0C00B3EB510F63
:1058E00024BFA3EB510340EA5C00B3EB910F24BF4C
:1058F000A3EB910340EA9C00B3EBD10F24BFA3EBD1
:10590000D10340EADC001B0118BF5FEA1C1CE0D198
:10591000FD2A3FF650AF8B4240EBC25008BF20F04B
:10592000010070470CF0004C4CEA50207F32C2BF9F
:10593000D2F1FF0340EAC250704740F400004FF03C
:105940000003013A37E792F0000F00F0004C02BF6D
:10595000400010F4000F013AF9D040EA0C0093F037
:10596000000F01F0004C02BF490011F4000F013B91
:10597000F9D041EA0C0195E70CEAD15392EA0C0FF9
:1059800008D142027FF47DAF93EA0C0F7FF470AF31
:10599000084676E793EA0C0F04D14B023FF44CAF74
:1059A00008466EE730F0004C18BF31F0004CCAD109
:1059B00030F000427FF45CAF31F000437FF43CAF45
:1059C0005FE700BF42000ED2B2F1FE4F0BD34FF0A3
:1059D0009E03B3EB126209D44FEA002343F0004365
:1059E00023FA02F070474FF00000704712F1610F88
:1059F00001D1420202D14FF0FF3070474FF000005A
:105A0000704700BF0A22002100F00EBA70B50F4E99
:105A10000F4D761BB61018BF002405D0013455F881
:105A2000043B9847A642F9D10A4E0B4D06F07CFA8A
:105A3000761BB61018BF002406D0013455F8043B7D
:105A40009847A642F9D170BD70BD00BF34BF0800B1
:105A500034BF08003CBF080034BF0800844641EA58
:105A6000000313F0030349D1403A23D30B680360CA
:105A70004B6843608B688360CB68C3600B690361CC
:105A80004B6943618B698361CB69C3610B6A0362B4
:105A90004B6A43628B6A8362CB6AC3620B6B03639C
:105AA0004B6B43638B6B8363CB6BC3634030403181
:105AB000403ADBD230320BD30B6803604B68436053
:105AC0008B688360CB68C36010301031103AF3D21A
:105AD0000C3205D351F8043B40F8043B043AF9D2A8
