S00F0000537461727455702E7372656342
S21408000000400820B90F0800B50F0800B50F080013
S214080010B50F0800B50F0800B50F0800000000006F
S214080020000000000000000000000000B50F0800F7
S214080030B50F080000000000B50F0800B50F08004F
S214080040B50F0800B50F0800A51C0800B50F080076
S214080050B50F0800B50F0800B50F0800B50F080063
S2140800609D340800B50F0800C9060800DD0608001C
S214080070B50F0800B50F0800B50F0800B50F080043
S214080080B50F0800B50F0800B50F0800B50F080033
S214080090B50F0800B50F080019370800B50F080097
S2140800A0B50F0800B50F0800B50F0800B50F080013
S2140800B0B50F0800B50F0800B50F080010B5054CB9
S2140800C0237833B9044B13B10448AFF300800123F7
S2140800D0237010BDD40F002000000000549A0800BA
S2140800E00C4B43B10C4810B50C49AFF300800C48D4
S2140800F0036823B910BD0A48036833B97047094B2B
S214080100002BF7D0BDE810401847064B002BF5D05B
S214080110184700BF00000000549A0800D80F0020B7
S214080120549A0800000000000FB438B504996429F2
S21408013007D01020274B98470020BDE8384004B069
S21408014070474FF040512020234CA0474FF04051B5
S2140801502120A0474FF040512220A0474FF04051A1
S2140801602320A0474FF040512420A0470A201B4DCB
S214080170A8470B20A8471A4D29460E20A04729460F
S2140801800F20A04729461020A04729461120A0473F
S21408019029461820A04729461920A04729461A208C
S2140801A0A04729461B20A04729461C20A0472946C9
S2140801B01D20A0470B4967200B4B984701230222B6
S2140801C00A4967200A4CA0470423032209496720E6
S2140801D0A047B1E7B5170800AD080800AD0A080043
S2140801E001000028B8870800DD320800F8870800F4
S2140801F0D51C08000C88080011B3026802F01F021C
S2140802000A600268C2F342124A600268C2F3032216
S2140802108A6002680022CA600268C2F303420A6162
S2140802200268C2F307524A610268C2F302728A6120
S2140802300268D20FCA6132B142680A62002070476B
S2140802404FF0FF3070470020704700000FB410B51D
S21408025008496720084B98470D216920074CA04796
S2140802600346032206496720A0470020BDE8104041
S21408027004B07047FC880800DD320800D51C08006A
S214080280188908000FB410B508496720084B984726
S21408029011216920074CA047034603220649672018
S2140802A0A0470020BDE8104004B070472889080021
S2140802B0DD320800D51C0800448908000FB410B5C4
S2140802C008496720084B984711216920074CA04722
S2140802D00346032206496720A0470020BDE81040D1
S2140802E004B0704758890800DD320800D51C08009D
S2140802F0748908000FB410B508496720084B98475A
S2140803000C216920074CA0470346032206496720AC
S214080310A0470020BDE8104004B07047FC880800DD
S214080320DD320800D51C0800D08808000FB410B5C8
S21408033008496720084B98470C216920074CA047B6
S2140803400346032206496720A0470020BDE8104060
S21408035004B07047FC880800DD320800D51C080089
S214080360E08808000FB410B508496720084B98477E
S2140803700B216920074CA04703460322064967203D
S214080380A0470020BDE8104004B07047FC8808006D
S214080390DD320800D51C0800F08808000FB42DE9E7
S2140803A0F04182B00899A1F16403072B00F2AF80F0
S2140803B0DFE803F0045D6D82AD91AD5756496720BE
S2140803C0DFF88881C047554C01224FF480612046EB
S2140803D0534FB847534B009350234FF480620A217B
S2140803E02046514EB0474FF4806120464F4DA847EF
S2140803F001224FF400712046B8474D4B0093502316
S2140804004FF400720A212046B0474FF40071204688
S214080410A84701224FF480712046B847454B009301
S21408042050234FF480720A212046B0474FF480715B
S2140804302046A8474FF480623F4B1A603F4D404C19
S2140804400FCC28606960AA60EB6020682861237971
S2140804502B7529466720C0473A4B00221A603A4A4D
S2140804605A60002002B0BDE8F04104B07047354A33
S21408047013680133136052681B01D3581BB16920F7
S214080480FFF78CFFEDE700222E4B1A60F7E72D4AA0
S2140804901168536803EB0113DA6812B1002090471D
S2140804A0DFE79B68002BDCD0264A536000231360E6
S2140804B06920FFF773FFD4E7224A1168536803EBF5
S2140804C001135B68002BCCD05360002313606920AF
S2140804D0FFF764FFC5E71B4C236862681B01D15809
S2140804E067201A4B9847236862681B01D558284628
S2140804F0174B984701466920164CA0470346022228
S21408050029466720A0470220134B9847A9E71120E1
S214080510124B9847A5E700BF1C880800000C0E4041
S214080520AB070800610508005906080031080800EE
S21408053099050800D105080000E100E0A412002093
S21408054028880800B010002080880800DD320800DF
S214080550BD3E0800D51C08007D2E0800B51708000B
S21408056010B582B000230093652207496620074C21
S214080570A047074B9847012801D002B010BD0220BB
S214080580044B9847F9E700BF9D0308001935080093
S214080590712E08007D2E080010B582B00023009347
S2140805A0662207491046074CA047074B984701287C
S2140805B001D002B010BD0220044B9847F9E700BFEF
S2140805C09D03080019350800712E08007D2E0800C6
S2140805D010B582B000230093672207496620074CAF
S2140805E0A047074B9847012801D002B010BD02204B
S2140805F0044B9847F9E700BF9D0308001935080023
S214080600712E08007D2E08002DE9F0410446884624
S2140806100E4B9847054620460D4B9847054013D085
S2140806200C4C04F1600603E0B4420DD010345DB102
S21408063020684045F8D161682942F5D0E3689847B4
S214080640636825EA0305EFE7BDE8F081350808008A
S21408065039080800F00F0020F8B5184C2668062E52
S21408066029D84FF0000C6446154F04E00134E4B274
S214080670A446A64209D3A64625017D598D42F5D142
S21408068007EB04156D689542F0D10D4D4FEA0E1E26
S21408069005EB0E0445F80E106260A3600699E1604B
S2140806A00136664504BF05490E6011461A46054BD5
S2140806B098470020F8BD0120F8BD00BF6010002054
S2140806C0F00F00200308080008B50A210148024B6D
S2140806D0984708BD000C0E400906080008B50B210F
S2140806E00148024B984708BD000E0E400906080050
S2140806F010B51248124B98473E20124B9847124C9A
S214080700A0470028FCD04FF08070104B9847104C3C
S214080710A0470028FCD00F4B98470F4A0F4B9A6209
S2140807200F4CA0470028FCD010200E4B98470E4BC5
S21408073098470248024B984710BD00BF00D8B80536
S214080740B5000020250A08004D0A08006D0A0800B2
S2140807505D0A08008D0A0800013F0F2000040E40BD
S2140807609D0A08007D090800511008004264B1F18E
S214080770805F16D00BD849B1B1F1006F05D1036F71
S214080780016F0B4023EA0203036742607047B1F12A
S214080790405FFBD0B1F1605FF8D0B1F1205FF4D1D3
S2140807A07047036F13430367EFE7416412F0010FC6
S2140807B014BF4166016612F00A0F14BF0162416257
S2140807C012F0020F07D112F0080F18BFC0F88410F5
S2140807D0416101607047C0F88010F9E710B4019CC9
S2140807E0416444B9016643B1016542B94163016198
S2140807F0016010BC70474166F5E74165F5E701639F
S214080800F5E712F0100F10D0C0F8B01012F0200F55
S21408081014BFC0F8D410C0F8D01012F0400F14BFA0
S214080820C0F8C010C0F8C4107047C0F8B4107047BD
S21408083001647047C06C7047806C7047430903F5C5
S214080840001303F206735B02DB6B00F01F0023FA4B
S21408085000F000F001007047430903F5001303F2A7
S21408086006735B0200F01F00012202FA00F018630C
S2140808707047430903F5001303F206735B0200F0A2
S2140808801F00012202FA00F058637047430903F577
S214080890001303F206735B02996B00F01F02012037
S2140808A09040014214BF58631863704770B582B011
S2140808B00D46430903F5001303F206735C0201F0C4
S2140808C0F043B3F1205F31D016D8B3F1006F1BD0D8
S2140808D0B3F1805F16D100F01F000126864032462D
S2140808E04FF080512046224B984715F0010F14BF51
S2140808F066662666012017E0B3F1405F21D0B3F1A3
S214080900605F1ED000200FE000F01F000126864022
S21408091032464FF000612046154B984715F0010FF8
S21408092014BF66662666012002B070BD00F01F017F
S21408093001262A4606FA01F120460E4B984730460D
S214080940F2E705F0605200F01F01012605EA0603EB
S2140809500093C5F38003B2F1605F14BF0022012242
S21408096006FA01F12046044CA0473046DCE700BFF3
S2140809706D070800AB070800DD070800174A136B69
S21408098023F0700318431063936E13F0080F0AD110
S2140809904FF4006311498A6E12F0080F03D1013B29
S2140809A0F9D1012070470D4A136B23F0030343F077
S2140809B002031363936E13F0080F0AD14FF4006313
S2140809C006498A6E12F0080F05D1013BF9D10120BD
S2140809D07047002070470020704700BF00040E4094
S2140809E0012803D0054A064B1A607047044A9368E4
S2140809F043F0254343F480139360F3E7080000A50B
S214080A0010120E40054B5B6913F0800F1DBF044B98
S214080A10986EC0F3C0100020704700BF10120E403A
S214080A2000040E40084A136A23F0030343F45C13D9
S214080A3043F00103000280B203431362936E13F07F
S214080A40010FFBD0704700BF00040E40024B986EA3
S214080A5000F00100704700BF00040E40024B986E7D
S214080A6000F48030704700BF00040E40064B1B6A37
S214080A7030B923F0807343F45C13034A136270475B
S214080A8043F08073F7E700BF00040E404FF00052B3
S214080A90014B9A62704700BF00040E40024B986EE6
S214080AA000F00200704700BF00040E401D280ED854
S214080AB01F280ED8094B9A690123834093430AD00E
S214080AC0012303FA00F0054B186100207047012047
S214080AD07047002070470020704700BF00040E4093
S214080AE0704700000B4B1B682BB9EFF310833BB124
S214080AF00022094B1A70074A1368013313607047BF
S214080B0072B6BFF35F8F0022044B1A700122024BA5
S214080B101A70F0E7641000206810002024010020F6
S214080B20074B1A68013A1A601B6843B9054B1B78CD
S214080B302BB10122044B1A70BFF35F8F62B6704761
S214080B40641000206810002024010020F0B48CB047
S214080B5007460E4601AC114D0FCD0FC40FCD0FC47E
S214080B6095E8070084E8070001AA002352F8040B5A
S214080B70B6FBF0F0B0FBF7F0B0F5807F07D901338D
S214080B800B2BF3D14FF6FF700CB0F0BC70470A2B56
S214080B9094BF40EA03204FF6FF70F5E7248A080062
S214080BA070B506460D460C6844B1896820460C4B5D
S214080BB0984704464FF6FF7398420CD0686840B1D1
S214080BC0A968074B98474FF6FF73984205D044EA42
S214080BD0004434600024204670BD0446FBE700BF8E
S214080BE04D0B080070B40A684B6803F00F038C8A34
S214080BF023430C8923438C7A43EA44238C7D43EAB7
S214080C000443CC7D43EA44430C7E43EA844300EB2A
S214080C104214C4F80032CB68C4F804320B69C4F82E
S214080C200C328B7D3BB18C8B4B8B43EA044300EB39
S214080C304214C4F81832856C4FF001139340DB4316
S214080C401D40CC7F04FA02F68C7F944044EA0644A2
S214080C502C438464446C234091F8214004FA02F53E
S214080C6091F82040944044EA054423434364012312
S214080C70934091F822401CB3046A1C43046291F81E
S214080C802440012C846E0CBF1C439C43846691F858
S214080C902540012C846E0CBF44EA034324EA034330
S214080CA08366D200C46EFF23934024EA030491F8B7
S214080CB0233003FA02F22243C266002070BC704753
S214080CC0046A24EA03040462D9E7012303FA01F15B
S214080CD041607047012303FA01F181607047000004
S214080CE0014B0360704700BF050000A5016270470E
S214080CF030B485688468A54203D085688468AC42A9
S214080D00FBD161B1C4F3015000EB8005C4F3034086
S214080D1000EB450014F4800F18BF0C30086042B191
S214080D20C4F3023101EB8101C4F3032000EB410157
S214080D30116043B1C4F3021202EB820204F00F04FE
S214080D4004EB42041C6030BC70470000F0B44468F2
S214080D5014F0010F05D00C293DD90C394FF4800743
S214080D6000E000271D4CA4FB0356F60806EB860594
S214080D70A3EB450343EA0613A4FB0265ED0843EA22
S214080D80053305EB8505A2EB450543EA05233B43FA
S214080D90A4FB0142D20843EA025302EB8202A1EB0B
S214080DA0420143EA0141836913F0040FFBD003684C
S214080DB043F001030360836913F0010FFBD001239E
S214080DC0C3618160036823F001030360C06A00F012
S214080DD00100F0BC70470027C4E700BFCDCCCCCCE0
S214080DE0F0B4049EC568C468A54203D0C568C46844
S214080DF0AC42FBD199B1C4F3033000EB8000C4F3D6
S214080E00032707EB4007C4F3021000EB800504F045
S214080E100F0000EB4500642505FB0070086042B132
S214080E20C4F3005081000844C4F3034101EB4001B9
S214080E30116043B1C4F3017202EB8202C4F303618A
S214080E4001EB42021A6016B1C4F342543460F0BC97
S214080E507047000070B42A4DA5FB0346F608039CAD
S214080E60640544EA067406EB8606A3EB460344EAE2
S214080E700363A5FB0264E40843EA045304EB840412
S214080E80A2EB440243EA02421E4BA3FB01439B0922
S214080E9042EA03121C4BA3FB01435B09A5FB036450
S214080EA0E40804EB8404A3EB44031A43A5FB0143BC
S214080EB0DB0803EB8304A1EB440142EA0122A5FB0D
S214080EC00315ED0805EB8505A3EB450542EA053253
S214080ED0836913F0040FFBD0036843F00203036032
S214080EE0836913F0010FFBD00123C361C260036856
S214080EF023F002030360C06A00F0020070BC70476B
S214080F00CDCCCCCCD34D62101F85EB51C161704758
S214080F1010B489014318022444504FF0FF319962F7
S214080F20196A5A6010BC70478901052343507047F8
S214080F3000EB81114A61704700EB8111CA61704766
S214080F4000EB81114A62704700EB8111086A70470E
S214080F5010B4AC2303600B684A68B3FBF2F31B09B2
S214080F605C1E4FF6FE7294420BD803628B68436091
S214080F7040F20223C0F8203150230360002010BC42
S214080F8070470120FBE781607047C1607047406981
S214080F907047406900F001007047436913F0010F7D
S214080FA01DBF83690B700020012070474FF4004373
S214080FB043607047FEE7000008B51C4B1C4A9A427F
S214080FC010D01C4B194A9A420CD2013B9B1A23F0AC
S214080FD0030304331344164951F8040B42F8040B70
S214080FE09A42F9D1144B154A9A420AD2013B9B1AE7
S214080FF023F0030304331344002142F8041B9342EE
S214081000FBD10F4B23F0604222F07F020D498A6025
S21408101003F16043B3F5404F03D28B6843F00053A7
S2140810208B60094B9847094B9847FEE7000000205D
S214081030549A0800D40F002038180020D40F002037
S2140810400000080000ED00E0853D0800153808009F
S2140810503D4B1B6B03F00303032B0ED8DFE803F0AE
S214081060021C3838394B5B6913F0800F14BF4FF4F5
S21408107000424FF4FA42364B1A60334B1B6B03F0B0
S2140810807003702B57D0304B1A6B3149C2F30212DB
S2140810900B68D3400B6070472B4B1B6A13F0807F9E
S2140810A003D02C4A2A4B1A60E7E72B4A284B1A60CB
S2140810B0254B1B6A03F07003102B05D0202BDCD1C0
S2140810C0244A234B1A60D8E7244A214B1A60D4E7EF
S2140810D01D4B1B6A13F0807F0CD01E4A1C4B1A60EF
S2140810E0194B1B6B03F00303022B16D01C4A184B34
S2140810F01A60C2E7184A164B1A60134B1B6A03F0AD
S2140811007003102B05D0202BEAD1124A104B1A6018
S214081110E6E7124A0E4B1A60E2E70B4A916A926AB1
S2140811200B48C1F30A41036801FB0333D2B2B3FB91
S214081130F2F30360A1E7064A13680A49A1FB031302
S2140811405B081360704700BF00040E4010120E4084
S21408115028010020001BB70000093D0000127A0095
S214081160001C4E0EABAAAAAA0A4B1B6853B1094B21
S2140811701B681A180849914208DB1046054A106091
S21408118018467047054A034B1A60F0E74FF0FF30E1
S214081190704700BF6C100020FC3F08200040082065
S2140811A02DE9F04184B00391642800F0DC806628BD
S2140811B040F023819DF80D709C4C9DF80C303A4603
S2140811C09B4920469B4DA847214667209A4CA04736
S2140811D09A496720A0479A4D29466720A0470E20BF
S2140811E0984B9847002840F0C98097496720A04741
S2140811F0964C21466720904EB04795496720B047E1
S21408120029466720B0470F208E4B9847002840F0A5
S214081210BA808D496720B04721466720DFF81882D4
S214081220C0478C496720C0478B4E31466720C04769
S2140812301020844B9847002840F0AA8082496720EF
S214081240C04721466720DFF8F081C04783496720FA
S214081250C04731466720C04711207A4B9847002878
S21408126040F09B8078496720C04721466720DFF812
S214081270C881C0477A496720C04731466720C047BB
S2140812801820704B9847002840F08C806E496720DD
S214081290C04721466720DFF8A081C047714967200C
S2140812A0C04731466720C0471920664B9847002834
S2140812B07DD165496720C047214667205E4EB04706
S2140812C069496720B04729466720B0471A205D4B12
S2140812D09847002870D15C496720B04721466720A8
S2140812E0554EB04761496720B04729466720B04742
S2140812F01B20544B9847002863D153496720B047B2
S214081300214667204C4EB04759496720B0472946C2
S2140813106720B0471C204B4B9847002856D14A49AF
S2140813206720B04721466720434EB047514967209B
S214081330B04729466720B0471D20424B98470028EB
S21408134049D141496720B047214667203A4B98471C
S2140813509DF80C30013B042B00F2A180DFE803F077
S2140813604050575E980044496720334B9847039B84
S2140813701B029BB243F0010303931BE73F49672018
S2140813802D4B984734E73D4967202B4B984743E752
S2140813903A496720284B984753E738496720264B31
S2140813A0984762E735496720234B984771E73349E2
S2140813B06720214B98477FE7304967201E4B9847A0
S2140813C08CE72E4967201C4B984799E72B496720DE
S2140813D0194B9847A6E729496720174B9847B3E75C
S2140813E02020274B98474FF47A730093039B0133CA
S2140813F0662224491046244CA04704B0BDE8F08174
S2140814002020224B984721201D4B9847EBE72120A8
S2140814101E4B984722201A4B9847E4E722201B4B7E
S21408142098472320164B9847DDE700BFA4120020F4
S214081430708A0800713E0800DD320800808A0800BD
S2140814408C8A08003D080800908A0800CC8C0800A2
S214081450988A0800A48A0800A88A0800B08A0800A3
S214081460B48A0800BC8A0800C08A0800D08A080027
S214081470DC8A0800EC8A08005C8A0800948A08005F
S21408148059080800A1110800193508007308080053
S2140814902320134B98472420124B9847A3E7202075
S2140814A00F4CA0472120A0472220A0472320A04772
S2140814B02420A04727B1013FFFB28DF80D7027B949
S2140814C009496720094B984797E700230093039B31
S2140814D01B0A642206496620064CA047F0E700BFB0
S2140814E07308080059080800FC8A0800DD3208005E
S2140814F0A11108001935080010B542F21663984283
S2140815001ED01C4900201C4B98470446A8B11B4B0C
S2140815109847014620461A4B984742F21663984267
S21408152020D012D943F22B13984217D04CF2986366
S214081530984202D16520134B9847134B984710BD25
S21408154012496720124B984710BD40F23463984200
S214081550F3D1002166200B4B9847EEE735200D4B5C
S2140815609847EAE709496720094B984730200A4B0D
S2140815709847E2E7708B080085370800BD3E0800EC
S2140815806D170800D51C0800413708005C8B08005A
S214081590DD320800590808007308080070B590B0D6
S2140815A057490020574B9847002800F09480044677
S2140815B0554B984701462046544B984743F22B1301
S2140815C0984200F0938051D840F23463984200F075
S2140815D0868042F2166398427DD14D4B984748491B
S2140815E00020484B98474B4B98470646002872D031
S2140815F049496720494CA047494D3246494928463B
S214081600494B984729466720A0474FF0805130201D
S214081610464B9847464B03AD93E8070085E8070016
S2140816201920444B9847444C03212046434B98477F
S21408163029462046424B98470C23079364230A936F
S21408164032230993032510A941F8285D20463D4B0F
S2140816509847294620463C4B98470096002342F276
S21408166016623A4966203A4CA04734E04CF2986332
S214081670984221D04DF62E4398422CD1244B9847B9
S2140816801F4900201F4B984700282DD0214B98470C
S2140816900446234D02462F492846234B9847294699
S2140816A067201E4B984700230093234664222A4946
S2140816B06620274CA0470EE06520284CA0476420EB
S2140816C0A0470123022226496720A04704230322B5
S2140816D024496720A0470E4B984710B070BD0121DB
S2140816E066201E4B9847F6E70124DCE74FF060516A
S2140816F035200E4B984735201B4B9847EBE700BF25
S214081700708B080085370800BD3E08006D17080076
S214081710413708007D3D08003C8B0800DD32080094
S214081720A4120020508B0800713E0800AD0808007F
S214081730508A0800AD0A080000C00840D50C08000A
S214081740A10B0800E50B0800CB0C0800F9140800EC
S214081750193508002C8B0800A1110800D51C0800B4
S214081760F88708000C8808007308080089B110B4C8
S21408177041184FF6FF72094C10F8013B5340DBB294
S21408178054F8233083EA12228142F5D1104610BC61
S21408179070474FF6FF721046704700BF2C010020B6
S2140817A04840C0B2024B53F8200080EA1120704728
S2140817B02C0100200FB42DE9F84F72B6BFF35F8FE7
S2140817C00022654B1A704FF060513320634B9847E0
S2140817D04FF00508624C634F31E03320624B984760
S2140817E06248A0473320624B984748E033205E4B58
S2140817F098475E48A04733205D4B984757E033200C
S214081800594B98475948A0473320594B984767E0A3
S2140818103320554B98475548A0473320544B984794
S21408182079E03320504B98475048A0473320504B18
S21408183098475048A047B8F1010800F08680332042
S214081840494B98474C48A0473320494B98474B4844
S214081850A047DDF82890B9F1090FBED9A7FB0923E0
S214081860DB085E005BB10025DFF820B1DFF820A1B9
S2140818703320D8475046A0470135B542F8D13F48EF
S214081880A047A7FB0936F60806EB8606B9EB460618
S214081890ACD076000BD00025DFF8F0A0DFF8F0908B
S2140818A03320D0474846A0470135B542F8D13148DD
S2140818B0A047DDF82C90B9F1630FA0D9304BA3FBF5
S2140818C009235B095E005BB10025DFF8C0B0DFF8CE
S2140818D0C0A03320D8475046A0470135B542F8D1B6
S2140818E02648A047A7FB0923DB08A7FB0326F6081C
S2140818F006EB8606B3EB46068AD076000BD00025A4
S214081900DFF888B0DFF888A03320D8475046A047CD
S2140819100135B542F8D11948A047A7FB0936F6089D
S21408192006EB8606B9EB46063FF47BAF760080D01A
S2140819300025DFF858A0DFF858903320D0474846EF
S214081940A0470135B542F8D173E70E480E4B9847C5
S214081950BDE8F84F04B0704724010020AD08080021
S21408196001000020CDCCCCCC5908080093F29C008E
S21408197073080800B7A1680025E5390193B4530039
S2140819801F85EB5100120E40E10C08008D08080078
S21408199025ED14000FB4F0B587B00C99642921D052
S2140819A014D8012900F00E81002900F0BB80022916
S2140819B013D10F9B1A1F052A40F24881032B00F00B
S2140819C01B810A2B00F02D810024D1E0672940D026
S2140819D0682900F08D8066291AD00E209E4B9847FD
S2140819E00024C5E000209D4B98479D4CA047002842
S2140819F0FCD09C4B0421C3F88010C3F88011102239
S214081A0083F8022319609848984B98470024AFE05B
S214081A100F9B0E9A0D999448954CA04704460C9037
S214081A20002840F0A580934B9978DA78043B9B7899
S214081A3003F03F03009301F01F0302F03F02490939
S214081A400220FFF7A7FF8C4B1A7860F382021A7001
S214081A508EE00E9C631E0B2B02D94FF0FF3487E0F6
S214081A600D9F864AD55C0F9E31460120FFF792FFF0
S214081A702844874202D94FF0FF3479E0A6F26C7307
S214081A80C72B02D94FF0FF3472E07D4DA5FB063513
S214081A906D09642303FB1565632D02D94FF0FF34E7
S214081AA066E03346224639460020FFF773FF00906B
S214081AB03B46224629466C48724CA04704460C9082
S214081AC0002855D16B4B9978DA78043B9B7803F05D
S214081AD03F03009301F01F0302F03F02490902206A
S214081AE0FFF758FF644B1A7860F382021A703FE0DB
S214081AF002AB009303AB04AA05A95B48624CA04757
S214081B00029B013B614A52F82320059B0193049BE4
S214081B10013B5F4951F823300093039B5D490D98BC
S214081B205D4CA0470E99022928D90F980D9A83185C
S214081B30023303EB9003524AA2FB002003EBD013B8
S214081B4001EB4102C1EBC2025449A1FB021203EBAE
S214081B505203A3EB5013524AA2FB0312991A02EB44
S214081B6051029208C2EBC2029B1A01330C930C9CDA
S214081B70204607B0BDE8F04004B070470F9A501EE4
S214081B800D9B1344043301EB4102C1EBC2024349E7
S214081B90A1FB021203EB520303EB9003384AA2FBA5
S214081BA0001203EBD213A3EB52133D4AA2FB031217
S214081BB0991A02EB51029208C2EBC2029B1A013331
S214081BC00C93D4E70D9B13F0030F07D12C4AA2FB06
S214081BD003125209642101FB12325AB9284CA4FB9D
S214081BE00324E4094FF4C87202FB1434B4FA84F4EC
S214081BF06409BDE70124BBE70E9C182C28D90D9A6A
S214081C00012A08D0183C64B252B2A41A002CD4BFD9
S214081C1000240124ACE7109C012C94BF0024012466
S214081C20A6E70E9C182C15D90D9A012A08D0183C40
S214081C3064B252B2A41A002CCCBF0024012497E741
S214081C40109C012C8CBF0024012491E701248FE707
S214081C5000248DE700248BE7B5170800E109080083
S214081C60050A080000E100E060120E40ED0C0800CE
S214081C704D0D08006C120E40B8100020848B08002A
S214081C801F85EB51550E0800E10D08002C050020B5
S214081C9048050020748B0800713E0800398EE3382A
S214081CA02549922410B582B004210648064B984769
S214081CB000230093042205496620054CA04702B07D
S214081CC010BD00BF60120E400D0F08003521080039
S214081CD0193508000FB4F8B506994B1E682B00F2A4
S214081CE01782DFE813F0110161016B01820194018C
S214081CF0A001AC011A02CF01F20115021502150265
S214081D00150215021502150215021502150215020E
S214081D1015021502150215021502150215021502FE
S214081D2015021502150215021502150215021502EE
S214081D3015021502150215021502150215021502DE
S214081D4015021502150215021502150215021502CE
S214081D5015021502150215021502150215021502BE
S214081D6015021502150215021502150215021502AE
S214081D70150215021502150215021502150215029E
S214081D80150215021502150215021502150215028E
S214081D90150215021502150215021502150215027E
S214081DA01502150215021502150215026900B8007B
S214081DB00601E200DD0075010920FFF78BFF4FF0F2
S214081DC040510420A54CA0474FF040510520A0479D
S214081DD04FF040510620A0474FF040510720A0473B
S214081DE004209F4CA0470620A0470520A0470720B0
S214081DF09C4B98479C489D4CA04730210220FFF7F3
S214081E0069FF4AF2B700A04730210220FFF762FFB9
S214081E1043F29350A04730210220FFF75BFF43F2BE
S214081E209350A04738210220FFF754FF08210220CC
S214081E30FFF750FF01210220FFF74CFF0621022082
S214081E40FFF748FF0C210220FFF744FF0122884BCA
S214081E501A60002462E108210220FFF73BFF0A20EF
S214081E60FFF738FF4FF0405104207C4CA0474FF056
S214081E7040510520A0474FF040510620A0474FF09C
S214081E8040510720A0470420754CA0470620A047CD
S214081E900520A0470720A0470024754B1C603DE19D
S214081EA0734B1C6804F0010438E1089F0022394689
S214081EB00720FFF70FFF142420260325314628465F
S214081EC0FFF708FF013CF9D1099A39460720FFF7C2
S214081ED001FF079C2178002900F02581032501349D
S214081EE007942846FFF7F6FE21780029F7D1002444
S214081EF014E1079C24B107205A4B984700240DE1AB
S214081F000720574B984709E10920FFF7E3FE05200D
S214081F10534B98470520FFF7DDFE079C14F0800F0B
S214081F204FF0030014BF4F4B4D4B9847E4B214F0E4
S214081F30400F4FF0020014BF4A4B494B984714F025
S214081F40200F4FF0010014BF464B454B984714F03E
S214081F50100F4FF0000014BF424B414B984714F047
S214081F60080F4FF02B0014BF3E4B3D4B984714F01C
S214081F70040F4FF02A0014BF3A4B394B984714F019
S214081F80020F4FF0290014BF364B354B984714F014
S214081F90010F4FF0280014BF324B314B98470620EC
S214081FA0FFF798FE0024B9E006202D4B98479DF8C9
S214081FB01C100120FFF78EFE0024AFE00620294BF8
S214081FC098479DF81C100120FFF784FE0024A5E022
S214081FD00798C0F11400274B98474FF07C51264BC2
S214081FE09847264B9847044698E040F665501F4C9D
S214081FF0A04704201B4B984740F2AE20A047042079
S214082000174B984740F66550A047002486E040F6F0
S2140820106550164CA0470420124B984740F25710BC
S214082020A04700247AE040F25710104CA04704203E
S2140820300B4B984740F66550A04700246EE0079B78
S21408204003F003030E4AD15C089B194441F0800153
S2140820500220FFF73FFE002460E000BFAD0808003E
S2140820607308080059080800DC50340001000020F6
S214082070BC100020ED3908009D3A08003D3D0800D8
S214082080408C08004FF040510020284CA0474FF0E5
S21408209040510120A0474FF040510220A0474FF082
S2140820A040510320A0474FF040512820A0474FF04A
S2140820B040512920A0474FF040512A20A0474FF012
S2140820C040512B20A047002428E04FF02051002044
S2140820D0164CA0474FF020510120A0474FF0205142
S2140820E00220A0474FF020510320A0474FF0205170
S2140820F02820A0474FF020512920A0474FF0205114
S2140821002A20A0474FF020512B20A047002405E0A6
S2140821100F20074B9847002400E000242046BDE81F
S214082120F84004B070470024F8E700BFAD08080080
S214082130B51708000FB42DE9F04387B00E990429A7
S21408214000F0A18040D9062954D062D3072900F0B0
S214082150E985642940F066869E4B00249C615C6194
S2140821601C7702221A8064209B4B98474FF06051D8
S21408217034209A4DA8474FF060513320A8473320A3
S214082180974B98476420974B98476420964B9847F8
S214082190964E00944FF0FF33012231466620944D48
S2140821A0A84700942346042231466620A847009490
S2140821B0234664228F496620A847A046404607B0B3
S2140821C0BDE8F04304B07047022900F0A68000F28C
S2140821D04383012940F026860F9B01330F93864AD6
S2140821E052F82320002A3BD100230F9334207C4B3F
S2140821F098473BE0109B1A784AB19DF83C108A42F3
S21408220005D0013310931A780AB18A42F9D190465C
S214082210D4E7DDF8408008F1FF331093B8F1000FDB
S214082220CCD0764E6625704C0F9B1B781B09F15C4C
S2140822302846A0470F9B1B7803F00F03F15C28463F
S214082240A04720212846A0470F9B01330F93DDF8AF
S214082250408008F1FF331093B8F1000FE4D1ADE7E2
S21408226013F0010FC2D03420654B98470F9B624A83
S21408227052F82320009201225C4966205C4CA04755
S2140822804FF000089AE705AB0FAA0EA95D485E4C0A
S214082290A047504B1B8813F0040F30D068204E4BD5
S2140822A098478046002889D00EAD55F8042B574C21
S2140822B006AE56F8043D00930F9B55492046DFF8B6
S2140822C06081C0470623012221466720424FB8474F
S2140822D004AB009333462A460EA94A484D4DA847F4
S2140822E00E9B00930F9B059A4B492046C047052333
S2140822F0002221466720B8474FF000085EE7434CA7
S214082300059B00930F9B0E9A44492046444DA847C8
S21408231021466720344B9847C0E72E4B1B7F062B79
S21408232000F28C82DFE813F00700860089009E0022
S21408233072027502C2010F9AD3B2083B182B2ED828
S214082340DFE813F07705770577052D002D0077056C
S2140823502D002D002D002D002D002D002D002D0008
S2140823602D002D002D002D002D0019002D002D000C
S2140823702D002D007705174C41F28833A361294BB1
S214082380A3601B2003F8010C0125E5814FF6FF71B9
S214082390254B9847208225774FF000080EE70D4C0E
S2140823A0238843F004032380642363611F4B636020
S2140823B003F8012C0123A3811D4967200A4DA8476D
S2140823C09DF83C106620A847032323774FF00008A3
S2140823D0F4E600BFC4110020D51C0800AD080800AC
S2140823E07308080095190800DD3208003521080032
S2140823F0193508009D030800FC8C0800108D08009D
S2140824005908080060120E40F10C080064120020FB
S214082410548C0800E10D0800648C0800448C080001
S214082420713E0800E5110020A1170800C110002021
S214082430748C08000222934B1A77924C41F2883328
S214082440A361A3685A1CA2600F9A1A70E389013325
S214082450E381218A9DF83C008B4B984720824FF0F9
S2140824600008ABE66422874B5A610F9AD1B2A1F1F5
S2140824700803132B00F29780DFE803F038207695E0
S2140824809576959595959595959595959595950A99
S2140824907C4C41F28833A361002565617B4BA360C1
S2140824A01B2003F8010C0123E3814FF6FF71764BDE
S2140824B09847208204232377A8467FE6744B93E840
S2140824C003000290ADF80C10090C8DF80E10714B35
S2140824D01860BDF80C209A806A4B0622DA8105221D
S2140824E01A7701229A614FF0000867E6654B9A89C9
S2140824F0002A00F0A284684C22440E925B6805937A
S2140825009A4208D91A7803F8012C059B01330593DB
S2140825100E9A9A42F6D8202203F8012C5F4D2946D7
S21408252067205F4EB047574A516801395160938912
S214082530013B9BB29381621C1A44521A6820B0472A
S2140825408046431E059300283FF438AE6726544C51
S21408255029463046A047DDF8148008F1FF33059376
S214082560B8F1000FF4D129E6464B9B896BB9454B69
S2140825701A8822F004021A804FF0000883F81C809C
S2140825800D216620464B984718E63E4B00245C61B2
S21408259006221A7700940D23022242496620424DED
S2140825A0A847A0460AE6D2B2364B9B8983B9202AAA
S2140825B000F04784334C6368581C60601A706620C5
S2140825C0374B9847A3890133A3814FF00008F5E5F8
S2140825D0FF2B00F249842B48008810F0010F12D117
S2140825E0284840682C4C1C44A04202D10133254C94
S2140825F0A381441C234B5C6002706620284B9847D6
S2140826004FF00008DAE51F4A5168234A1A449142F7
S2140826100FD0214A13440E935A1E914209D81949DD
S21408262012781A700E9A531E0E93023A4868904211
S214082630F6D9144C63685A1C62600F991970C9B2AF
S2140826406620174DA847A38901339BB2A38161680A
S214082650114A1A44521A6820A8478046431E0E9309
S21408266000283FF4ABAD0D4E67250D4C3146284685
S214082670A047DDF8388008F1FF330E93B8F1000F55
S214082680F4D19BE5C4110020A1170800E51100202D
S214082690F48C0800E4110020C0100020788C080094
S2140826A0DD32080035210800193508008E4A93895E
S2140826B052688E49521A9B1A5A1E059253B18C4E6E
S2140826C067258C4C31462846A047059B5A1E05921E
S2140826D0002BF7D1844DAA89844C131901336B60FB
S2140826E0002616550720FFF725FDAA89131901337A
S2140826F06B601655804967207E4DA847214667209F
S214082700A8477E4B98477E4920467E4B9847044606
S2140827100E9068B97C496720764B9847724B4FF005
S214082720000883F81C801A8822F004021A8045E5FF
S214082730764B984701462046754B984781B26A4BB8
S21408274019820596734B1B88F3B199421ED0012354
S214082750704A00E02B4632F8334024B15D1CA14293
S214082760F8D1059300E005936A4C04EBC3035D6853
S21408277075B10E9C2046654B9847611C01445A4823
S214082780A847654B9847C5E70023EDE70023EBE726
S21408279000230593614B1B8813B3994222D001236B
S2140827A05E4C00E02B4634F8332022B15D1C914283
S2140827B0F8D1059300E00593584901EBC3035D681B
S2140827C095B10E9C2046514B9847611C01444648DB
S2140827D0A847514B98474C496720464B984799E776
S2140827E00023E9E70023E7E73F4B1B8813F0020FB7
S2140827F090D04B4C82B24B4920464B4B98472146CB
S21408280067203C4B9847444B984783E70522364B4E
S2140828101A77354C41F28833A361A3685A1CA26024
S2140828200F9A1A70E3890133E381218A9DF83C00E8
S2140828303E4B984720824FF00008BFE43C4967208B
S2140828402C4B9847284B4FF0000883F81C801A88B2
S21408285022F004021A80B1E4234B9B6993B1013B32
S214082860214A936173B9117F052900F25682DFE881
S21408287011F009000600170054028C009800002288
S214082880194B1A77184BD3F81480B8F1000F3FF499
S21408289095AC08F1FF32144B5A614FF000088DE4EE
S2140828A0114CE18923481A4B984780B220824CF293
S2140828B0F57398420CD04CF2FA7398420CD00A4B37
S2140828C01B8813F0020F4CD10022074B1A77D9E762
S2140828D00022054B1A77D5E7034B9B8963BB00227A
S2140828E0014B1A77CEE700BFC4110020C0100020A5
S2140828F07C8C0800DD320800808C080059370800F8
S214082900708B080085370800CC8C0800BD3E080090
S2140829106D170800148B0800413708001C90080043
S21408292064120020888C0800713E0800A117080071
S214082930A08C0800E4110020974C228842F004027C
S214082940228064226261954E33446360944967200E
S214082950944DA847A28931466820A84703232377C1
S21408296090E7914967208F4CA0478B4EF2898F4994
S2140829700520FFF7DFFB8E4D328A8E4928468E4BA0
S214082980984729466720A0479EE78C496720854BCD
S2140829909847814B00221A771A8822F004021A8078
S2140829A070E77D4CE1898148854B984780B2208244
S2140829B04CF23A13984200F00B8132D845F2E233D3
S2140829C0984200F0DF801DD840F2BB53984200F0D2
S2140829D0198140F27B6398421DD16F4A93896F49EB
S2140829E00B4452689A4207D2764967206D4B98473F
S2140829F0694A536801335360674B64225A6103225D
S214082A001A772DE046F60E73984235D04AF64F539D
S214082A10984200F04581604B64225A6103221A7777
S214082A201EE04CF2BA63984265D01DD84CF2E333E8
S214082A30984272D04CF23A439842ECD1564B5A68B8
S214082A40564B9A4207D960496720564B9847524AD0
S214082A505368013B5360504B64225A6103221A772D
S214082A604D4BD3F8148014E74CF2F57398424ED0C9
S214082A704CF6BA439842CED1474B9B892BB1474A6E
S214082A801344454A52689A4215D0434B5B68591E10
S214082A90424A914217D34D4C224613F8011C062091
S214082AA0FFF748FB78B13C4B5B682246197806204E
S214082AB0FFF740FB38B9384A5368013B5360424930
S214082AC06720384B9847414D334B5B682A46197840
S214082AD00620FFF72FFB002840F0C5802E4B5B68CA
S214082AE0591E2E4A914280F0D7802B4B64225A6199
S214082AF003221A77B4E7314967202A4B9847264BB2
S214082B001A8822F004021A8000221A77BAE6224BA4
S214082B1064225A6103221A77A2E71F4A53680133D0
S214082B200E931E4992890A4493420AD21A481A7882
S214082B3003F8012C0E9B01330E9382890A449A42AD
S214082B40F5D8202203F8012C134B59680E9A521A0E
S214082B506820144B9847431E0E9350B11A4E6725AB
S214082B60104C31462846A0470E9B5A1E0E92002B44
S214082B70F7D1094B9A89013A9A8164225A6103224D
S214082B801A776DE7044B1A8882F001021A806422CD
S214082B905A6103221A7763E7C4110020C010002088
S214082BA0CC8C0800DD320800D08C0800E411002028
S214082BB064120020E08C0800713E0800EC8C0800C7
S214082BC06D1708007C8C0800788C0800248D080097
S214082BD09E4B5B689E4A9B1A5A1E0E9253B19D4E98
S214082BE067259D4C31462846A0470E9B5A1E0E92D6
S214082BF0002BF7D1954B964A5A6064225A610322F5
S214082C001A772DE7914A938991490B4452689B1A83
S214082C105A1E0E9253B1914E67258F4C3146284660
S214082C20A0470E9B5A1E0E92002BF7D1874B9A8907
S214082C3087490A445A6064225A6103221A770FE7C2
S214082C40013B636031466720834B984763682A4692
S214082C5019780620FFF76EFA00283FF43FAF63683E
S214082C60BB42EDD83AE7794C794F7A4EEEE763687F
S214082C70013B636039466720B0476368591E744A4B
S214082C809142FFF432AF2A4613F8011C0620FFF7DC
S214082C9051FA0028EBD028E76C4C6E4F6E4EF2E7E0
S214082CA06F4D6A4B5B682A4619780620FFF742FA8A
S214082CB0B8B1664C664F694E1DE001336360314615
S214082CC06720654B984763682A4619780620FFF7F9
S214082CD031FA0028EDD16368A2893A449342ECD3CE
S214082CE0E7E75A4C5A4F5D4EEDE7013363603146CD
S214082CF06720594B984763682A4619780620FFF7D5
S214082D0019FA20B16368A2893A449342EDD34F4B2F
S214082D1064225A6103221A77A2E641F28830514BA0
S214082D209847AFE54A4D0E954D4E062432460E9B03
S214082D3019782046FFF7FEF9804618B10E9B013336
S214082D400E93F3E70E9B5A1B05929AB13F4A4049E9
S214082D50516092892A4493420CD23C494A68501CD6
S214082D604860581C0E901B7813700E9B8A892A445C
S214082D709A42F3D805996B180E93344A93895B1ACE
S214082D8093811446062704E0A3892B440E9A93429F
S214082D9014D80E9BA2892A449A427FF60FAA324676
S214082DA019783846FFF7C6F90028EDD10E9B01338F
S214082DB00E93A2892A449A42F1D8EAE702F1010959
S214082DC0CDF83890C4F804904B4588BF4B460CD9CC
S214082DD0324619783846FFF7ADF930B10E9B013305
S214082DE00E93A2892A449A42F2D80E9B6168591A11
S214082DF0059189B1A2892A4493420DD26268511C72
S214082E006160591C0E911B781370059921B10E9BB1
S214082E10A2892A449A42F1D8A389591AA181CDF8E1
S214082E203890B6E70D200F4B98474FF00008FFF78D
S214082E30C5B94FF00008FFF7C1B94FF00008FFF713
S214082E40BDB94FF00008FFF7B9B900BFC41100209C
S214082E50C0100020788C0800DD3208007C8C080042
S214082E60248D0800B51708004FF00008FFF7A6B92C
S214082E70014B1888704700BFC4110020014B18800A
S214082E80704700BFC411002038B5054608460A49F1
S214082E900A4B984770B10446094B984701462046A6
S214082EA0084B984745F2E573984203D12B8843F0C0
S214082EB002032B8038BD00BF708B0800193F08003E
S214082EC0BD3E08006D17080038B5054608460A498D
S214082ED00A4B984770B10446094B98470146204666
S214082EE0084B984745F2E573984203D12B8823F0A0
S214082EF002032B8038BD00BF708B0800193F0800FE
S214082F00BD3E08006D17080038B50D460349672012
S214082F10034CA04729466720A04738BD5C8E0800AA
S214082F20DD32080008B502496720024B984708BDFD
S214082F30308D0800DD32080070B53A4900203A4B5B
S214082F409847002856D00446384B984701462046EE
S214082F50374B984747F22733984204D04EF2A913C6
S214082F60984224D070BD334900202F4B9847C0B1F3
S214082F70314B9847C4B22F4900202B4B984790B145
S214082F802D4B9847C5B22B490020274B984760B170
S214082F90294B9847C3B22A4621466620274CA047A5
S214082FA070BD0024E7E70025EDE70023F3E7214995
S214082FB000201D4B9847F0B11F4B9847C4B21D49D7
S214082FC00020194B9847C0B11B4B9847C5B2194902
S214082FD00020154B984790B1174B984786B218496A
S214082FE06720184B984733462A4621466720134CD5
S214082FF0A04730B170BD0024E1E70025E7E70026CA
S214083000EDE7114D294667200E4CA0470F4E314676
S21408301068200A4B984731466720A047294667200C
S214083020A047E7E7708B080085370800BD3E080014
S2140830306D1708004C8E08007D3D0800951908009D
S214083040548E0800DD320800CC8C0800A41200203C
S21408305010B508461549164B984700B910BD0446E2
S214083060144B984701462046134B984780B248F6BB
S2140830706203984212D048F68B33984208D041F241
S214083080522398420ED0214613200C4B9847E5E76A
S21408309065200B4CA0476920A04710BD6620084B4A
S2140830A0984710BD6B20064B984710BD708B0800DC
S2140830B0193F0800BD3E08006D170800B517080040
S2140830C09D03080070B582B004460D46038843F099
S2140830D0040303800E4E0A460E4930460E4B9847A8
S2140830E0314667200D4B984735B90D4B013BFDD14E
S2140830F00C480D4B9847FEE74FF47A7300936B1E07
S21408310022460A4966200A4CA04702B070BD00BF96
S214083110A4120020248E0800713E0800DD32080044
S214083120A086010000120E40E10C0800C530080019
S2140831301935080010B582B00446038843F0040326
S21408314003800846054B984700230093034622460B
S21408315003496620034CA04702B010BD7D3D080019
S214083160C5300800193508002DE9F0438BB001A9D1
S2140831704448454B984745496720454CA047019A1F
S214083180013AD2B2434F413243493846434B9847F7
S21408319039466720A04742496720A047029A414B14
S2140831A053F822106720A0473F4E31466720A047B5
S2140831B03E496720A0473E4D039B55F823106720DD
S2140831C0A04731466720A0473A496720A047049B96
S2140831D055F823106720A04731466720A047364990
S2140831E06720A047059A354B53F822106720A0475A
S2140831F031466720A0470699192938D0304B002455
S21408320001341A7B12B10C338A42F9D12D49672052
S2140832101F4DA847DFF8A8804FEA440909EB0403C6
S21408322008EB830359686720A84727496720A847FB
S2140832304C4408EB8408D8F808106720A84731469D
S2140832406720A84721496720A847079A204B53F8C4
S21408325022106720A84731466720A847089B43B92D
S2140832601C4967200A4B98470BB0BDE8F08300243A
S214083270CCE7099A18490748084B98473946672003
S214083280A847EDE740070E40F9010800388D08000A
S214083290DD320800A4120020748D0800713E080074
S2140832A0848D080078050020CC8C0800908D0800D6
S2140832B0980500209C8D0800A88D0800EC050020C5
S2140832C06C8E0800B48D0800C08D0800C88D0800F4
S2140832D0D8050020E88D0800D48D08000FB4F8B58E
S2140832E00699A1F16403042B00F2B580DFE813F019
S2140832F00500B3003A0059008600594B594A1A602F
S2140833005A600820584B98474FF000610C20574CDD
S214083310A04757490B20A04756495748574B984748
S21408332038B94FF48072564B1A60534C554E564F68
S21408333006E01820554B9847F3E706A92046B847F5
S2140833402046B04705460028F7D14B4C2046504B40
S2140833509847012120464F4B98472846BDE8F84035
S21408336004B070473E4B1A68511C196007991170D3
S2140833701A68494B9A4203D3A3F50072384B1A6071
S214083380374B1A685B689A4206D04FF400713A4881
S214083390404B98470125E0E7002117203B4B98470C
S2140833A0F3E700230693079B19461A78FAB12C4CC4
S2140833B0394E314D2268501C2060013307930B7834
S2140833C01370069B013306932368B34224BF254B2C
S2140833D02360226863689A420BD04FF4007128462F
S2140833E02C4B9847079B19461A78002AE2D1069D67
S2140833F0B3E700211720254B9847EEE700230693EE
S214083400089B0BB3164C244E1B4D23685A1C22608F
S214083410079A511C079112781A70089B013B08936B
S214083420069B013306932368B34224BF0D4B2360E3
S214083430226863689A4209D04FF400712846154BF3
S2140834409847089B002BE0D1069D86E700211720A9
S2140834500E4B9847F0E70C200C4B984700257CE766
S214083460A4130020AC130020AD0A0800AD0808001D
S214083470010000089497080000060E40510F080047
S21408348000E100E0930F08009B0F0800B51708003E
S2140834908F0F0800870F0800AC15002010B582B003
S2140834A01648174B9847044610F4007F11D0154A63
S2140834B053681268934211D05A1C12494A60197808
S2140834C00E4BD961104B9A4203D3A3F500720D4BED
S2140834D05A6014F0010F07D102B010BD4FF4007106
S2140834E006480A4B9847F4E7044B9B69002200926B
S2140834F0022207496620074CA047EDE700060E4063
S2140835008F0F0800A4130020AC1500208B0F0800AE
S21408351035210800193508000FB4F0B583B00899AE
S214083520642928D01ED966296BD0672940F0CD803B
S214083530684B9847684A53681268934200F0AE8012
S2140835401D685C6808949E681033644A9342C0F00D
S214083550A280634A604B5A60624B984731462046C1
S214083560A84748E0012940F0B080002508955E4C41
S2140835702F4666269AE0584B594A1A605A605A4BA4
S21408358003F5A0710022DA6010338B42FBD1574B4B
S21408359002221A665A655A62C3F88020196F21F00B
S2140835A0020119675A601620514B9847514C524AE7
S2140835B000212046514B984740F2EE220021204633
S2140835C04F4B984740F20D22002120464D4B984716
S2140835D0002120464C4B98474C4B4FF48002C3F8CA
S2140835E08020C3F88021002183F816131A6004226D
S2140835F02046474B9847002003B0BDE8F04004B08B
S2140836007047344B98470C9D45B300230893364BB8
S214083610DB68A3B101230893334A00201C46D1690E
S21408362051B1013310322046142BF8D10021162050
S214083630384B9847142302E070B9142BF6D02A4961
S2140836401B01CA180998C8500A9B53600B9B9360C5
S214083650D560244B9847CEE70893EEE71E4B1A68CA
S214083660099911601B680A9A5A600B9A9A60103377
S2140836701A4A93420BD2184A1360174B1A685B68AB
S2140836809A42E6D100211520224B9847E1E7144AD2
S214083690114B1A60F1E7104A53605DE7114B9847E3
S2140836A0A9E7013508951034142DA4D0E368002B3B
S2140836B0F7D0013BE360002BF3D1A368626821686A
S2140836C000973046FFF728FFEBE70B20114B98478B
S2140836D091E700BFE50A0800EC160020EC1600206B
S2140836E0AC150020210B0800F4160020000C0E4034
S2140836F0AD0A08000000084003C00900110F0800C2
S214083700390F0800310F0800290F080000E100E013
S214083710410F0800B517080008B500210448054BF6
S21408372098470120044B98470320044B984708BD48
S21408373000000840490F0800193508003521080020
S214083740034B1B6813B1034A12781A70704700BF00
S21408375074100020701000200023024A1370024ADA
S2140837601360704770100020741000200B783BB16F
S214083770984205D011F8013F13B18342FAD10346A7
S214083780184670472DE9F84300282BD01D4A1060CC
S2140837901C4B1D682C78002C30D088461A4E194FC2
S2140837A041462046B04720B101353D602C78002CB4
S2140837B0F6D1164B1D602C78F4B12E46124FDFF862
S2140837C04C9041462046B84728B90136C9F80060EB
S2140837D03478002CF5D10E4B1C7000233370284625
S2140837E0BDE8F883094B1D68002DF8D0084B1B78F8
S2140837F02B70044B1D60CBE72E46ECE7034B1D6091
S2140838002E46E8E7781000206D3708007410002070
S2140838107010002000B583B072B6BFF35F8F104EED
S214083820002434700F48104B9847104B9847104B9D
S214083830984764200F4DA84764200F4B98470123EC
S2140838403370BFF35F8F62B60094234664220B4939
S2140838506620A8476725074C2846A047FCE700BF10
S2140838602401002050120E40AD0F0800F106080093
S214083870E10A080019350800352108002901080062
S21408388080F0004002E000BF81F0004142001FBF08
S2140838905FEA410392EA030F7FEA226C7FEA236C11
S2140838A06AD04FEA1262D2EB1363C1BFD218414006
S2140838B048404140B8BF5B42192B88BF704710F09C
S2140838C0004F40F4000020F07F4018BF404211F03F
S2140838D0004F41F4000121F07F4118BF494292EAA7
S2140838E0030F3FD0A2F1010241FA03FC10EB0C00D3
S2140838F0C3F1200301FA03F100F0004302D5494260
S21408390060EB4000B0F5000F13D3B0F1807F06D30C
S21408391040084FEA310102F10102FE2A51D2B1F104
S214083920004F40EBC25008BF20F0010040EA0300F9
S2140839307047490040EB000010F4000FA2F10102A6
S214083940EDD1B0FA80FCACF1080CB2EB0C0200FA30
S2140839500CF0AABF00EBC25052421843BCBFD0407E
S2140839601843704792F0000F81F4000106BF80F4F8
S21408397000000132013BB5E74FEA41037FEA226CBB
S21408398018BF7FEA236C21D092EA030F04D092F086
S214083990000F08BF0846704790EA010F1CBF0020BA
S2140839A0704712F07F4F04D1400028BF40F0004017
S2140839B0704712F100723CBF00F50000704700F037
S2140839C0004343F0FE4040F4000070477FEA22625E
S2140839D016BF08467FEA23630146420206BF5FEA2F
S2140839E0412390EA010F40F4800070474FF000032F
S2140839F004E000BF10F0004348BF40425FEA000CF6
S214083A0008BF704743F0964301464FF000001CE09D
S214083A1050EA010208BF70474FF000030AE000BFF3
S214083A2050EA010208BF704711F0004302D5404231
S214083A3061EB41015FEA010C02BF844601460020A3
S214083A4043F0B64308BFA3F18053A3F50003BCFABE
S214083A508CF2083AA3EBC25310DB01FA02FC63446B
S214083A6000FA02FCC2F12002BCF1004F20FA02F272
S214083A7043EB020008BF20F00100704702F1200265
S214083A8001FA02FCC2F1200250EA4C0021FA02F2C6
S214083A9043EB020008BF20EADC7070474FF0FF0CCB
S214083AA01CEAD0521EBF1CEAD15392EA0C0F93EAC6
S214083AB00C0F6FD01A4480EA010C400218BF5FEA68
S214083AC041211ED04FF0006343EA501043EA5111DB
S214083AD0A0FB01310CF00040B1F5000F3EBF4900D5
S214083AE041EAD3715B0040EA010062F17F02FD2AD9
S214083AF01DD8B3F1004F40EBC25008BF20F00100BC
S214083B00704790F0000F0CF0004C08BF49024CEAD2
S214083B10502040EA51207F3AC2BFD2F1FF0340EA64
S214083B20C250704740F400004FF00003013A5DDCD5
S214083B3012F1190FDCBF00F000407047C2F1000216
S214083B40410021FA02F1C2F1200200FA02FC5FEA03
S214083B50310040F1000053EA4C0308BF20EADC704D
S214083B60704792F0000F00F0004C02BF400010F4BF
S214083B70000F013AF9D040EA0C0093F0000F01F06C
S214083B80004C02BF490011F4000F013BF9D041EA8E
S214083B900C018FE70CEAD15392EA0C0F18BF93EA90
S214083BA00C0F0AD030F0004C18BF31F0004CD8D1BA
S214083BB080EA010000F00040704790F0000F17BF41
S214083BC090F0004F084691F0000F91F0004F14D087
S214083BD092EA0C0F01D142020FD193EA0C0F03D1DF
S214083BE04B0218BF084608D180EA010000F00040E2
S214083BF040F0FE4040F40000704740F0FE4040F4BD
S214083C00400070474FF0FF0C1CEAD0521EBF1CEA5B
S214083C10D15392EA0C0F93EA0C0F69D0A2EB030279
S214083C2080EA010C49024FEA402037D04FF0805313
S214083C3043EA111143EA10130CF000408B4238BFD8
S214083C405B0042F17D024FF4000C8B4224BF5B1AE6
S214083C5040EA0C00B3EB510F24BFA3EB510340EA34
S214083C605C00B3EB910F24BFA3EB910340EA9C00E2
S214083C70B3EBD10F24BFA3EBD10340EADC001B0152
S214083C8018BF5FEA1C1CE0D1FD2A3FF650AF8B42F6
S214083C9040EBC25008BF20F0010070470CF0004C03
S214083CA04CEA50207F32C2BFD2F1FF0340EAC2502E
S214083CB0704740F400004FF00003013A37E792F0EF
S214083CC0000F00F0004C02BF400010F4000F013A4D
S214083CD0F9D040EA0C0093F0000F01F0004C02BF48
S214083CE0490011F4000F013BF9D041EA0C0195E7B1
S214083CF00CEAD15392EA0C0F08D142027FF47DAF4A
S214083D0093EA0C0F7FF470AF084676E793EA0C0F39
S214083D1004D14B023FF44CAF08466EE730F0004C37
S214083D2018BF31F0004CCAD130F000427FF45CAFC7
S214083D3031F000437FF43CAF5FE700BF42000ED28D
S214083D40B2F1FE4F0BD34FF09E03B3EB126209D4C9
S214083D504FEA002343F0004323FA02F070474FF07F
S214083D600000704712F1610F01D1420202D14FF0F4
S214083D70FF3070474FF00000704700BF0A2200214E
S214083D8000F098B970B50F4E0F4D761BB61018BFD9
S214083D90002405D0013455F8043B9847A642F9D1CB
S214083DA00A4E0B4D05F040FE761BB61018BF0024D1
S214083DB006D0013455F8043B9847A642F9D170BDA1
S214083DC070BD00BF349A0800349A08003C9A080070
S214083DD0349A080070B4860746D0541E002A41D08C
S214083DE0CAB2034602E014F1FF343BD303F8012BB2
S214083DF09D07F8D1032C2ED9CDB245EA05250F2C00
S214083E0045EA054519D9264603F11002103E0F2E3D
S214083E1042F8105C42F80C5C42F8085C42F8045C15
S214083E2002F11002F2D8A4F1100222F00F0204F0F8
S214083E300F041032032C13440DD91E462246043AAA
S214083E40032A46F8045BFAD8221F22F0030204323B
S214083E50134404F003042CB1C9B21C4403F8011B34
S214083E609C42FBD170BC704714460346C2E700BFAD
S214083E700EB40146F0B56FF000454FF402774FF6E2
S214083E80FF769CB021AC54F8042B0B4B029106919C
S214083E90186802A923460194ADF81470049507958E
S214083EA0ADF8166000F01CF90022029B1A701CB0D0
S214083EB0BDE8F04003B070472C06002020F0030150
S214083EC010F00300C0F1000051F8043B00F1040CA8
S214083ED04FEACC0C6FF000021CBF22FA0CF2134318
S214083EE04FF0010C4CEA0C2C4CEA0C4CA3EB0C02E1
S214083EF022EA030212EACC1204BF51F8043B04304B
S214083F00F4D0C2F1000102EA0102B2FA82F2C2F16A
S214083F101F0200EBD2007047024A012312685C3287
S214083F2000F002B82C060020F0B418B307460D4679
S214083F3017F8016B01E0A64217D015F8014B002CC4
S214083F40F9D1E6B10C4617F8015B01E0002BF9D071
S214083F5014F8013B9D42F9D155B1002307F8013CFE
S214083F60064617603046F0BC704753B13846DDE762
S214083F702F46F5E710680028D8D10646F2E71660FF
S214083F80F0E7176006460370ECE700BF2DE9F84F28
S214083F90DDF828900F46804616461D468A4600E0FD
S214083FA0A2465446484614F801BB02F0F5FA5844AF
S214083FB0427812F00802F3D1BBF12D0F4FD0BBF1B7
S214083FC02B0F04BF94F800B00AF102041DB1102D9F
S214083FD056D0AC4604E0BBF1300F60D00A25AC469C
S214083FE0002A0CBF6FF000494FF000490021B9FBCA
S214083FF0FCFE08460CFB1E9A05E029D001210CFBA6
S214084000003014F801BBABF13003092B05D9ABF12E
S2140840104103192B0BD8ABF137039D420FDDB1F1E5
S214084020FF3FEED08645E8D24FF0FF31E9E7ABF127
S2140840306103192B03D8ABF157039D42EFDC4B1CE9
S21408404013D002B1404246B1C1B93760BDE8F88F17
S2140840509A45D3DA4FF0FF31D3E7BDE8F88F94F8E6
S21408406000B001220AF10204B0E72223C8F80030A3
S214084070EEB1671E48463760BDE8F88F8146F8E718
S214084080BBF1300FA5D1237803F0DF03582BA0D15E
S2140840904FF0100C94F801B065460234A0E7237878
S2140840A003F0DF03582BF3D00825AC4698E74846BC
S2140840B0BDE8F88F084B70B51D68084E6C6B82B06B
S2140840C0002C08BF3446134600940A460146284684
S2140840D0FFF75CFF02B070BD2C060020580A0020CF
S2140840E02DE9F04FC3B00C460B9192460F930C90F7
S2140840F002F056FA036818461A93FFF7DFFEA389FC
S2140841001990190603D52369002B01F03180002386
S2140841100DF1C809C84614931393159318931B9367
S21408412009931693179327932693CDF894909AF8A5
S21408413000305446EBB1252B02D11AE0252B03D0CC
S21408414014F8013F002BF9D1A4EB0A058DB1269B84
S214084150279A01332A44072BC8F800A0C8F8045049
S2140841602792269300F38A8008F10808099B2B44B7
S21408417009932378002B00F0898000234FF0FF3046
S2140841801A468DF8773019460D939B46637804F1E6
S214084190010A0A900AF1010AA3F12000582800F241
S2140841A0B683DFE810F04B03B403B4035303B40339
S2140841B0B403B403B403B403B40359005803B403F4
S2140841C066001402B4032F02A403A403A403A403E2
S2140841D0A403A403A403A403A403B403B403B4036A
S2140841E0B403B403B403B403B403B403B4038B0234
S2140841F0D302B403D302B403B403B403B4031A0358
S214084200B403B4031F03B403B403B403B403B4037E
S2140842103402B403B4034B02B403B403B403B403C4
S214084220B403B403B403B403B403B40376029D031F
S214084230D302D302D30262039D03B403B403670315
S214084240B4037403DD018B035D03B403F201B40306
S2140842508700B403B40331030F9C236818460D93F4
S2140842602346002803F104030F9304DA0D9B5B42F0
S2140842700D934BF0040B9AF800308BE725AA0B99A0
S2140842800C9803F021F840B9C8466FE7279B23B17E
S2140842900C9825AA0B9903F017F80B9B9B8913F02B
S2140842A0400F099B18BF4FF0FF330993099843B096
S2140842B0BDE8F08F1BF0200F119340F0AF810F9AE6
S2140842C01BF0100F134640F096851BF0400F00F0C9
S2140842D0928500250123148804320F92002217467F
S2140842E08DF877200A994A1C00F010822BF080027D
S2140842F0079254EA050240F00F82002940F02D8408
S214084300002B40F035851BF001030E9300F05E8607
S214084310302342AE06F8413D0A9B0E9A9342B8BF38
S214084320134608930023129317B1089B013308938A
S214084330079B13F00203109302D0089B02330893DE
S214084340079B13F0840540F00E830D9B089AA3EB99
S214084350020BBBF1000F40F30683BBF1100F40F3CE
S214084360AE87279C43462146A8461027269A0C9CCB
S2140843700B9D06E0ABF1100BBBF1100F03F1080321
S21408438018DD0132AB481031072A2791269283E8B8
S2140843908100EFDD25AA2946204602F095FF002871
S2140843A07FF47BAFABF1100BBBF1100F4B46279990
S2140843B0269AE6DC45460C46984601329D4B5C44F8
S2140843C0072A2794269288E8080800F3C1829DF8F1
S2140843D0777008F1080887B10121269B0C440B4426
S2140843E00DF17702072B27942693C8F80410C8F80F
S2140843F0002000F3C98308F10808109B7BB102214E
S214084400269B0C4401331EAA072B27942693C8F82C
S2140844100410C8F8002000F30D8408F10808802D61
S21408442000F001830A9B0E9A9F1A002F37DD102F83
S21408443040F37586804D42462146B0464FF0100B35
S2140844402E46269B0C9C0B9D04E0103F102F02F175
S214084450080215DD01331031072B2791269382E8D1
S2140844604008F2DD25AA2946204602F02DFF00283E
S2140844707FF413AF103F102F4A462799269BE9DC96
S21408448035460C464646904601333C44072B27944F
S214084490269388E8A00000F36C8308F10808079BB9
S2140844A0DF0500F16282269B0E9901330C44072B28
S2140844B02794C8F80060C8F80410269300F3AF8362
S2140844C008F10808079B5B073BD50D9B089A9D1AC1
S2140844D0002D36DD102D40F31D871026269B0C9FD9
S2140844E0DDF82CB004E0103D102D08F1080816DDA4
S2140844F00133504A1034072B2794269388E8440043
S214084500F1DD25AA5946384602F0DEFE00287FF47B
S214084510C4AE103D102DC846279C269BE8DC013308
S214084520444A2C44072B2794269388E8240008DD61
S21408453025AA0B990C9802F0C7FE00287FF4ADAEAA
S214084540279C099B0D9A08998A42ACBF9B185B1852
S2140845500993002C40F0F7820023C8462693E6E528
S21408456011931BF0200340F044811BF0100240F02A
S21408457062841BF0400300F05E840F9913460A46D7
S21408458004320C8800250F92A8E600250F9A11938E
S21408459016688DF87750141D002E00F0C9860A9A02
S2140845A0531C00F017862946304602F0BFFA00284A
S2140845B000F00987831B0A950E930F94CDF81CB05C
S2140845C023EAE373089312959DF87770ACE69AF899
S2140845D000300AF101042A2B00F0BD87A3F1300051
S2140845E00928A24600F2148700231C461AF8013B45
S2140845F004EB840400EB4404A3F130000928F5D941
S2140846000A94C9E54BF0800B9AF80030C2E54BF0E7
S214084610100B1BF0200F11933FF451AE0F9C07347C
S21408462024F0070303F10802D3E900450F9201239B
S21408463054E600BFE8970800F89708001193002A88
S21408464040F0A887BD4B1BF0200F189340F0E6807B
S2140846500F9A1BF0100F134640F0D4831BF0400F40
S21408466000F0D0830025043314880F931BF0010F45
S21408467000F0E28054EA050300F0DE8030239DF85F
S21408468044208DF878308DF879204BF0020B022301
S21408469024E601221193002311460F980892026817
S2140846A01F468DF877300A931293031DCDF81CB079
S2140846B00E918DF8A0200F9328AE39E61193002AA4
S2140846C040F07F874BF0100B1BF0200F40F07184F2
S2140846D00F9A1BF0100F134640F099831BF0400FFB
S2140846E000F09583B2F900400433E5170F9322468D
S2140846F02B46002A73F10003C0F294830A999DF8AA
S21408470077704A1C4FF001037FF4F0AD54EA0502B7
S21408471000F02582CDF81CB0012B00F00A83022B8E
S21408472040F098824E461898230943EA05732909EB
S21408473004F00F020D461C46835C06F8013D54EA59
S2140847400503F1D1A9EB06030E93E5E51193002ABC
S21408475040F033870F9C1BF0080F04F1070400F0A5
S214084760CB8424F0070303F108020F921A685B68EB
S21408477014921593159B149D23F000442846214651
S2140847804FF0FF326E4B03F051FE002840F03084A5
S214084790284621464FF0FF32694B03F029FE0028D1
S2140847A040F0268414A80FC803F018FE002840F02E
S2140847B0D1859DF8777003231A4608930023194677
S2140847C00A93604E604B0E92119A2BF08000079069
S2140847D01291472AD8BF1E46A6E54BF0080B9AF852
S2140847E00030D7E44BF0100B11931BF020033FF476
S2140847F0BCAE0F9C073424F0070303F10802D3E984
S21408480000450F92002369E51193002A40F0BE8602
S2140848104E4B1BF0200F18933FF41AAF0F9C1BF05B
S214084820010F04F1070424F0070303F108020F92AE
S214084830D3E900457FF41EAF02234FE59AF800300F
S21408484000297FF4A7AC01222021A3E44BF0010B3A
S2140848509AF800309EE49AF8003001222B2199E459
S2140848604BF0200B9AF8003094E44BF0400B9AF883
S21408487000308FE49AF800306C2B03BF9AF80130AA
S2140848804BF0200B0AF1010A4BF0100B82E4002AC9
S21408489040F078861BF0200F40F04F841BF0100F76
S2140848A040F035841BF0400F00F031840F9A1368EF
S2140848B004320F92BDF824201A8038E47823302278
S2140848C00F988DF879301193031D0F931F4B0468CA
S2140848D018934BF0020B8DF8782000250223FDE490
S2140848E01193002A3FF4F0AE8DF87710ECE600201E
S2140848F00446A3F130001AF8013B04EB840400EBED
S2140849004404A3F130000928F5D90D9444E4119322
S214084910002A40F04686119A002A3FF4B7AC0023D6
S21408492001211F4608918DF8A020CDF81CB08DF8FF
S21408493077300A9312930E9128AEF9E4B4970800DC
S214084940FFFFEF7FA8970800A4970800C8970800FD
S21408495025AA0B990C9802F0B7FC00287FF49DACAA
S214084960C8469DF87770279C35E5119B652B40F364
S214084970998014A80FC803F027FD002800F092813C
S2140849800121269BB44A0B440C44072B27942693F4
S214084990C8F80410C8F8002000F3C58308F1080812
S2140849A01F9B139A279C934203DB079BDD077FF523
S2140849B089AD269B199901331A9A0C44072BC8F817
S2140849C00020C8F804102794269300F3C38308F140
S2140849D00808139B5E1E002E7FF774AD102E40F35A
S2140849E0748522461027269B9C4DDDF830B00B9C1C
S2140849F005E008F10808103E102E40F32482013323
S214084A001032072B2792269388E8A000F1DD25AA06
S214084A102146584602F058FC00287FF43EACC846AB
S214084A20279A269BE7E70D9B089A9F1A002F7FF781
S214084A30F9AC102F40F3A784884D42462146B0466D
S214084A404FF0100B2E46269B0C9C0B9D04E0103F47
S214084A50102F02F1080215DD01331031072B2791BC
S214084A60269382E84008F2DD25AA2946204602F069
S214084A702BFC00287FF411AC103F102F4A462799CC
S214084A80269BE9DC35460C464646904601333C44B0
S214084A90072B2794269388E8A00000F39D8208F148
S214084AA00808BFE4139B012B40F34E820123269F80
S214084AB01C441F44072F2794C8F800602697C8F898
S214084AC0043000F35E8208F10808199A01371A9B29
S214084AD01444072F27942697C8F80030C8F80420EF
S214084AE000F35B8208F1080814A80FC803F06CFCF2
S214084AF0139B002840F04181013B013701361C44D6
S214084B00072FC8F8006026972794C8F8043000F3E3
S214084B10668108F108081B9A0137144421AB072F51
S214084B2027942697C8F80420C8F800307FF7C8AC42
S214084B3025AA0B990C9802F0C7FB00287FF4ADABAA
S214084B40C846279CBEE425AA0B990C9802F0BCFB25
S214084B5000283FF401ADFFF7A0BBDDF81CB0012B21
S214084B6000F07E81022B71D1CDF81CB00024002500
S214084B70D8E525AA0B990C9802F0A6FB00287FF426
S214084B808CABC846279C8AE425AA0B990C9802F099
S214084B909BFB00287FF481ABC846279C2DE40120A8
S214084BA0269B2D4A03440444072B27942693C8F8CB
S214084BB00400C8F8002040F3D88225AA0B990C9860
S214084BC002F082FB00287FF468ABC8461F99279C32
S214084BD029B9139B1BB9079BD8077FF573AC19989F
S214084BE0269B0246013322441A9C072B2792C8F8B4
S214084BF00040C8F80400269300F3318408F108083A
S214084C000029C0F20984139901338C18072B2794BE
S214084C102693C8F80060C8F804107FF751AC25AA98
S214084C200B990C9802F050FB00287FF436AB279CB3
S214084C30C84647E425AA0B990C9802F045FB0028BD
S214084C407FF42BABC846279CFFF7E9BB002400255A
S214084C50CDF81CB0494604E0E4970800F897080029
S214084C603146E20842EA4572E80804F007030546BA
S214084C701446303354EA050201F8013C01F1FF36C8
S214084C80EED1079AD2077FF55DAD302B3FF45AADCB
S214084C903023023906F8013CA9EB01030E930E46B1
S214084CA0FFF73ABB1F9900297FF779AF129B139A33
S214084CB09342A8BF1346002B1F460BDD269B3C4499
S214084CC00133072B279488E8C000269300F3FB825D
S214084CD008F10808129B002FA8BFDB1B002B1F46F5
S214084CE040F3D780102B40F33384BA4D4246214612
S214084CF0B0464FF0100B2E46269B0C9C0B9D04E0EE
S214084D000832103F102F40F3B58001331031072BBF
S214084D102791269382E84008F2DD25AA29462046F0
S214084D2002F0D2FA00287FF4B8AA4A462799269BAA
S214084D30E7E7002D08BF0A2CC0F090804E462046B4
S214084D4029460A22002303F0AFFB303206F8012D6D
S214084D502046294600230A2203F0A6FB04460D46F1
S214084D6054EA0503EBD1A9EB06030E93FFF7D4BA72
S214084D700A9B4E460E93FFF7CFBA5E1E002E7FF7AD
S214084D80CAAE102E40F3E28322464FF0100B914D28
S214084D900C9C04E0103E102E08F1080815DD0137BB
S214084DA01032072F2792269788E82008F2DD25AAD2
S214084DB00B99204602F088FA00287FF46EAA103E67
S214084DC0102EC846279A269FE9DC14460137344435
S214084DD0072F2794269788E860007FF79AAE25AABB
S214084DE00B990C9802F070FA00287FF456AA279CB4
S214084DF0269FC8468FE604321C68002501230F92BA
S214084E00FFF76CBA1C6804330F9300252EE41C6861
S214084E100433E51722460F932B46002A73F1000346
S214084E20BFF66CAC2D27644265EB45058DF87770A8
S214084E300123FFF757BA0F9900250A4604320C6873
S214084E400F92FFF74BBA144601333444072B2794C6
S214084E50269388E860007FF733ABE0E6DDF81CB001
S214084E60012342AE3034CDF81CB006F8414D0E93FF
S214084E70FFF752BA35460C464646904601333C4440
S214084E80072B2794269388E8A00000F3468208F1AB
S214084E9008081F9A139B9A4245DB079BD90742D4FA
S214084EA0139B12989A1A1D1A9542A8BF1546002DEC
S214084EB00EDD2699064401312C440729C8F80060FF
S214084EC02794C8F80450269100F3168208F10808BB
S214084ED0002DB4BF1646561B002E7FF7F3AA102ED9
S214084EE040F3F38222461027269B3A4DDDF830B071
S214084EF00B9C04E008F10808103E102EA3DD0133D1
S214084F001032072B2792269388E8A000F2DD25AA00
S214084F102146584602F0D8F900287FF4BEA9C846AC
S214084F20279A269BE8E7269B199801331A99044482
S214084F30072B2794C8F80010C8F80400269300F337
S214084F40CF8108F10808ABE7079BDA073FF5AEAD57
S214084F500123269F1C441F44072F2794C8F8006087
S214084F602697C8F804307FF7D4AD25AA0B990C9875
S214084F7002F0AAF900287FF490A9C846279C269F25
S214084F80C9E525AA0B990C9802F09EF900287FF42B
S214084F9084A9C846279C269F97E525AA0B990C98AE
S214084FA002F092F900287FF478A9C846279C269F25
S214084FB09AE50F9C073424F0070404F10801D4E9A5
S214084FC000230F9114461D46FFF793BB4E46FFF786
S214084FD0A3B900BFF897080025AA0B990C9802F009
S214084FE073F900287FF459A9C846279CFFF71ABA10
S214084FF0149C22462046159C2346214603F016FAA2
S214085000002840F073820A9B0133119B23F020038B
S2140850100E9300F09C81472B00F0D6804BF48073EB
S2140850200793159B1F1E149B0893B7BF3B46002388
S21408503003F100472D231093119B662B00F09081F7
S214085040462B00F0A48002200E9B23A9452B0ABFFE
S2140850500A9B0A9D5D1C8DE82100049120A81FA9C3
S2140850603B460390089A02910C9800F059FB119B56
S2140850700646672B40F0BA811BF0010F00F023822A
S2140850807419169A0898179B394603F09DF9002854
S21408509040F02481239BA34206D230215A1C239237
S2140850A01970239B9C42F9D89B1B13930E9B472B86
S2140850B000F0A280119B652B40F3A781119B662BFD
S2140850C01F9B129300F07181139B129A1946914206
S2140850D000F35D811BF0010F40F0F08122EAE273D5
S2140850E0089367230E921193109B002B7DD10A9389
S2140850F09DF87770FFF718B924F00704236814930F
S2140851006368159304F108030F93FFF733BB0F9AF0
S214085110136804320F92099A1A60FFF708B8269B9C
S214085120AF4DFFF7B1B925AA0B990C9802F0CCF849
S21408513000287FF4B2A8C84632E40F9A1346043310
S2140851400F93099B1168DD171A462B46C1E9002301
S214085150FEF7EDBF25AA0B990C9802F0B5F80028C3
S2140851607FF49BA8C846279C33E408F108082FE577
S21408517040210C9801F022FA0B9A10601061002862
S21408518000F0138240230B9A5361FEF7C0BF03203A
S2140851900A9C23A98DE81100049120A81FA9039052
S2140851A0089A3B4602910C9800F0BAFA254606463D
S2140851B0119B7419462B7FF464AF3378302B00F0BC
S2140851C087811F9D2C445CE70A9B002B08BF0123A0
S2140851D00A9323E730460A95FEF770FE0F940E9062
S2140851E0CDF81CB00346FFF7EBB92D2700238DF842
S2140851F077700A93FFF799B81F9B1A4612930333E2
S21408520004DB0A9B19469142BFF65EAF119B023B30
S2140852101193129B9DF84420013B002B8DF88420A7
S214085220B4BF2D222B221F93B8BF129B8DF8852062
S214085230B8BFC3F10103092B40F31F810DF193009A
S2140852400146684C00E0114684FB0352DD17C5EBA7
S214085250A20505EB8502A3EB42023032092D01F8C0
S214085260012C2B4601F1FF32EDDC30330239DCB27B
S214085270884202F8014C40F291810DF186011346EE
S21408528001E013F8014B834201F8014BF9D10133D1
S2140852909B1A0DF18602134421AA9B1A139A1B9394
S2140852A0012A13440E9340F347810E9B199A134420
S2140852B00E9323EAE37308930023129314E7279CBC
S2140852C0269AFFF77AB825AA0B990C9801F0FCFFE6
S2140852D000287EF4E2AFC846279CFBE42346E3E6B4
S2140852E025AA0B990C9801F0EFFF00287EF4D5AF9D
S2140852F0C8461F9A279CD3E525AA0B990C9801F057
S214085300E3FF00287EF4C9AF1F9A139BC846279C64
S2140853109A1ADDE5269BFFF702B925AA0B990C9881
S21408532001F0D2FF00287EF4B8AFC846279CB0E547
S2140853300A9B3746062B28BF06230A96129608931A
S2140853400F94CDF81CB00E93274EFEF7EDBF06233C
S2140853500A9363E62D231F468DF87730FFF72BBA9E
S21408536003200A9C23A98DE81100049120A81FA9F0
S2140853700390089A3B4602910C9800F0D1F925460E
S2140853800646041919E7269B154DFFF77FBB199AA1
S214085390139B1344129A0E93002A40F3C68023EAFE
S2140853A0E3730893672311939EE6002B40F3E0808F
S2140853B00A9A002A40F0AF801BF0010F40F0AB803D
S2140853C008930E9390E60A9B0F9408930E930A9000
S2140853D0CDF81CB012909DF87770FEF7A5BF00BFF9
S2140853E0F897080067666666DC970800119B472BE7
S2140853F07FF446AE1BF0010F7FF4DAAE239B9B1BAF
S21408540013930E9B472B3FF4F7AE1F9B129300E7B0
S21408541000200A90FEF7C0BE4F42103135DA10243D
S2140854206A4DDDF830B004E008F10808103F102F88
S2140854302CDD01331032072B27922693C8F800502C
S214085440C8F80440F0DD25AA0B99584601F03CFF41
S21408545000287EF422AFC846279A269BE6E725AAA8
S2140854600B990C9801F030FF00287EF416AFC8465A
S2140854701F99279A269BFFF7C3BB302213448DF843
S21408548087308DF8862022AB06E7504D01333A4424
S214085490072B88E8A0002792269308F108087FF7CC
S2140854A0B2AB25AA0B990C9801F00EFF00287EF4E3
S2140854B0F4AEC846279A269BFFF7A5BB129B199AF7
S2140854C013440E936BE7239BEEE5269B3F4DBBE408
S2140854D0169A0898179B394602F076FF00287FF43C
S2140854E070AEC5F101051F952C44CAE503231A467C
S2140854F00893002319460A93354E364B0E92119A96
S2140855002BF0800007901291472AD8BF1E469DF8B8
S2140855107770FEF709BF129B199A13440A9A1A4421
S21408552022EAE2730E920893DEE5129B0E9AC3F106
S21408553001031A441346C4E71BF0010312937FF4D1
S214085540B4AE0E9B23EAE3730893CDE51F4D3DE406
S214085550269B1E4D92E40F9D9AF801302868A246B5
S21408556040EAE0700A90284604300F90FEF712BE14
S2140855700A9B13B91BF0010F02D0199B0133CDE724
S21408558001231DE78DF87710FFF784B98DF877109B
S214085590FFF73EB98DF87710FFF754B80DF186037C
S2140855A07AE68DF87710FFF7B6B94FF0FF320C237E
S2140855B009920C9A1360FEF779BE8DF87710FFF7FC
S2140855C0C9B88DF87710FFF77DB800BFF8970800C0
S2140855D0B0970800AC970800024B13B1024800F0D9
S2140855E005B87047000000006565080000230146FE
S2140855F01A46184601F0F2BE2DE9F04F03690F6906
S21408560083B09F4200F38880013F01F1140600F141
S214085610140A56F827305AF827200133B2FBF3F855
S214085620BB00009306EB030953440193B8F1000F3F
S2140856303BD00023B4461C46D6465CF8042BDEF85E
S21408564000501FFA82FB08FB0B33120C4FEA134B71
S21408565008FB02BB9AB2A21AABB21FFA8BF41A4422
S214085660C4EB154404EB224492B242EA0442E145F4
S2140856704EF8042B4FEA24444FEA1B43DDD2009B26
S2140856805AF803308BB9019C231F9A450CD254F85C
S214085690043C4BB9A4F1080302E01A68043B1AB9A3
S2140856A09A4507F1FF37F8D30761044601F0FCFC7A
S2140856B000282DDB5546002308F1010856F8041B80
S2140856C028688AB29A1A0B0C81B20A44C3EB1043B4
S2140856D003EB224392B242EA0342B14545F8042B53
S2140856E04FEA2343EAD25AF827200AEB87037AB907
S2140856F01A1F92450BD253F8042C42B9083B02E015
S2140857001A68043B1AB99A4507F1FF37F8D3276198
S214085710404603B0BDE8F08F002003B0BDE8F08F28
S2140857202DE9F04F056C9BB0044692469B46279E93
S2140857304DB10123426C29469340AB606A6001F084
S214085740DBFA00232364BBF1000F5D4635DB00233C
S21408575033609D4BAB4315D0002200235046594674
S21408576002F032FE804600282DD00123269A1360C8
S214085770289B002B00F0BD809448186001381BB0A9
S214085780BDE8F08F42F20F73269A1360BAF1000F45
S2140857900DD1C5F3130555B9289B8D48002BEED0BF
S2140857A000F10803289A13601BB0BDE8F08F289B09
S2140857B08848002BE3D0C31CF4E701232BF00045F0
S2140857C03360AB46C5E718AA19AB01920093524658
S2140857D05B46204601F012FD2B0D814671D05046DF
S2140857E0CBF3130242F07F51189FA3F2FF36CDF891
S2140857F0508041F440110022774B02F0C9F96CA39F
S214085800D3E9002302F078FB6BA3D3E9002302F068
S214085810C1F9CDE90201304602F008FB68A3D3E9D6
S214085820002302F069FB02460B46DDE9020102F09E
S214085830B1F9CDE9040102F00FFE00220290002320
S214085840DDE9040102F0CAFD002840F06D81029DE2
S214085850162D00F257816149524601EBC5015B4699
S214085860D1E9000102F0D8FD002800F0BE816B1EC9
S214085870029300230E93BF1B7B1E089300F14E81F4
S21408588000230A93029B002BC0F23F81089A0D93CF
S21408589011461944002308910C93249B092B2AD8F7
S2140858A0052B40F358860025043B2493249B023B93
S2140858B0032B00F23F86DFE813F0CE03C302D903BA
S2140858C05B04189F199E3E4406F23243202B40F391
