S00F0000537461727455702E7372656342
S21408000000400820650F0800610F0800610F08000F
S214080010610F0800610F0800610F0800000000006B
S214080020000000000000000000000000610F08004B
S214080030610F080000000000610F0800610F08004B
S214080040610F0800610F0800511C0800610F0800C6
S214080050610F0800610F0800610F0800610F0800B3
S21408006015340800610F08007506080089060800A0
S214080070610F0800610F0800610F0800610F080093
S214080080610F0800610F0800610F0800610F080083
S214080090610F0800610F080091360800610F08001C
S2140800A0610F0800610F0800610F0800610F080063
S2140800B0610F0800610F0800610F080010B5054CB5
S2140800C0237833B9044B13B10448AFF300800123F7
S2140800D0237010BDD80F002000000000249A0800E6
S2140800E00C4B43B10C4810B50C49AFF300800C48D4
S2140800F0036823B910BD0A48036833B97047094B2B
S214080100002BF7D0BDE810401847064B002BF5D05B
S214080110184700BF00000000249A0800DC0F0020E3
S214080120249A0800000000000FB438B50499642922
S21408013007D01020274B98470020BDE8384004B069
S21408014070474FF040512020234CA0474FF04051B5
S2140801502120A0474FF040512220A0474FF04051A1
S2140801602320A0474FF040512420A0470A201B4DCB
S214080170A8470B20A8471A4D29460E20A04729460F
S2140801800F20A04729461020A04729461120A0473F
S21408019029461820A04729461920A04729461A208C
S2140801A0A04729461B20A04729461C20A0472946C9
S2140801B01D20A0470B4967200B4B984701230222B6
S2140801C00A4967200A4CA0470423032209496720E6
S2140801D0A047B1E76117080059080800590A08003F
S2140801E0010000286887080055320800A88708001C
S2140801F0811C0800BC87080011B3026802F01F02C1
S2140802000A600268C2F342124A600268C2F3032216
S2140802108A6002680022CA600268C2F303420A6162
S2140802200268C2F307524A610268C2F302728A6120
S2140802300268D20FCA6132B142680A62002070476B
S2140802404FF0FF3070470020704700000FB408B525
S21408025004496720044B98470020BDE8084004B0CE
S214080260704700BFF8880800553208000FB408B574
S21408027004496720044B98470020BDE8084004B0AE
S214080280704700BF14890800553208000FB410B52F
S21408029009496720094B9847002303220849672025
S2140802A0084CA0470023032207496720A0470020E0
S2140802B0BDE8104004B07047B488080055320800FE
S2140802C0D0880800811C0800E88808000FB410B51C
S2140802D009496720094B98470023032208496720E5
S2140802E0084CA0470023032207496720A0470020A0
S2140802F0BDE8104004B07047B488080055320800BE
S214080300D0880800811C0800988808000FB410B52B
S21408031009496720094B98470023032208496720A4
S214080320084CA0470023032207496720A04700205F
S214080330BDE8104004B07047B4880800553208007D
S214080340D0880800811C0800988808000FB410B5EB
S21408035009496720094B9847002303220849672064
S214080360084CA0470023032207496720A04700201F
S214080370BDE8104004B07047B4880800553208003D
S214080380D0880800811C0800A88808000FB42DE94A
S214080390F04182B00899A1F16403072B00F2B080FF
S2140803A0DFE803F0045D6D82AE91AE5756496720CC
S2140803B0DFF89081C047554C01224FF480612046F3
S2140803C0534FB847534B009350234FF480620A218B
S2140803D02046514EB0474FF4806120464F4DA847FF
S2140803E001224FF400712046B8474D4B0093502326
S2140803F04FF400720A212046B0474FF40071204699
S214080400A84701224FF480712046B847454B009311
S21408041050234FF480720A212046B0474FF480716B
S2140804202046A8474FF480623F4B1A603F4D404C29
S2140804300FCC28606960AA60EB6020682861237981
S2140804402B7529466720C0473A4B00221A603A4A5D
S2140804505A60002002B0BDE8F04104B07047354A43
S21408046013680133136052681B01D3581BB1692007
S214080470FFF78CFFEDE700222E4B1A60F7E72D4AB0
S2140804801168536803EB0113DA6812B1002090472D
S214080490DFE79B68002BDCD0264A536000231360F6
S2140804A06920FFF773FFD4E7224A1168536803EB05
S2140804B001135B68002BCCD05360002313606920BF
S2140804C0FFF764FFC5E7002302221C4967201C4D7E
S2140804D0A847184C236862681B01D1586720194B37
S2140804E09847236862681B01D4582046164B9847DD
S2140804F0164B98470346022221466720A847A8E7D6
S2140805001120134B9847A4E7CC870800000C0E4030
S214080510570708005505080005060800DD07080007
S214080520750508009505080000E100E0A8120020FF
S214080530D8870800B410002048880800F08708000C
S214080540811C080055320800353E0800992008002E
S2140805506117080010B582B000230093652203498E
S2140805606620034CA04702B010BD00BF8D030800EC
S2140805709134080010B582B0002300936622034920
S2140805801046034CA04702B010BD00BF8D030800FC
S2140805909134080010B582B00023009367220349FF
S2140805A06620034CA04702B010BD00BF8D030800AC
S2140805B0913408002DE9F041044688460E4B9847CA
S2140805C0054620460D4B9847054013D00C4C04F1C1
S2140805D0600603E0B4420DD010345DB12068404593
S2140805E0F8D161682942F5D0E3689847636825EA38
S2140805F00305EFE7BDE8F081E1070800E507080016
S214080600F40F0020F8B5184C2668062E29D84FF0A7
S214080610000C6446154F04E00134E4B2A446A64232
S21408062009D3A64625017D598D42F5D107EB041559
S2140806306D689542F0D10D4D4FEA0E1E05EB0E047F
S21408064045F80E106260A3600699E16001366645BB
S21408065004BF05490E6011461A46054B9847002008
S214080660F8BD0120F8BD00BF64100020F40F00207C
S214080670AF07080008B50A210148024B984708BD8D
S214080680000C0E40B505080008B50B210148024BC2
S214080690984708BD000E0E40B505080010B512486C
S2140806A0124B98473E20124B9847124CA0470028FA
S2140806B0FCD04FF08070104B9847104CA04700288D
S2140806C0FCD00F4B98470F4A0F4B9A620F4CA04727
S2140806D00028FCD010200E4B98470E4B984702482F
S2140806E0024B984710BD00BF00D8B805B5000020DB
S2140806F0D1090800F9090800190A0800090A0800BB
S214080700390A0800013F0F2000040E40490A080075
S21408071029090800FD0F08004264B1F1805F16D071
S2140807200BD849B1B1F1006F05D1036F016F0B40CB
S21408073023EA0203036742607047B1F1405FFBD0CB
S214080740B1F1605FF8D0B1F1205FF4D17047036F64
S21408075013430367EFE7416412F0010F14BF4166C5
S214080760016612F00A0F14BF0162416212F0020F0E
S21408077007D112F0080F18BFC0F884104161016055
S2140807807047C0F88010F9E710B4019C416444B97A
S214080790016643B1016542B941630161016010BC5D
S2140807A070474166F5E74165F5E70163F5E712F03E
S2140807B0100F10D0C0F8B01012F0200F14BFC0F8F9
S2140807C0D410C0F8D01012F0400F14BFC0F8C010F4
S2140807D0C0F8C4107047C0F8B4107047016470477A
S2140807E0C06C7047806C7047430903F5001303F22A
S2140807F006735B02DB6B00F01F0023FA00F000F0C4
S21408080001007047430903F5001303F206735B0201
S21408081000F01F00012202FA00F01863704743092F
S21408082003F5001303F206735B0200F01F000122B3
S21408083002FA00F058637047430903F5001303F201
S21408084006735B02996B00F01F020120904001427C
S21408085014BF58631863704770B582B00D464309D5
S21408086003F5001303F206735C0201F0F043B3F1DC
S214080870205F31D016D8B3F1006F1BD0B3F1805F7C
S21408088016D100F01F000126864032464FF08051F0
S2140808902046224B984715F0010F14BF6666266659
S2140808A0012017E0B3F1405F21D0B3F1605F1ED09E
S2140808B000200FE000F01F000126864032464FF069
S2140808C000612046154B984715F0010F14BF666661
S2140808D02666012002B070BD00F01F0101262A46D8
S2140808E006FA01F120460E4B98473046F2E705F027
S2140808F0605200F01F01012605EA06030093C5F3BF
S2140809008003B2F1605F14BF0022012206FA01F1EB
S2140809102046044CA0473046DCE700BF190708000D
S2140809205707080089070800174A136B23F0700357
S21408093018431063936E13F0080F0AD14FF4006340
S21408094011498A6E12F0080F03D1013BF9D1012034
S21408095070470D4A136B23F0030343F00203136337
S214080960936E13F0080F0AD14FF4006306498A6E97
S21408097012F0080F05D1013BF9D10120704700207D
S21408098070470020704700BF00040E40012803D0BF
S214080990054A064B1A607047044A936843F0254395
S2140809A043F480139360F3E7080000A510120E4086
S2140809B0054B5B6913F0800F1DBF044B986EC0F3A0
S2140809C0C0100020704700BF10120E4000040E40F2
S2140809D0084A136A23F0030343F45C1343F0010345
S2140809E0000280B203431362936E13F0010FFBD02C
S2140809F0704700BF00040E40024B986E00F00100DE
S214080A00704700BF00040E40024B986E00F480301A
S214080A10704700BF00040E40064B1B6A30B923F02F
S214080A20807343F45C13034A1362704743F0807381
S214080A30F7E700BF00040E404FF00052014B9A62E1
S214080A40704700BF00040E40024B986E00F002008C
S214080A50704700BF00040E401D280ED81F280ED869
S214080A60094B9A690123834093430AD0012303FA6A
S214080A7000F0054B186100207047012070470020E1
S214080A8070470020704700BF00040E407047000003
S214080A900B4B1B682BB9EFF310833BB10022094BB5
S214080AA01A70074A136801331360704772B6BFF3AB
S214080AB05F8F0022044B1A700122024B1A70F0E76F
S214080AC0681000206C10002024010020074B1A68CC
S214080AD0013A1A601B6843B9054B1B782BB10122F3
S214080AE0044B1A70BFF35F8F62B670476810002019
S214080AF06C10002024010020F0B48CB007460E4687
S214080B0001AC114D0FCD0FC40FCD0FC495E80700EB
S214080B1084E8070001AA002352F8040BB6FBF0F09D
S214080B20B0FBF7F0B0F5807F07D901330B2BF3D174
S214080B304FF6FF700CB0F0BC70470A2B94BF40EA23
S214080B4003204FF6FF70F5E7F889080070B50646EB
S214080B500D460C6844B1896820460C4B98470446F5
S214080B604FF6FF7398420CD0686840B1A968074BE7
S214080B7098474FF6FF73984205D044EA004434601D
S214080B800024204670BD0446FBE700BFF90A0800AB
S214080B9070B40A684B6803F00F038C8A23430C89E9
S214080BA023438C7A43EA44238C7D43EA0443CC7D72
S214080BB043EA44430C7E43EA844300EB4214C4F8F9
S214080BC00032CB68C4F804320B69C4F80C328B7D4B
S214080BD03BB18C8B4B8B43EA044300EB4214C4F8BE
S214080BE01832856C4FF001139340DB431D40CC7FD1
S214080BF004FA02F68C7F944044EA06442C43846444
S214080C00446C234091F8214004FA02F591F82040FC
S214080C10944044EA0544234343640123934091F8EF
S214080C2022401CB3046A1C43046291F82440012C39
S214080C30846E0CBF1C439C43846691F82540012CA7
S214080C40846E0CBF44EA034324EA03438366D20057
S214080C50C46EFF23934024EA030491F8233003FA72
S214080C6002F22243C266002070BC7047046A24EA77
S214080C7003040462D9E7012303FA01F141607047CF
S214080C80012303FA01F1816070470000014B0360FD
S214080C90704700BF050000A50162704730B485683C
S214080CA08468A54203D085688468AC42FBD161B1EC
S214080CB0C4F3015000EB8005C4F3034000EB450085
S214080CC014F4800F18BF0C30086042B1C4F3023128
S214080CD001EB8101C4F3032000EB4101116043B12D
S214080CE0C4F3021202EB820204F00F0404EB42047F
S214080CF01C6030BC70470000F0B4446814F0010F64
S214080D0005D00C293DD90C394FF4800700E00027A0
S214080D101D4CA4FB0356F60806EB8605A3EB450315
S214080D2043EA0613A4FB0265ED0843EA053305EB20
S214080D308505A2EB450543EA05233B43A4FB014290
S214080D40D20843EA025302EB8202A1EB420143EACD
S214080D500141836913F0040FFBD0036843F00103D5
S214080D600360836913F0010FFBD00123C361816020
S214080D70036823F001030360C06A00F00100F0BCBA
S214080D8070470027C4E700BFCDCCCCCCF0B4049E97
S214080D90C568C468A54203D0C568C468AC42FBD120
S214080DA099B1C4F3033000EB8000C4F3032707EBC4
S214080DB04007C4F3021000EB800504F00F0000EBB8
S214080DC04500642505FB0070086042B1C4F3005076
S214080DD081000844C4F3034101EB4001116043B1AC
S214080DE0C4F3017202EB8202C4F3036101EB420210
S214080DF01A6016B1C4F342543460F0BC7047000061
S214080E0070B42A4DA5FB0346F608039C640544EA1D
S214080E10067406EB8606A3EB460344EA0363A5FBC3
S214080E200264E40843EA045304EB8404A2EB440295
S214080E3043EA02421E4BA3FB01439B0942EA031204
S214080E401C4BA3FB01435B09A5FB0364E40804EB06
S214080E508404A3EB44031A43A5FB0143DB0803EB16
S214080E608304A1EB440142EA0122A5FB0315ED0821
S214080E7005EB8505A3EB450542EA0532836913F0C1
S214080E80040FFBD0036843F002030360836913F082
S214080E90010FFBD00123C361C260036823F002037D
S214080EA00360C06A00F0020070BC7047CDCCCCCCA2
S214080EB0D34D62101F85EB51C161704710B489018C
S214080EC04318022444504FF0FF319962196A5A6059
S214080ED010BC7047890105234350704700EB811109
S214080EE04A61704700EB8111CA61704700EB8111B7
S214080EF04A62704700EB8111086A704710B4AC2349
S214080F0003600B684A68B3FBF2F31B095C1E4FF6D6
S214080F10FE7294420BD803628B68436040F2022349
S214080F20C0F8203150230360002010BC7047012011
S214080F30FBE781607047C160704740697047406949
S214080F4000F001007047436913F0010F1DBF836965
S214080F500B700020012070474FF400434360704731
S214080F60FEE7000008B51C4B1C4A9A4210D01C4BE2
S214080F70194A9A420CD2013B9B1A23F00303043306
S214080F801344164951F8040B42F8040B9A42F9D157
S214080F90144B154A9A420AD2013B9B1A23F00303C4
S214080FA004331344002142F8041B9342FBD10F4B31
S214080FB023F0604222F07F020D498A6003F1604305
S214080FC0B3F5404F03D28B6843F000538B60094B50
S214080FD09847094B9847FEE700000020249A080027
S214080FE0D80F002060180020D80F00200000080046
S214080FF000ED00E0FD3C08008D3708003D4B1B6BFC
S21408100003F00303032B0ED8DFE803F0021C38387E
S214081010394B5B6913F0800F14BF4FF400424FF44E
S214081020FA42364B1A60334B1B6B03F07003702B77
S21408103057D0304B1A6B3149C2F302120B68D340B3
S2140810400B6070472B4B1B6A13F0807F03D02C4A2B
S2140810502A4B1A60E7E72B4A284B1A60254B1B6A6F
S21408106003F07003102B05D0202BDCD1244A234B29
S2140810701A60D8E7244A214B1A60D4E71D4B1B6A2E
S21408108013F0807F0CD01E4A1C4B1A60194B1B6B42
S21408109003F00303022B16D01C4A184B1A60C2E74B
S2140810A0184A164B1A60134B1B6A03F07003102B72
S2140810B005D0202BEAD1124A104B1A60E6E7124AEE
S2140810C00E4B1A60E2E70B4A916A926A0B48C1F324
S2140810D00A41036801FB0333D2B2B3FBF2F30360A1
S2140810E0A1E7064A13680A49A1FB03135B081360C5
S2140810F0704700BF00040E4010120E402801002062
S214081100001BB70000093D0000127A00001C4E0EB6
S214081110ABAAAAAA0A4B1B6853B1094B1B681A1834
S2140811200849914208DB1046054A10601846704781
S214081130054A034B1A60F0E74FF0FF30704700BFD0
S21408114070100020FC3F0820004008202DE9F041E0
S21408115084B00391642800F0DC80662840F0238180
S2140811609DF80D709C4C9DF80C303A469B492046DD
S2140811709B4DA847214667209A4CA0479A49672066
S214081180A0479A4D29466720A0470E20984B9847B7
S214081190002840F0C98097496720A047964C21460A
S2140811A06720904EB04795496720B0472946672084
S2140811B0B0470F208E4B9847002840F0BA808D49DC
S2140811C06720B04721466720DFF81882C0478C4959
S2140811D06720C0478B4E31466720C0471020844B97
S2140811E09847002840F0AA8082496720C0472146D1
S2140811F06720DFF8F081C04783496720C04731463B
S2140812006720C04711207A4B9847002840F09B80FB
S21408121078496720C04721466720DFF8C881C0475D
S2140812207A496720C04731466720C0471820704B68
S2140812309847002840F08C806E496720C0472146B2
S2140812406720DFF8A081C04771496720C04731464C
S2140812506720C0471920664B984700287DD1654906
S2140812606720C047214667205E4EB0476949672019
S214081270B04729466720B0471A205D4B9847002894
S21408128070D15C496720B04721466720554EB04765
S21408129061496720B04729466720B0471B20544B52
S2140812A09847002863D153496720B04721466720EE
S2140812B04C4EB04759496720B04729466720B04783
S2140812C01C204B4B9847002856D14A496720B04700
S2140812D021466720434EB04751496720B047294604
S2140812E06720B0471D20424B9847002849D14149FE
S2140812F06720B047214667203A4B98479DF80C3040
S214081300013B042B00F2A180DFE803F04050575E53
S214081310980044496720334B9847039B1B029BB2AF
S21408132043F0010303931BE73F4967202D4B98477B
S21408133034E73D4967202B4B984743E73A496720EF
S214081340284B984753E738496720264B984762E763
S21408135035496720234B984771E733496720214B67
S21408136098477FE7304967201E4B98478CE72E49F9
S21408137067201C4B984799E72B496720194B9847D5
S214081380A6E729496720174B9847B3E72020274B3D
S21408139098474FF47A730093039B013366222449D7
S2140813A01046244CA04704B0BDE8F0812020224B0C
S2140813B0984721201D4B9847EBE721201E4B98475E
S2140813C022201A4B9847E4E722201B4B98472320F5
S2140813D0164B9847DDE700BFA8120020448A08008D
S2140813E0E93D080055320800548A0800608A08005B
S2140813F0E9070800648A0800A08C08006C8A0800C0
S214081400788A08007C8A0800848A0800888A080087
S214081410908A0800948A0800A48A0800B08A0800FF
S214081420C08A0800308A0800688A0800050808008C
S2140814304D110800913408001F0808002320134B9C
S21408144098472420124B9847A3E720200F4CA04724
S2140814502120A0472220A0472320A0472420A047D9
S21408146027B1013FFFB28DF80D7027B909496720EB
S214081470094B984797E700230093039B1B0A6422AF
S21408148006496620064CA047F0E700BF1F0808007C
S21408149005080800D08A0800553208004D110800D3
S2140814A09134080010B542F2166398421ED01C49C3
S2140814B000201C4B98470446A8B11B4B984701468A
S2140814C020461A4B984742F21663984220D012D903
S2140814D043F22B13984217D04CF29863984202D1E5
S2140814E06520134B9847134B984710BD1249672041
S2140814F0124B984710BD40F234639842F3D100214E
S21408150066200B4B9847EEE735200D4B9847EAE7E1
S21408151009496720094B984730200A4B9847E2E765
S214081520448B0800FD360800353E080019170800E9
S214081530811C0800B9360800308B080055320800B0
S214081540050808001F08080070B590B05749002025
S214081550574B9847002800F094800446554B984708
S21408156001462046544B984743F22B13984200F006
S214081570938051D840F23463984200F0868042F255
S214081580166398427DD14D4B984748490020484BF2
S21408159098474B4B98470646002872D0494967201B
S2140815A0494CA047494D324649492846494B984731
S2140815B029466720A0474FF080513020464B984771
S2140815C0464B03AD93E8070085E807001920444B0F
S2140815D09847444C03212046434B984729462046C3
S2140815E0424B98470C23079364230A9332230993A4
S2140815F0032510A941F8285D20463D4B9847294603
S21408160020463C4B98470096002342F216623A4919
S21408161066203A4CA04734E04CF29863984221D0B2
S2140816204DF62E4398422CD1244B98471F4900204C
S2140816301F4B984700282DD0214B98470446234D2A
S21408164002462F492846234B9847294667201E4BB3
S214081650984700230093234664222A496620274C8D
S214081660A0470EE06520284CA0476420A047012329
S214081670022226496720A04704230322244967201C
S214081680A0470E4B984710B070BD012166201E4B30
S2140816909847F6E70124DCE74FF0605135200E4BFB
S2140816A0984735201B4B9847EBE700BF448B08004C
S2140816B0FD360800353E080019170800B936080038
S2140816C0F53C0800108B080055320800A8120020C8
S2140816D0248B0800E93D080059080800248A0800F9
S2140816E0590A080000C00840810C08004D0B080085
S2140816F0910B0800770C0800A51408009134080020
S214081700008B08004D110800811C0800A8870800F7
S214081710BC8708001F08080089B110B441184FF6A6
S214081720FF72094C10F8013B5340DBB254F82330E3
S21408173083EA12228142F5D1104610BC70474FF654
S214081740FF721046704700BF2C0100204840C0B208
S214081750024B53F8200080EA112070472C01002025
S2140817600FB42DE9F84F72B6BFF35F8F0022654BB2
S2140817701A704FF060513320634B98474FF00508B6
S214081780624C634F31E03320624B98476248A0476B
S2140817903320624B984748E033205E4B98475E48B4
S2140817A0A04733205D4B984757E03320594B98475E
S2140817B05948A0473320594B984767E03320554B84
S2140817C098475548A0473320544B984779E033202C
S2140817D0504B98475048A0473320504B984750489E
S2140817E0A047B8F1010800F086803320494B984797
S2140817F04C48A0473320494B98474B48A047DDF84C
S2140818002890B9F1090FBED9A7FB0923DB085E00AB
S2140818105BB10025DFF820B1DFF820A13320D847D8
S2140818205046A0470135B542F8D13F48A047A7FB28
S2140818300936F60806EB8606B9EB4606ACD07600FF
S2140818400BD00025DFF8F0A0DFF8F0903320D04763
S2140818504846A0470135B542F8D13148A047DDF8DB
S2140818602C90B9F1630FA0D9304BA3FB09235B0971
S2140818705E005BB10025DFF8C0B0DFF8C0A03320FB
S214081880D8475046A0470135B542F8D12648A04764
S214081890A7FB0923DB08A7FB0326F60806EB860644
S2140818A0B3EB46068AD076000BD00025DFF888B062
S2140818B0DFF888A03320D8475046A0470135B54200
S2140818C0F8D11948A047A7FB0936F60806EB86069E
S2140818D0B9EB46063FF47BAF760080D00025DFF8EC
S2140818E058A0DFF858903320D0474846A04701351F
S2140818F0B542F8D173E70E480E4B9847BDE8F84F47
S21408190004B0704724010020590808000100002090
S214081910CDCCCCCC0508080093F29C001F08080024
S214081920B7A1680025E5390193B453001F85EB512C
S21408193000120E408D0C08003908080025ED14002A
S2140819400FB4F0B587B00C99642921D014D80129B2
S21408195000F00E81002900F0BB80022913D10F9BEE
S2140819601A1F052A40F24881032B00F01B810A2B18
S21408197000F02D810024D1E0672940D0682900F0C6
S2140819808D8066291AD00E209E4B98470024C5E005
S21408199000209D4B98479D4CA0470028FCD09C4BA8
S2140819A00421C3F88010C3F88011102283F802239C
S2140819B019609848984B98470024AFE00F9B0E9AFA
S2140819C00D999448954CA04704460C90002840F082
S2140819D0A580934B9978DA78043B9B7803F03F030D
S2140819E0009301F01F0302F03F0249090220FFF7A7
S2140819F0A7FF8C4B1A7860F382021A708EE00E9C52
S214081A00631E0B2B02D94FF0FF3487E00D9F864AE2
S214081A10D55C0F9E31460120FFF792FF2844874287
S214081A2002D94FF0FF3479E0A6F26C73C72B02D9BF
S214081A304FF0FF3472E07D4DA5FB06356D09642333
S214081A4003FB1565632D02D94FF0FF3466E0334675
S214081A50224639460020FFF773FF00903B46224691
S214081A6029466C48724CA04704460C90002855D16D
S214081A706B4B9978DA78043B9B7803F03F03009326
S214081A8001F01F0302F03F0249090220FFF758FF42
S214081A90644B1A7860F382021A703FE002AB009338
S214081AA003AB04AA05A95B48624CA047029B013B0E
S214081AB0614A52F82320059B0193049B013B5F492A
S214081AC051F823300093039B5D490D985D4CA04761
S214081AD00E99022928D90F980D9A8318023303EB1A
S214081AE09003524AA2FB002003EBD01301EB4102FD
S214081AF0C1EBC2025449A1FB021203EB5203A3EB4B
S214081B005013524AA2FB0312991A02EB510292088A
S214081B10C2EBC2029B1A01330C930C9C204607B0FA
S214081B20BDE8F04004B070470F9A501E0D9B134452
S214081B30043301EB4102C1EBC2024349A1FB021286
S214081B4003EB520303EB9003384AA2FB001203EBA5
S214081B50D213A3EB52133D4AA2FB0312991A02EBC7
S214081B6051029208C2EBC2029B1A01330C93D4E7C7
S214081B700D9B13F0030F07D12C4AA2FB0312520940
S214081B80642101FB12325AB9284CA4FB0324E40949
S214081B904FF4C87202FB1434B4FA84F46409BDE73F
S214081BA00124BBE70E9C182C28D90D9A012A08D0C8
S214081BB0183C64B252B2A41A002CD4BF00240124E4
S214081BC0ACE7109C012C94BF00240124A6E70E9CC9
S214081BD0182C15D90D9A012A08D0183C64B252B2AE
S214081BE0A41A002CCCBF0024012497E7109C012CD3
S214081BF08CBF0024012491E701248FE700248DE799
S214081C0000248BE7611708008D090800B109080051
S214081C1000E100E060120E40990C0800F90C08007C
S214081C206C120E40BC100020588B08001F85EB5124
S214081C30010E08008D0D08002C0500204805002020
S214081C40488B0800E93D0800398EE3382549922478
S214081C5010B582B004210648064B98470023009327
S214081C60042205496620054CA04702B010BD00BFF7
S214081C7060120E40B90E0800C12008009134080012
S214081C800FB438B504994B1E672B00F2F481DFE8D1
S214081C9013F0010151015B016501770183018F0192
S214081CA0F7019D01CF01F201F201F201F201F20102
S214081CB0F201F201F201F201F201F201F201F2017F
S214081CC0F201F201F201F201F201F201F201F2016F
S214081CD0F201F201F201F201F201F201F201F2015F
S214081CE0F201F201F201F201F201F201F201F2014F
S214081CF0F201F201F201F201F201F201F201F2013F
S214081D00F201F201F201F201F201F201F201F2012E
S214081D10F201F201F201F201F201F201F201F2011E
S214081D20F201F201F201F201F201F201F201F2010E
S214081D30F201F201F201F201F201F201F201F201FE
S214081D40F201F201F201F201F201F201F201F201EE
S214081D50F201F201F201F2016800B700F600E100B4
S214081D60DC000920FFF78CFF4FF040510420A94CF7
S214081D70A0474FF040510520A0474FF0405106209D
S214081D80A0474FF040510720A0470420A24CA04788
S214081D900620A0470520A0470720A04B9847A04844
S214081DA0A04CA04730210220FFF76AFF4AF2B7008E
S214081DB0A04730210220FFF763FF43F29350A04765
S214081DC030210220FFF75CFF43F29350A0473821EA
S214081DD00220FFF755FF08210220FFF751FF0121D7
S214081DE00220FFF74DFF06210220FFF749FF0C21CE
S214081DF00220FFF745FF01228B4B1A60002440E1C2
S214081E0008210220FFF73CFF0A20FFF739FF4FF0B2
S214081E10405104207F4CA0474FF040510520A04772
S214081E204FF040510620A0474FF040510720A047EA
S214081E300420794CA0470620A0470520A047072085
S214081E40A0470024784B1C601BE1774B1C6804F005
S214081E50010416E1079A06990720FFF711FF059C6B
S214081E602178002900F012810325013405942846BC
S214081E70FFF706FF21780029F7D1002401E1059C29
S214081E8024B10720654B98470024FAE00720624BE8
S214081E909847F6E00920FFF7F3FE05205E4B9847C3
S214081EA00520FFF7EDFE059C14F0800F4FF00300A9
S214081EB014BF5A4B584B9847E4B214F0400F4FF0F3
S214081EC0020014BF554B544B984714F0200F4FF0A0
S214081ED0010014BF514B504B984714F0100F4FF0A9
S214081EE0000014BF4D4B4C4B984714F0080F4FF0AA
S214081EF02B0014BF494B484B984714F0040F4FF07B
S214081F002A0014BF454B444B984714F0020F4FF075
S214081F10290014BF414B404B984714F0010F4FF06F
S214081F20280014BF3D4B3C4B98470620FFF7A8FEF9
S214081F300024A6E00620384B98479DF81410012088
S214081F40FFF79EFE00249CE00620344B98479DF839
S214081F5014100120FFF794FE002492E040F6655026
S214081F60304CA04704202D4B984740F2AE20A0479F
S214081F700420294B984740F66550A047002480E087
S214081F8040F66550274CA0470420244B984740F25B
S214081F905710A047002474E040F25710214CA04781
S214081FA004201D4B984740F66550A047002468E07B
S214081FB0059B03F003031D4AD15C069B194441F0B8
S214081FC080010220FFF75CFE00245AE04FF04051E3
S214081FD00020104CA0474FF040510120A0474FF07A
S214081FE040510220A0474FF040510320A0474FF031
S214081FF040512820A0474FF040512920A0474FF0D5
S21408200040512A20A0474FF040512B20A0470024DB
S21408201037E000BF590808001F0808000508080030
S214082020DC50340001000020C0100020148C08008A
S2140820304FF020510020164CA0474FF020510120A9
S214082040A0474FF020510220A0474FF02051032010
S214082050A0474FF020512820A0474FF020512920B4
S214082060A0474FF020512A20A0474FF020512B20A0
S214082070A047002405E00F20064B9847002400E000
S21408208000242046BDE8384004B070470024F8E72E
S214082090590808006117080008B5C0F11400054B78
S2140820A098474FF07C51044B9847044B9847C0B26A
S2140820B008BD00BF65390800153A0800B53C080099
S2140820C00FB42DE9F04387B00E99042900F0A180DB
S2140820D040D9062954D062D3072900F0EB85642935
S2140820E040F068869D4B00249C615C611C77022248
S2140820F01A8064209A4B98474FF060513420994DC7
S214082100A8474FF060513320A8473320964B98478E
S2140821106420964B98476420954B9847954E0094B4
S2140821204FF0FF33012231466620934DA8470094AE
S2140821302346042231466620A84700942346642294
S2140821408E496620A847A046404607B0BDE8F0433B
S21408215004B07047022900F0A68000F23C830129EB
S21408216040F028860F9B01330F93854A52F82320A8
S214082170002A3BD100230F9334207B4B98473BE043
S214082180109B1A784AB19DF83C108A4205D0013354
S21408219010931A780AB18A42F9D19046D4E7DDF846
S2140821A0408008F1FF331093B8F1000FCCD0754E7D
S2140821B066256F4C0F9B1B781B09F15C2846A047C9
S2140821C00F9B1B7803F00F03F15C2846A0472021DD
S2140821D02846A0470F9B01330F93DDF8408008F18F
S2140821E0FF331093B8F1000FE4D1ADE713F0010FF9
S2140821F0C2D03420644B98470F9B614A52F823207C
S214082200009201225B4966205B4CA0474FF000080D
S2140822109AE705AB0FAA0EA95C485D4CA0474F4B42
S2140822201B8813F0040F30D068204D4B9847804623
S214082230002889D00EAD55F8042B564C06AE56F835
S214082240043D00930F9B54492046DFF85C81C04745
S2140822500623012221466720414FB84704AB009366
S21408226033462A460EA949484C4DA8470E9B00936C
S2140822700F9B059A4A492046C04705230022214657
S2140822806720B8474FF000085EE7424C059B00936E
S2140822900F9B0E9A43492046434DA8472146672080
S2140822A0334B9847C0E72D4B1B7F062B00F28582E1
S2140822B0DFE813F00700840087009B006C026F02BB
S2140822C0BC010F9AD3B2083B182B2DD8DFE813F0C1
S2140822D07905790579052C002C0079052C002C0049
S2140822E02C002C002C002C002C002C002C002C0081
S2140822F02C002C002C0019002C002C002C002C0084
S2140823007905164C1423A361284BA3601B2003F8F9
S214082310010C0125E5814FF6FF71254B9847208271
S21408232025774FF000080FE70C4C238843F004038A
S2140823302380002565611F4B636003F8012C012389
S214082340A3811D4967200A4EB0479DF83C106620B9
S214082350B04703232377A846F6E600BFC811002037
S214082360811C0800590808001F08080041190800C1
S21408237055320800C1200800913408008D03080073
S214082380D08C0800E48C08000508080060120E408F
S2140823909D0C080068120020288C08008D0D080087
S2140823A0388C0800188C0800E93D0800E911002060
S2140823B04D170800C5100020488C08000222914BD3
S2140823C01A77904C1423A361A3685A1CA2600F9A2C
S2140823D01A70E3890133E381218A9DF83C008A4B11
S2140823E0984720824FF00008AEE60022854B5A61D7
S2140823F00F9AD1B2A1F10803132B00F29480DFE8FC
S21408240003F0361E749292749292929292929292DC
S21408241092929292920A7B4C1423A3617B4BA36000
S2140824201B2003F8010C0123E3814FF6FF71764B5E
S21408243098472082042323774FF0000884E6744BDD
S21408244093E803000290ADF80C10090C8DF80E10F6
S214082450704B1860BDF80C209A806A4B0622DA8109
S21408246005221A7701229A614FF000086CE6654B40
S2140824709A89002A00F0A984674C22440E925B6869
S21408248005939A4208D91A7803F8012C059B01335C
S21408249005930E9A9A42F6D8202203F8012C5F4D2F
S2140824A0294667205E4EB047564A51680139516042
S2140824B09389013B9BB29381621C1A44521A682086
S2140824C0B0478046431E059300283FF43DAE672676
S2140824D0534C29463046A047DDF8148008F1FF33F0
S2140824E00593B8F1000FF4D12EE6464B9B896BB9DD
S2140824F0444B1A8822F004021A804FF0000883F82A
S2140825001C800D216620464B98471DE606223D4B4B
S2140825101A77002400940D23022242496620424D71
S214082520A847A04610E6D2B2364B9B8983B9202A24
S21408253000F04F84334C6368581C60601A7066203D
S214082540374B9847A3890133A3814FF00008FBE572
S214082550FF2B00F251842B48008810F0010F12D18F
S214082560284840682C4C1C44A04202D10133254C14
S214082570A381441C234B5C6002706620284B984756
S2140825804FF00008E0E51F4A5168234A1A44914272
S2140825900FD0214A13440E935A1E914209D819495E
S2140825A012781A700E9A531E0E93023A4868904292
S2140825B0F6D9144C63685A1C62600F991970C9B230
S2140825C06620174DA847A38901339BB2A38161688B
S2140825D0114A1A44521A6820A8478046431E0E938A
S2140825E000283FF4B1AD0D4E67250D4C3146284600
S2140825F0A047DDF8388008F1FF330E93B8F1000FD6
S214082600F4D1A1E5C81100204D170800E9110020F3
S214082610C88C0800E8110020C41000204C8C080064
S21408262055320800C1200800913408008F4A938963
S21408263052688F49521A9B1A5A1E059253B18D4EEC
S21408264067258D4C31462846A047059B5A1E05929D
S214082650002BF7D1854DAA89854C131901336B6079
S214082660002616550720FFF72BFDAA8913190133F4
S2140826706B601655814967207F4DA847214667201D
S214082680A8477F4B98477F4920467F4B9847044684
S2140826900E9068B97D496720774B9847734B4FF083
S2140826A0000883F81C801A8822F004021A804BE57A
S2140826B0774B984701462046764B984781B26B4B36
S2140826C019820596744B1B88F3B199421ED00123D4
S2140826D0714A00E02B4632F8334024B15D1CA14213
S2140826E0F8D1059300E005936B4C04EBC3035D68D3
S2140826F075B10E9C2046664B9847611C01445B48A2
S214082700A847664B9847C5E70023EDE70023EBE7A5
S21408271000230593624B1B8813B3994222D00123EA
S2140827205F4C00E02B4634F8332022B15D1C914202
S214082730F8D1059300E00593594901EBC3035D689A
S21408274095B10E9C2046524B9847611C0144474859
S214082750A847524B98474D496720474B984799E7F3
S2140827600023E9E70023E7E7404B1B8813F0020F36
S21408277090D04C4C82B24C4920464C4B9847214648
S21408278067203D4B9847454B984783E70522374BCC
S2140827901A77364C1423A361A3685A1CA2600F9AB2
S2140827A01A70E3890133E381218A9DF83C00404B87
S2140827B0984720824FF00008C6E43E4967202E4B13
S2140827C098472A4B4FF0000883F81C801A8822F096
S2140827D004021A80B8E4254B9B69B3B103F1FF38AD
S2140827E0224BC3F81880B8F1000F0ED1197F0529BF
S2140827F000F25C82DFE811F00900060016005A02B3
S2140828008B0097000022194B1A77184BD3F81480C0
S214082810B8F1000F3FF498AC08F1FF325A614FF058
S214082820000891E4114CE18923481A4B984780B276
S21408283020824CF2F57398420CD04CF2FA73984208
S2140828400CD00A4B1B8813F0020F4CD10022074B02
S2140828501A77DAE70022054B1A77D6E7034B9B89E7
S21408286063BB0022014B1A77CFE700BFC8110020D0
S214082870C4100020508C080055320800548C0800FC
S214082880D1360800448B0800FD360800A08C0800E6
S214082890353E080019170800E88A0800B936080007
S2140828A0F08F0800681200205C8C0800E93D0800DC
S2140828B04D170800748C0800E8110020994C2288EF
S2140828C042F00402228000226261974E334463601D
S2140828D096496720964DA847A28931466820A8479A
S2140828E00323237791E793496720914CA0478D4EA1
S2140828F0F28991490520FFF7E3FB904D328A90490B
S2140829002846904B984729466720A0479EE78E4959
S2140829106720874B9847834B00221A771A8822F03D
S21408292004021A8071E77F4CE1898348874B9847F1
S21408293080B220824CF23A13984200F00F8134D8C5
S21408294045F2E233984200F0E2801ED840F2BB53CC
S214082950984200F01E8140F27B6398421ED1714A6D
S214082960938971490B4452689A4207D2784967207E
S2140829706F4B98476B4A536801335360694B002284
S2140829805A6103221A77FFF7DFBB46F60E739842A2
S21408299034D04AF64F53984200F04A81614B0022E1
S2140829A05A6103221A77FFF7CFBB4CF2BA639842F4
S2140829B064D01BD84CF2E333984272D04CF23A43B8
S2140829C09842EBD1574B5A68574B9A4207D96149F8
S2140829D06720574B9847534A5368013B5360514BFF
S2140829E000225A6103221A77FFF7AEBB4CF2F57342
S2140829F098424FD04CF6BA439842CFD1494B9B8960
S214082A002BB1494A1344474A52689A4215D0454B57
S214082A105B68591E444A914217D34F4C224613F816
S214082A20011C0620FFF74CFB78B13E4B5B6822463C
S214082A3019780620FFF744FB38B93A4A5368013B31
S214082A405360444967203A4B9847434D354B5B687B
S214082A502A4619780620FFF733FB002840F0CB807B
S214082A60304B5B68591E304A914280F0DD802D4B12
S214082A7000225A6103221A77FFF766BB324967209D
S214082A802B4B9847274B1A8822F004021A800022FC
S214082A901A77BAE6234B00225A6103221A77FFF701
S214082AA053BB204A536801330E931F4992890A4440
S214082AB093420AD21B481A7803F8012C0E9B01335E
S214082AC00E9382890A449A42F5D8202203F8012CEC
S214082AD0144B59680E9A521A6820154B9847431E8D
S214082AE00E9350B11B4E6725114C31462846A04719
S214082AF00E9B5A1E0E92002BF7D10A4B9A89013A62
S214082B009A8100225A6103221A77FFF71DBB054BEC
S214082B101A8882F001021A8000225A6103221A7764
S214082B20FFF712BBC8110020C4100020A08C0800B4
S214082B3055320800A48C0800E8110020681200200E
S214082B40B48C0800E93D0800C08C08001917080076
S214082B50508C08004C8C0800F88C08009F4B5B686B
S214082B609F4A9B1A5A1E0E9253B19E4E67259E4C3C
S214082B7031462846A0470E9B5A1E0E92002BF7D1C8
S214082B80964B974A5A6000225A6103221A77FFF733
S214082B90DBBA924A938992490B4452689B1A5A1E8A
S214082BA00E9253B1914E67258F4C31462846A04762
S214082BB00E9B5A1E0E92002BF7D1884B9A8988498D
S214082BC00A445A6000225A6103221A77FFF7BCBAF1
S214082BD0013B636031466720834B984763682A4603
S214082BE019780620FFF76CFA00283FF439AF6368B7
S214082BF0BB42EDD834E7794C794F7A4EEEE76368F6
S214082C00013B636039466720B0476368591E744ABB
S214082C109142FFF42CAF2A4613F8011C0620FFF752
S214082C204FFA0028EBD022E76C4C6E4F6E4EF2E758
S214082C306F4D6A4B5B682A4619780620FFF740FAFC
S214082C40B8B1664C664F694E1DE001336360314685
S214082C506720654B984763682A4619780620FFF769
S214082C602FFA0028EDD16368A2893A449342ECD340
S214082C70E7E75A4C5A4F5D4EEDE70133636031463D
S214082C806720594B984763682A4619780620FFF745
S214082C9017FA20B16368A2893A449342EDD34F4BA2
S214082CA000225A6103221A77FFF74EBA1F20514BAB
S214082CB09847AAE54A4D0E954D4E062432460E9B79
S214082CC019782046FFF7FCF9804618B10E9B0133A9
S214082CD00E93F3E70E9B5A1B05929AB13F4A40495A
S214082CE0516092892A4493420CD23C494A68501C47
S214082CF04860581C0E901B7813700E9B8A892A44CD
S214082D009A42F3D805996B180E93344A93895B1A3E
S214082D1093811446062704E0A3892B440E9A93420F
S214082D2014D80E9BA2892A449A427FF60DAA3246E8
S214082D3019783846FFF7C4F90028EDD10E9B013301
S214082D400E93A2892A449A42F1D8EAE702F10109C9
S214082D50CDF83890C4F804904B4588BF4B460CD93C
S214082D60324619783846FFF7ABF930B10E9B013377
S214082D700E93A2892A449A42F2D80E9B6168591A81
S214082D80059189B1A2892A4493420DD26268511CE2
S214082D906160591C0E911B781370059921B10E9B22
S214082DA0A2892A449A42F1D8A389591AA181CDF852
S214082DB03890B6E70D200F4B98474FF00008FFF7FE
S214082DC0C3B94FF00008FFF7BFB94FF00008FFF788
S214082DD0BBB94FF00008FFF7B7B900BFC81100200D
S214082DE0C41000204C8C080055320800508C08008F
S214082DF0F88C0800611708004FF00008FFF7A4B920
S214082E0038B5054608460A490A4B984770B104463D
S214082E10094B984701462046084B984745F2E57304
S214082E20984203D12B8843F002032B8038BD00BF9D
S214082E30448B0800913E0800353E08001917080024
S214082E4038B5054608460A490A4B984770B10446FD
S214082E50094B984701462046084B984745F2E573C4
S214082E60984203D12B8823F002032B8038BD00BF7D
S214082E70448B0800913E0800353E080019170800E4
S214082E8038B50D4603496720034CA04729466720F6
S214082E90A04738BD308E08005532080008B50249EC
S214082EA06720024B984708BD048D08005532080075
S214082EB070B53A4900203A4B9847002856D0044641
S214082EC0384B984701462046374B984747F22733F2
S214082ED0984204D04EF2A913984224D070BD3349C4
S214082EE000202F4B9847C0B1314B9847C4B22F49A2
S214082EF000202B4B984790B12D4B9847C5B22B49CD
S214082F000020274B984760B1294B9847C3B22A46FA
S214082F1021466620274CA04770BD0024E7E7002519
S214082F20EDE70023F3E7214900201D4B9847F0B151
S214082F301F4B9847C4B21D490020194B9847C0B18B
S214082F401B4B9847C5B219490020154B984790B1B6
S214082F50174B984786B218496720184B9847334648
S214082F602A4621466720134CA04730B170BD00247E
S214082F70E1E70025E7E70026EDE7114D294667203B
S214082F800E4CA0470F4E314668200A4B98473146EC
S214082F906720A04729466720A047E7E7448B080034
S214082FA0FD360800353E080019170800208E080070
S214082FB0F53C080041190800288E0800553208001C
S214082FC0A08C0800A812002010B508461549164B14
S214082FD0984700B910BD0446144B9847014620464A
S214082FE0134B984780B248F66203984212D048F6C8
S214082FF08B33984208D041F2522398420ED021468D
S21408300013200C4B9847E5E765200B4CA047692032
S214083010A04710BD6620084B984710BD6B20064B8E
S214083020984710BD448B0800913E0800353E0800BE
S21408303019170800611708008D03080070B582B0DC
S21408304004460D46038843F0040303800E4E0A46E2
S2140830500E4930460E4B9847314667200D4B984729
S21408306035B90D4B013BFDD10C480D4B9847FEE793
S2140830704FF47A7300936B1E22460A4966200A4C60
S214083080A04702B070BD00BFA8120020F88D080047
S214083090E93D080055320800A086010000120E40DF
S2140830A08D0C08003D3008009134080010B582B039
S2140830B00446038843F0040303800846054B9847F4
S2140830C0002300930346224603496620034CA04784
S2140830D002B010BDF53C08003D30080091340800E9
S2140830E02DE9F0438BB001A94448454B984745491C
S2140830F06720454CA047019A013AD2B2434F413265
S21408310043493846434B984739466720A0474249C3
S2140831106720A047029A414B53F822106720A04721
S2140831203F4E31466720A0473E496720A0473E4DA0
S214083130039B55F823106720A04731466720A04711
S2140831403A496720A047049B55F823106720A047F4
S21408315031466720A04736496720A047059A354B71
S21408316053F822106720A04731466720A0470699E3
S214083170192938D0304B002401341A7B12B10C338D
S2140831808A42F9D12D4967201F4DA847DFF8A88045
S2140831904FEA440909EB040308EB830359686720E0
S2140831A0A84727496720A8474C4408EB8408D8F85E
S2140831B008106720A84731466720A8472149672096
S2140831C0A847079A204B53F822106720A84731468D
S2140831D06720A847089B43B91C4967200A4B9847AD
S2140831E00BB0BDE8F0830024CCE7099A18490748D5
S2140831F0084B984739466720A847EDE740070E4032
S214083200F90108000C8D080055320800A8120020A5
S214083210488D0800E93D0800588D0800780500200C
S214083220A08C0800648D080098050020708D0800A2
S2140832307C8D0800EC050020408E0800888D08006C
S214083240948D08009C8D0800D8050020BC8D0800C9
S214083250A88D08000FB4F8B50699A1F16403042BED
S21408326000F2B580DFE813F00500B3003A00590015
S2140832708600594B594A1A605A600820584B984796
S2140832804FF000610C20574CA04757490B20A04729
S21408329056495748574B984738B94FF48072564B9B
S2140832A01A60534C554E564F06E01820554B984713
S2140832B0F3E706A92046B8472046B0470546002843
S2140832C0F7D14B4C2046504B9847012120464F4B90
S2140832D098472846BDE8F84004B070473E4B1A6841
S2140832E0511C1960079911701A68494B9A4203D302
S2140832F0A3F50072384B1A60374B1A685B689A4217
S21408330006D04FF400713A48404B98470125E0E74D
S214083310002117203B4B9847F3E700230693079BAB
S21408332019461A78FAB12C4C394E314D2268501C81
S2140833302060013307930B781370069B01330693BE
S2140833402368B34224BF254B2360226863689A42E9
S2140833500BD04FF4007128462C4B9847079B19460C
S2140833601A78002AE2D1069DB3E700211720254BDC
S2140833709847EEE700230693089B0BB3164C244E9B
S2140833801B4D23685A1C2260079A511C0791127815
S2140833901A70089B013B0893069B01330693236823
S2140833A0B34224BF0D4B2360226863689A4209D053
S2140833B04FF400712846154B9847089B002BE0D120
S2140833C0069D86E7002117200E4B9847F0E70C204D
S2140833D00C4B984700257CE7A8130020B013002064
S2140833E0590A0800590808000100000868970800EC
S2140833F000060E40FD0E080000E100E03F0F080042
S214083400470F0800611708003B0F0800330F080035
S214083410B015002010B582B01648174B98470446DA
S21408342010F4007F11D0154A53681268934211D0E1
S2140834305A1C12494A6019780E4BD961104B9A42A9
S21408344003D3A3F500720D4B5A6014F0010F07D191
S21408345002B010BD4FF4007106480A4B9847F4E7CF
S214083460044B9B6900220092022207496620074CFB
S214083470A047EDE700060E403B0F0800A813002003
S214083480B0150020370F0800C12008009134080046
S2140834900FB4F0B583B00899642928D01ED96629D8
S2140834A06BD0672940F0CD80684B9847684A5368C8
S2140834B01268934200F0AE801D685C6808949E68A7
S2140834C01033644A9342C0F0A280634A604B5A6045
S2140834D0624B984731462046A84748E0012940F005
S2140834E0B080002508955E4C2F4666269AE0584B15
S2140834F0594A1A605A605A4B03F5A0710022DA60DE
S21408350010338B42FBD1574B02221A665A655A6211
S214083510C3F88020196F21F0020119675A60162037
S214083520514B9847514C524A00212046514B9847D8
S21408353040F2EE22002120464F4B984740F20D22DB
S214083540002120464D4B9847002120464C4B984773
S2140835504C4B4FF48002C3F88020C3F8802100212A
S21408356083F816131A6004222046474B9847002013
S21408357003B0BDE8F04004B07047344B98470C9D44
S21408358045B300230893364BDB68A3B101230893A1
S214083590334A00201C46D16951B101331032204607
S2140835A0142BF8D100211620384B9847142302E034
S2140835B070B9142BF6D02A491B01CA180998C850A6
S2140835C00A9B53600B9B9360D560244B9847CEE7C5
S2140835D00893EEE71E4B1A68099911601B680A9A49
S2140835E05A600B9A9A6010331A4A93420BD2184ABA
S2140835F01360174B1A685B689A42E6D100211520BB
S214083600224B9847E1E7144A114B1A60F1E7104A33
S21408361053605DE7114B9847A9E7013508951034C4
S214083620142DA4D0E368002BF7D0013BE360002BF1
S214083630F3D1A3686268216800973046FFF728FF31
S214083640EBE70B20114B984791E700BF910A08005B
S214083650F0160020F0160020B0150020CD0A08004D
S214083660F8160020000C0E40590A08000000084012
S21408367003C00900BD0E0800E50E0800DD0E0800B0
S214083680D50E080000E100E0ED0E080061170800FE
S21408369008B500210448054B98470120044B984775
S2140836A00320044B984708BD00000840F50E0800A4
S2140836B091340800C1200800034B1B6813B1034A65
S2140836C012781A70704700BF781000207410002017
S2140836D00023024A1370024A1360704774100020D1
S2140836E0781000200B783BB1984205D011F8013FBE
S2140836F013B18342FAD10346184670472DE9F843BA
S21408370000282BD01D4A10601C4B1D682C78002CF6
S21408371030D088461A4E194F41462046B04720B149
S21408372001353D602C78002CF6D1164B1D602C78A0
S214083730F4B12E46124FDFF84C9041462046B84763
S21408374028B90136C9F800603478002CF5D10E4B3C
S2140837501C70002333702846BDE8F883094B1D68A3
S214083760002DF8D0084B1B782B70044B1D60CBE758
S2140837702E46ECE7034B1D602E46E8E77C1000203B
S214083780E5360800781000207410002000B583B0D5
S21408379072B6BFF35F8F104E002434700F48104B7C
S2140837A09847104B9847104B984764200F4DA847EA
S2140837B064200F4B984701233370BFF35F8F62B6C0
S2140837C00094234664220B496620A8476725074CC1
S2140837D02846A047FCE700BF2401002050120E40F0
S2140837E0590F08009D0608008D0A08009134080045
S2140837F0C12008002901080080F0004002E000BF50
S21408380081F0004142001FBF5FEA410392EA030FBE
S2140838107FEA226C7FEA236C6AD04FEA1262D2EB08
S2140838201363C1BFD218414048404140B8BF5B420D
S214083830192B88BF704710F0004F40F4000020F0A6
S2140838407F4018BF404211F0004F41F4000121F0BC
S2140838507F4118BF494292EA030F3FD0A2F1010206
S21408386041FA03FC10EB0C00C3F1200301FA03F144
S21408387000F0004302D5494260EB4000B0F5000F67
S21408388013D3B0F1807F06D340084FEA310102F126
S2140838900102FE2A51D2B1F1004F40EBC25008BFD8
S2140838A020F0010040EA03007047490040EB0000A2
S2140838B010F4000FA2F10102EDD1B0FA80FCACF1D1
S2140838C0080CB2EB0C0200FA0CF0AABF00EBC250D0
S2140838D052421843BCBFD0401843704792F0000FBE
S2140838E081F4000106BF80F400000132013BB5E711
S2140838F04FEA41037FEA226C18BF7FEA236C21D087
S21408390092EA030F04D092F0000F08BF08467047EB
S21408391090EA010F1CBF0020704712F07F4F04D1B9
S214083920400028BF40F00040704712F100723CBFCC
S21408393000F50000704700F0004343F0FE4040F4F6
S214083940000070477FEA226216BF08467FEA2363B4
S2140839500146420206BF5FEA412390EA010F40F49F
S214083960800070474FF0000304E000BF10F00043EB
S21408397048BF40425FEA000C08BF704743F09643D2
S21408398001464FF000001CE050EA010208BF7047ED
S2140839904FF000030AE000BF50EA010208BF704774
S2140839A011F0004302D5404261EB41015FEA010C89
S2140839B002BF84460146002043F0B64308BFA3F181
S2140839C08053A3F50003BCFA8CF2083AA3EBC25363
S2140839D010DB01FA02FC634400FA02FCC2F1200282
S2140839E0BCF1004F20FA02F243EB020008BF20F0B9
S2140839F00100704702F1200201FA02FCC2F120021F
S214083A0050EA4C0021FA02F243EB020008BF20EA13
S214083A10DC7070474FF0FF0C1CEAD0521EBF1CEA41
S214083A20D15392EA0C0F93EA0C0F6FD01A4480EA2F
S214083A30010C400218BF5FEA41211ED04FF0006318
S214083A4043EA501043EA5111A0FB01310CF0004044
S214083A50B1F5000F3EBF490041EAD3715B0040EA6A
S214083A60010062F17F02FD2A1DD8B3F1004F40EB3A
S214083A70C25008BF20F00100704790F0000F0CF00D
S214083A80004C08BF49024CEA502040EA51207F3AD1
S214083A90C2BFD2F1FF0340EAC250704740F40000AC
S214083AA04FF00003013A5DDC12F1190FDCBF00F09D
S214083AB000407047C2F10002410021FA02F1C2F14B
S214083AC0200200FA02FC5FEA310040F1000053EAE7
S214083AD04C0308BF20EADC70704792F0000F00F035
S214083AE0004C02BF400010F4000F013AF9D040EA3B
S214083AF00C0093F0000F01F0004C02BF490011F4CF
S214083B00000F013BF9D041EA0C018FE70CEAD153CC
S214083B1092EA0C0F18BF93EA0C0F0AD030F0004C4C
S214083B2018BF31F0004CD8D180EA010000F0004000
S214083B30704790F0000F17BF90F0004F084691F0BE
S214083B40000F91F0004F14D092EA0C0F01D14202F8
S214083B500FD193EA0C0F03D14B0218BF084608D1C1
S214083B6080EA010000F0004040F0FE4040F400000B
S214083B70704740F0FE4040F4400070474FF0FF0C9E
S214083B801CEAD0521EBF1CEAD15392EA0C0F93EAE5
S214083B900C0F69D0A2EB030280EA010C49024FEA37
S214083BA0402037D04FF0805343EA111143EA1013F0
S214083BB00CF000408B4238BF5B0042F17D024FF4A8
S214083BC0000C8B4224BF5B1A40EA0C00B3EB510F83
S214083BD024BFA3EB510340EA5C00B3EB910F24BF6C
S214083BE0A3EB910340EA9C00B3EBD10F24BFA3EBF1
S214083BF0D10340EADC001B0118BF5FEA1C1CE0D1B9
S214083C00FD2A3FF650AF8B4240EBC25008BF20F06B
S214083C10010070470CF0004C4CEA50207F32C2BFBF
S214083C20D2F1FF0340EAC250704740F400004FF05C
S214083C300003013A37E792F0000F00F0004C02BF8D
S214083C40400010F4000F013AF9D040EA0C0093F057
S214083C50000F01F0004C02BF490011F4000F013BB1
S214083C60F9D041EA0C0195E70CEAD15392EA0C0F19
S214083C7008D142027FF47DAF93EA0C0F7FF470AF51
S214083C80084676E793EA0C0F04D14B023FF44CAF94
S214083C9008466EE730F0004C18BF31F0004CCAD129
S214083CA030F000427FF45CAF31F000437FF43CAF65
S214083CB05FE700BF42000ED2B2F1FE4F0BD34FF0C3
S214083CC09E03B3EB126209D44FEA002343F0004385
S214083CD023FA02F070474FF00000704712F1610FA8
S214083CE001D1420202D14FF0FF3070474FF000007A
S214083CF0704700BF0A22002100F098B970B50F4E31
S214083D000F4D761BB61018BF002405D0013455F8A1
S214083D10043B9847A642F9D10A4E0B4D05F06CFEB7
S214083D20761BB61018BF002406D0013455F8043B9D
S214083D309847A642F9D170BD70BD00BF049A080026
S214083D40049A08000C9A0800049A080070B48607BB
S214083D5046D0541E002A41D0CAB2034602E014F1E7
S214083D60FF343BD303F8012B9D07F8D1032C2ED93B
S214083D70CDB245EA05250F2C45EA054519D926464C
S214083D8003F11002103E0F2E42F8105C42F80C5C4D
S214083D9042F8085C42F8045C02F11002F2D8A4F17A
S214083DA0100222F00F0204F00F041032032C134402
S214083DB00DD91E462246043A032A46F8045BFAD86A
S214083DC0221F22F003020432134404F003042CB129
S214083DD0C9B21C4403F8011B9C42FBD170BC704757
S214083DE014460346C2E700BF0EB40146F0B56FF0AE
S214083DF000454FF402774FF6FF769CB021AC54F896
S214083E00042B0B4B02910691186802A923460194CD
S214083E10ADF8147004950795ADF8166000F01CF917
S214083E200022029B1A701CB0BDE8F04003B0704731
S214083E302C06002020F0030110F00300C0F100005B
S214083E4051F8043B00F1040C4FEACC0C6FF000026A
S214083E501CBF22FA0CF213434FF0010C4CEA0C2C50
S214083E604CEA0C4CA3EB0C0222EA030212EACC1230
S214083E7004BF51F8043B0430F4D0C2F1000102EA52
S214083E800102B2FA82F2C2F11F0200EBD2007047BA
S214083E90024A012312685C3200F002B82C060020A1
S214083EA0F0B418B307460D4617F8016B01E0A642B2
S214083EB017D015F8014B002CF9D1E6B10C4617F8C7
S214083EC0015B01E0002BF9D014F8013B9D42F9D1C3
S214083ED055B1002307F8013C064617603046F0BC8B
S214083EE0704753B13846DDE72F46F5E710680028D7
S214083EF0D8D10646F2E71660F0E717600646037064
S214083F00ECE700BF2DE9F84FDDF828900F4680460D
S214083F1016461D468A4600E0A2465446484614F809
S214083F2001BB02F0F9FA5844427812F00802F3D1BD
S214083F30BBF12D0F4FD0BBF12B0F04BF94F800B088
S214083F400AF102041DB1102D56D0AC4604E0BBF1B0
S214083F50300F60D00A25AC46002A0CBF6FF0004927
S214083F604FF000490021B9FBFCFE08460CFB1E9AE0
S214083F7005E029D001210CFB003014F801BBABF199
S214083F803003092B05D9ABF14103192B0BD8ABF13C
S214083F9037039D420FDDB1F1FF3FEED08645E8D2EC
S214083FA04FF0FF31E9E7ABF16103192B03D8ABF10A
S214083FB057039D42EFDC4B1C13D002B1404246B17A
S214083FC0C1B93760BDE8F88F9A45D3DA4FF0FF31AC
S214083FD0D3E7BDE8F88F94F800B001220AF102048E
S214083FE0B0E72223C8F80030EEB1671E48463760AF
S214083FF0BDE8F88F8146F8E7BBF1300FA5D12378E6
S21408400003F0DF03582BA0D14FF0100C94F801B042
S21408401065460234A0E7237803F0DF03582BF3D075
S2140840200825AC4698E74846BDE8F88F084B70B5B3
S2140840301D68084E6C6B82B0002C08BF34461346C9
S21408404000940A4601462846FFF75CFF02B070BD9A
S2140840502C0600205C0A00202DE9F04FC3B00C4661
S2140840600B9192460F930C9002F05AFA0368184682
S2140840701A93FFF7DFFEA3891990190603D523695B
S214084080002B01F0358000230DF1C809C8461593AA
S2140840901393149318931B930993169317932793C4
S2140840A02693CDF894909AF800305446EBB1252B19
S2140840B002D11AE0252B03D014F8013F002BF9D1C2
S2140840C0A4EB0A058DB1269B279A01332A44072BB1
S2140840D0C8F800A0C8F804502792269300F38A80F0
S2140840E008F10808099B2B4409932378002B00F055
S2140840F0898000234FF0FF301A468DF8773019462E
S2140841000D939B46637804F1010A0A900AF1010AA6
S214084110A3F12000582800F2B783DFE810F04C031C
S214084120B503B5035403B503B503B503B503B50323
S214084130B50359005903B50366001402B5032F02E8
S214084140A503A503A503A503A503A503A503A50322
S214084150A503B503B503B503B503B503B503B503A2
S214084160B503B503B5038B02D302B503D302B50373
S214084170B503B503B5031B03B503B5032003B503A1
S214084180B503B503B503B5033402B503B5034B024F
S214084190B503B503B503B503B503B503B503B50352
S2140841A0B503B50376029E03D302D302D302630394
S2140841B09E03B503B5036803B5037503DD018C03D9
S2140841C05E03B503F201B5038700B503B5033203F2
S2140841D00F9C236818460D932346002803F1040312
S2140841E00F9304DA0D9B5B420D934BF0040B9AF881
S2140841F000308BE725AA0B990C9803F031F840B9E4
S214084200C8466FE7279B23B10C9825AA0B9903F09D
S21408421027F80B9B9B8913F0400F099B18BF4FF09C
S214084220FF330993099843B0BDE8F08F1BF0200FC1
S214084230119340F0AF810F9A1BF0100F134640F011
S2140842409A851BF0400F00F09685002501231488F8
S21408425004320F92002217468DF877200A994A1CD6
S21408426000F010822BF08002079254EA050240F014
S2140842700F82002940F03184002B40F039851BF06E
S21408428001030E9300F06286302342AE06F8413DE5
S2140842900A9B0E9A9342B8BF1346089300231293BC
S2140842A017B1089B01330893079B13F0020310937A
S2140842B002D0089B02330893079B13F0840540F04E
S2140842C010830D9B089AA3EB020BBBF1000F40F37B
S2140842D00883BBF1100F40F3B287279C434621465C
S2140842E0A8461027269A0C9C0B9D06E0ABF1100BEF
S2140842F0BBF1100F03F1080318DD0132AB4810318B
S214084300072A2791269283E88100EFDD25AA294609
S214084310204602F0A5FF00287FF47BAFABF1100B18
S214084320BBF1100F4B462799269AE6DC45460C4605
S214084330984601329D4B5C44072A2794269288E8C3
S214084340080800F3C3829DF8777008F1080887B15B
S2140843500121269B0C440B440DF17702072B27946A
S2140843602693C8F80410C8F8002000F3CD8308F197
S2140843700808109B7BB10221269B0C4401331EAA19
S214084380072B27942693C8F80410C8F8002000F3D3
S214084390118408F10808802D00F004830A9B0E9A01
S2140843A09F1A002F37DD102F40F37986804D42463E
S2140843B02146B0464FF0100B2E46269B0C9C0B9DB4
S2140843C004E0103F102F02F1080215DD013310310A
S2140843D0072B2791269382E84008F2DD25AA29466E
S2140843E0204602F03DFF00287FF413AF103F102F41
S2140843F04A462799269BE9DC35460C4646469046AB
S21408440001333C44072B2794269388E8A00000F342
S214084410708308F10808079BDF0500F16482269B75
S2140844200E9901330C44072B2794C8F80060C8F887
S2140844300410269300F3B38308F10808079B5B076C
S2140844403BD50D9B089A9D1A002D36DD102D40F39E
S21408445021871026269B0C9FDDF82CB004E0103D23
S214084460102D08F1080816DD0133504A1034072BC2
S2140844702794269388E84400F1DD25AA594638464D
S21408448002F0EEFE00287FF4C4AE103D102DC8469C
S214084490279C269BE8DC0133444A2C44072B2794A8
S2140844A0269388E8240008DD25AA0B990C9802F0C4
S2140844B0D7FE00287FF4ADAE279C099B0D9A089975
S2140844C08A42ACBF9B185B180993002C40F0FB820D
S2140844D00023C8462693E6E511931BF0200340F018
S2140844E045811BF0100240F066841BF0400300F084
S2140844F062840F9913460A4604320C8800250F92E8
S214084500A8E600250F9A119316688DF87750141DA3
S214084510002E00F0CD860A9A531C00F01B8629460A
S214084520304602F0C7FA002800F00D87831B0A956C
S2140845300E930F94CDF81CB023EAE37308931295F4
S2140845409DF87770ACE69AF800300AF101042A2B39
S21408455000F0C287A3F130000928A24600F21887A7
S21408456000231C461AF8013B04EB840400EB4404C1
S214084570A3F130000928F5D90A94C9E54BF0800B59
S2140845809AF80030C2E54BF0100B1BF0200F119381
S2140845903FF451AE0F9C073424F0070303F10802DA
S2140845A0D3E900450F92012354E600BFBC970800E4
S2140845B0CC9708001193002A40F0AD87BE4B1BF03D
S2140845C0200F189340F0E7800F9A1BF0100F134641
S2140845D040F0D8831BF0400F00F0D4830025043346
S2140845E014880F931BF0010F00F0E38054EA0503CC
S2140845F000F0DF8030239DF844208DF878308DF861
S21408460079204BF0020B022324E6012211930023A3
S21408461011460F98089202681F468DF877300A935D
S2140846201293031DCDF81CB00E918DF8A0200F93A1
S21408463028AE39E61193002A40F084874BF0100B19
S2140846401BF0200F40F075840F9A1BF0100F1346CE
S21408465040F09D831BF0400F00F09983B2F90040AC
S2140846600433E5170F9322462B46002A73F10003FE
S214084670C0F298830A999DF877704A1C4FF0010398
S2140846807FF4F0AD54EA050200F02982CDF81CB09C
S214084690012B00F00E83022B40F09C824E461898A1
S2140846A0230943EA0573290904F00F020D461C4640
S2140846B0835C06F8013D54EA0503F1D1A9EB06032D
S2140846C00E93E5E51193002A40F038870F9C1BF0FF
S2140846D0080F04F1070400F0CF8424F0070303F161
S2140846E008020F921A685B6815921493149B159D1E
S2140846F023F00044284621464FF0FF326F4B03F064
S2140847006DFE002840F03484284621464FF0FF32DC
S2140847106A4B03F045FE002840F02A8415A80DC809
S214084720149903F033FE002840F0D4859DF877707E
S21408473003231A4608930023614E19460A93614BD1
S2140847400E92119A2BF0800007901291472AD8BF34
S2140847501E46A5E54BF0080B9AF80030D6E44BF059
S214084760100B11931BF020033FF4BBAE0F9C0734CD
S21408477024F0070303F10802D3E900450F9200234B
S21408478068E51193002A40F0C2864F4B1BF0200FB5
S21408479018933FF419AF0F9C1BF0010F04F10704A0
S2140847A024F0070303F108020F92D3E900457FF4CB
S2140847B01DAF02234EE59AF8003000297FF4A6AC18
S2140847C001222021A2E44BF0010B9AF800309DE468
S2140847D09AF8003001222B2198E44BF0200B9AF827
S2140847E0003093E44BF0400B9AF800308EE49AF8C9
S2140847F000306C2B03BF9AF801304BF0200B0AF1FF
S214084800010A4BF0100B81E4002A40F07C861BF06E
S214084810200F40F052841BF0100F40F038841BF035
S214084820400F00F034840F9A136804320F92BDF8D4
S21408483024201A8037E4782330220F988DF87930B0
S2140848401193031D0F93204B046818934BF0020B2B
S2140848508DF8782000250223FCE41193002A3FF403
S214084860EFAE8DF87710EBE600200446A3F1300093
S2140848701AF8013B04EB840400EB4404A3F130006F
S2140848800928F5D90D9443E41193002A40F04A8686
S214084890119A002A3FF4B6AC002301211F4608915E
S2140848A08DF8A020CDF81CB08DF877300A931293B7
S2140848B00E9128AEF8E400BF88970800FFFFEF7F48
S2140848C07C970800789708009C97080025AA0B99FB
S2140848D00C9802F0C5FC00287FF49BACC8469DF8EF
S2140848E07770279C33E5119B652B40F39A8015A8B3
S2140848F00DC8149903F040FD002800F093810121AB
S214084900269BB54A0B440C44072B27942693C8F8D5
S2140849100410C8F8002000F3C68308F108081F9B97
S214084920139A279C934203DB079BDD077FF586AD2A
S214084930269B199901331A9A0C44072BC8F80020AD
S214084940C8F804102794269300F3C48308F10808CF
S214084950139B5E1E002E7FF771AD102E40F37585F3
S21408496022461027269B9D4DDDF830B00B9C05E0AF
S21408497008F10808103E102E40F325820133103245
S214084980072B2792269388E8A000F1DD25AA214662
S214084990584602F065FC00287FF43BACC846279AC8
S2140849A0269BE7E70D9B089A9F1A002F7FF7F6AC21
S2140849B0102F40F3A884894D42462146B0464FF052
S2140849C0100B2E46269B0C9C0B9D04E0103F102FC8
S2140849D002F1080215DD01331031072B27912693C3
S2140849E082E84008F2DD25AA2946204602F038FC6F
S2140849F000287FF40EAC103F102F4A462799269BB6
S214084A00E9DC35460C464646904601333C44072BBF
S214084A102794269388E8A00000F39E8208F10808E9
S214084A20BCE4139B012B40F34F820123269F1C44B2
S214084A301F44072F2794C8F800602697C8F8043044
S214084A4000F35F8208F10808199A01371A9B144484
S214084A50072F27942697C8F80030C8F8042000F3D4
S214084A605C8208F1080815A80DC8149903F084FCA0
S214084A70139B002840F04181013B013701361C4456
S214084A80072FC8F8006026972794C8F8043000F364
S214084A90668108F108081B9A0137144421AB072FD2
S214084AA027942697C8F80420C8F800307FF7C4ACC7
S214084AB025AA0B990C9802F0D3FB00287FF4A9AB23
S214084AC0C846279CBAE425AA0B990C9802F0C8FB9E
S214084AD000283FF4FDACFFF79CBBDDF81CB0012BAB
S214084AE000F07E81022B71D1CDF81CB00024002581
S214084AF0D4E525AA0B990C9802F0B2FB00287FF49F
S214084B0088ABC846279C86E425AA0B990C9802F021
S214084B10A7FB00287FF47DABC846279C29E4012024
S214084B20269B2D4A03440444072B27942693C8F84B
S214084B300400C8F8002040F3D88225AA0B990C98E0
S214084B4002F08EFB00287FF464ABC8461F99279CAA
S214084B5029B9139B1BB9079BD8077FF56FAC199823
S214084B60269B0246013322441A9C072B2792C8F834
S214084B700040C8F80400269300F3318408F10808BA
S214084B800029C0F20984139901338C18072B27943F
S214084B902693C8F80060C8F804107FF74DAC25AA1D
S214084BA00B990C9802F05CFB00287FF432AB279C2C
S214084BB0C84643E425AA0B990C9802F051FB002836
S214084BC07FF427ABC846279CFFF7E5BB00240025E3
S214084BD0CDF81CB0494604E0B8970800CC97080002
S214084BE03146E20842EA4572E80804F0070305463B
S214084BF01446303354EA050201F8013C01F1FF3649
S214084C00EED1079AD2077FF559AD302B3FF456AD53
S214084C103023023906F8013CA9EB01030E930E4631
S214084C20FFF736BB1F9900297FF779AF129B139AB7
S214084C309342A8BF1346002B1F460BDD269B3C4419
S214084C400133072B279488E8C000269300F3FB82DD
S214084C5008F10808129B002FA8BFDB1B002B1F4675
S214084C6040F3D780102B40F33484BA4D4246214691
S214084C70B0464FF0100B2E46269B0C9C0B9D04E06E
S214084C800832103F102F40F3B58001331031072B40
S214084C902791269382E84008F2DD25AA2946204671
S214084CA002F0DEFA00287FF4B4AA4A462799269B23
S214084CB0E7E7002D08BF0A2CC0F090804E46204635
S214084CC029460A22002303F0C7FB303206F8012DD6
S214084CD02046294600230A2203F0BEFB04460D465A
S214084CE054EA0503EBD1A9EB06030E93FFF7D0BAF7
S214084CF00A9B4E460E93FFF7CBBA5E1E002E7FF732
S214084D00CAAE102E40F3E38322464FF0100B914DA7
S214084D100C9C04E0103E102E08F1080815DD01373B
S214084D201032072F2792269788E82008F2DD25AA52
S214084D300B99204602F094FA00287FF46AAA103EDF
S214084D40102EC846279A269FE9DC144601373444B5
S214084D50072F2794269788E860007FF79AAE25AA3B
S214084D600B990C9802F07CFA00287FF452AA279C2C
S214084D70269FC8468FE604321C68002501230F923A
S214084D80FFF768BA1C6804330F9300252AE41C68EA
S214084D900433E51722460F932B46002A73F10003C7
S214084DA0BFF668AC2D27644265EB45058DF877702D
S214084DB00123FFF753BA0F9900250A4604320C68F8
S214084DC00F92FFF747BA144601333444072B27944B
S214084DD0269388E860007FF72FABE0E6DDF81CB086
S214084DE0012342AE3034CDF81CB006F8414D0E9380
S214084DF0FFF74EBA35460C464646904601333C44C5
S214084E00072B2794269388E8A00000F3468208F12B
S214084E1008081F9A139B9A4245DB079BD90742D47A
S214084E20139B12989A1A1D1A9542A8BF1546002D6C
S214084E300EDD2699064401312C440729C8F800607F
S214084E402794C8F80450269100F3168208F108083B
S214084E50002DB4BF1646561B002E7FF7EFAA102E5D
S214084E6040F3F38222461027269B3A4DDDF830B0F1
S214084E700B9C04E008F10808103E102EA3DD013351
S214084E801032072B2792269388E8A000F2DD25AA81
S214084E902146584602F0E4F900287FF4BAA9C84625
S214084EA0279A269BE8E7269B199801331A99044403
S214084EB0072B2794C8F80010C8F80400269300F3B8
S214084EC0CF8108F10808ABE7079BDA073FF5ADADD9
S214084ED00123269F1C441F44072F2794C8F8006008
S214084EE02697C8F804307FF7D4AD25AA0B990C98F6
S214084EF002F0B6F900287FF48CA9C846279C269F9E
S214084F00C9E525AA0B990C9802F0AAF900287FF49F
S214084F1080A9C846279C269F96E525AA0B990C9833
S214084F2002F09EF900287FF474A9C846279C269F9D
S214084F3099E50F9C073424F0070404F10801D4E926
S214084F4000230F9114461D46FFF78FBB4E46FFF70A
S214084F509FB900BFCC97080025AA0B990C9802F0B9
S214084F607FF900287FF455A9C846279CFFF716BA8C
S214084F70159C22462046149C2346214603F02EFA0A
S214084F80002840F073820A9B0133119B23F020030C
S214084F900E9300F09C81472B00F0D6804BF480736C
S214084FA00793149B1F1E159B0893B7BF3B46002309
S214084FB003F100472D231093119B662B00F0908178
S214084FC0462B00F0A48002200E9B23A9452B0ABF7F
S214084FD00A9B0A9D5D1C8DE82100049120A81FA944
S214084FE03B460390089A02910C9800F059FB119BD7
S214084FF00646672B40F0BA811BF0010F00F02382AB
S2140850007419169A0898179B394603F0B5F90028BC
S21408501040F02481239BA34206D230215A1C2392B7
S2140850201970239B9C42F9D89B1B13930E9B472B06
S21408503000F0A280119B652B40F3A781119B662B7D
S2140850401F9B129300F07181139B129A1946914286
S21408505000F35D811BF0010F40F0F08122EAE27355
S214085060089367230E921193109B002B7DD10A9309
S2140850709DF87770FFF714B924F007042368159392
S2140850806368149304F108030F93FFF72FBB0F9A76
S214085090136804320F92099A1A60FFF704B8269B21
S2140850A0AF4DFFF7ADB925AA0B990C9802F0D8F8C2
S2140850B000287FF4AEA8C84631E40F9A1346043396
S2140850C00F93099B1168DD171A462B46C1E9002382
S2140850D0FEF7E9BF25AA0B990C9802F0C1F800283C
S2140850E07FF497A8C846279C32E408F108082FE5FD
S2140850F040210C9801F026FA0B9A106010610028DF
S21408510000F0148240230B9A5361FEF7BCBF0320BD
S2140851100A9C23A98DE81100049120A81FA90390D2
S214085120089A3B4602910C9800F0BAFA25460646BD
S214085130119B7419462B7FF464AF3378302B00F03C
S21408514087811F9D2C445CE70A9B002B08BF012320
S2140851500A9323E730460A95FEF76CFE0F940E90E6
S214085160CDF81CB00346FFF7E7B92D2700238DF8C6
S21408517077700A93FFF795B81F9B1A461293033366
S21408518004DB0A9B19469142BFF65EAF119B023BB1
S2140851901193129B9DF84420013B002B8DF8842028
S2140851A0B4BF2D222B221F93B8BF129B8DF88520E3
S2140851B0B8BFC3F10103092B40F31F810DF193001B
S2140851C00146684C00E0114684FB0352DD17C5EB28
S2140851D0A20505EB8502A3EB42023032092D01F841
S2140851E0012C2B4601F1FF32EDDC30330239DCB2FC
S2140851F0884202F8014C40F292810DF1860113466E
S21408520001E013F8014B834201F8014BF9D1013351
S2140852109B1A0DF18602134421AA9B1A139A1B9314
S214085220012A13440E9340F348810E9B199A13449F
S2140852300E9323EAE37308930023129314E7279C3C
S214085240269AFFF776B825AA0B990C9802F008F864
S21408525000287EF4DEAFC846279CFBE42346E3E638
S21408526025AA0B990C9801F0FBFF00287EF4D1AF15
S214085270C8461F9A279CD3E525AA0B990C9801F0D7
S214085280EFFF00287EF4C5AF1F9A139BC846279CDD
S2140852909A1ADDE5269BFFF7FEB825AA0B990C9807
S2140852A001F0DEFF00287EF4B4AFC846279CB0E5C0
S2140852B00A9B3746062B28BF06230A96129608939B
S2140852C00F94CDF81CB00E93274EFEF7E9BF0623C1
S2140852D00A9363E62D231F468DF87730FFF728BA22
S2140852E003200A9C23A98DE81100049120A81FA971
S2140852F00390089A3B4602910C9800F0D1F925468F
S2140853000646041919E7269B154DFFF77EBB199A22
S214085310139B1344129A0E93002A40F3C78023EA7D
S214085320E3730893672311939EE6002B40F3E1800E
S2140853300A9A002A40F0B0801BF0010F40F0AC80BB
S21408534008930E9390E60A9B0F9408930E930A9080
S214085350CDF81CB012909DF87770FEF7A1BF00BF7D
S214085360CC97080067666666B0970800119B472BBF
S2140853707FF446AE1BF0010F7FF4DAAE239B9B1B2F
S21408538013930E9B472B3FF4F7AE1F9B129300E731
S21408539000200A90FEF7BCBE4F42103135DA1024C2
S2140853A06A4DDDF830B004E008F10808103F102F09
S2140853B02CDD01331032072B27922693C8F80050AD
S2140853C0C8F80440F0DD25AA0B99584601F048FFB6
S2140853D000287EF41EAFC846279A269BE6E725AA2D
S2140853E00B990C9801F03CFF00287EF412AFC846D3
S2140853F01F99279A269BFFF7C3BB302213448DF8C4
S21408540087308DF8862022AB06E7504D01333A44A4
S214085410072B88E8A0002792269308F108087FF74C
S214085420B2AB25AA0B990C9801F01AFF00287EF457
S214085430F0AEC846279A269BFFF7A5BB129B199A7B
S21408544013440E936BE7239BEEE5269B3F4DBBE488
S214085450169A0898179B394602F08EFF00287FF4A4
S21408546070AEC5F101051F952C44CAE5149B384E4D
S214085470002BBEBF2D231F468DF877304FF0030351
S2140854801A4608934FF00003A8BF9DF87770194690
S2140854900A93304BFFF754B9129B199A13440A9A89
S2140854A01A4422EAE2730E920893DDE5129B0E9ADE
S2140854B0C3F101031A441346C3E71BF00103129312
S2140854C07FF4B3AE0E9B23EAE3730893CCE51F4D37
S2140854D03CE4269B1D4D91E40F9D9AF80130286800
S2140854E0A24640EAE0700A90284604300F90FEF77D
S2140854F00DBE0A9B13B91BF0010F02D0199B01338E
S214085500CDE701231CE78DF87710FFF780B98DF8F3
S2140855107710FFF73AB98DF87710FFF74FB80DF107
S214085520860379E68DF87710FFF7B2B94FF0FF32A9
S2140855300C2309920C9A1360FEF774BE8DF8771048
S214085540FFF7C4B88DF87710FFF778B8CC9708003F
S2140855508497080080970800024B13B1024800F0B1
S21408556005B8704700000000E564080000230146FF
S2140855701A46184601F0FEBE2DE9F04F03690F697A
S21408558083B09F4200F38880013F01F1140600F1C2
S214085590140A56F827305AF827200133B2FBF3F8D6
S2140855A0BB00009306EB030953440193B8F1000FC0
S2140855B03BD00023B4461C46D6465CF8042BDEF8DF
S2140855C000501FFA82FB08FB0B33120C4FEA134BF2
S2140855D008FB02BB9AB2A21AABB21FFA8BF41A44A3
S2140855E0C4EB154404EB224492B242EA0442E14575
S2140855F04EF8042B4FEA24444FEA1B43DDD2009BA7
S2140856005AF803308BB9019C231F9A450CD254F8DC
S214085610043C4BB9A4F1080302E01A68043B1AB923
S2140856209A4507F1FF37F8D30761044601F008FDED
S21408563000282DDB5546002308F1010856F8041B00
S21408564028688AB29A1A0B0C81B20A44C3EB104334
S21408565003EB224392B242EA0342B14545F8042BD3
S2140856604FEA2343EAD25AF827200AEB87037AB987
S2140856701A1F92450BD253F8042C42B9083B02E095
S2140856801A68043B1AB99A4507F1FF37F8D3276119
S214085690404603B0BDE8F08F002003B0BDE8F08FA9
S2140856A02DE9F04F056C9BB0044692469B46279E14
S2140856B04DB10123426C29469340AB606A6001F005
S2140856C0E7FA00232364BBF1000F5D4635DB0023B1
S2140856D033609D4BAB4315D00022002350465946F5
S2140856E002F04AFE804600282DD00123269A136031
S2140856F0289B002B00F0BD809448186001381BB02A
S214085700BDE8F08F42F20F73269A1360BAF1000FC5
S2140857100DD1C5F3130555B9289B8D48002BEED03F
S21408572000F10803289A13601BB0BDE8F08F289B89
S2140857308848002BE3D0C31CF4E701232BF0004570
S2140857403360AB46C5E718AA19AB019200935246D8
S2140857505B46204601F01EFD2B0D814671D0504653
S214085760CBF3130242F07F51189FA3F2FF36CDF811
S214085770508041F440110022774B02F0E1F96CA307
S214085780D3E9002302F090FB6BA3D3E9002302F0D1
S214085790D9F9CDE90201304602F020FB68A3D3E927
S2140857A0002302F081FB02460B46DDE9020102F007
S2140857B0C9F9CDE9040102F027FE00220290002371
S2140857C0DDE9040102F0E2FD002840F06D81029D4B
S2140857D0162D00F257816149524601EBC5015B461A
S2140857E0D1E9000102F0F0FD002800F0BE816B1E32
S2140857F0029300230E93BF1B7B1E089300F14E8175
S21408580000230A93029B002BC0F23F81089A0D934F
S21408581011461944002308910C93249B092B2AD877
S214085820052B40F358860025043B2493249B023B13
S214085830032B00F23F86DFE813F0CE03C302D9033A
S2140858405B04189F199E3E4406F23243202B40F311
S2140858508781C3F1400306F212409D402AFA00F001
S214085860284302F0ABFA0123013E1493A1F1F87124
S21408587081E73B4843E7002120466164259101F013
S214085880E1F94FF0FF3307930F930123259A04900D
S214085890206424920B93199B002BC0F2D380029AA3
S2140858A00E2A00F3CF802D4B03EBC203D3E9002367
S2140858B0CDE90823259B002BC0F2B483DDE9085602
S2140858C050462A463346594602F018FC02F09CFD1C
